:020000040000fa
:080000000002040000000000f2
:020000040000fa
:10000800a2020000a2020000a2020000a202000058
:10001800a2020000a2020000a2020000a202000048
:10002800a2020000a2020000a202000000280000b4
:10003800a2020000a2020000a2020000a202000028
:10004800a2020000a2020000a2020000a202000018
:10005800a2020000a2020000a2020000a202000008
:10006800a2020000a2020000a2020000a2020000f8
:10007800a2020000a2020000a2020000a2020000e8
:10008800a2020000a2020000a2020000a2020000d8
:10009800a2020000a2020000a2020000a2020000c8
:1000a800a2020000a2020000a2020000a2020000b8
:1000b800a2020000a2020000a2020000a2020000a8
:1000c800a2020000a2020000a2020000a202000098
:1000d800a2020000a2020000a2020000a202000088
:1000e800a2020000a2020000a2020000a202000078
:1000f800a2020000a2020000a2020000a202000068
:10010800a2020000a2020000a2020000a202000057
:10011800a2020000a2020000a2020000a202000047
:10012800a2020000a2020000a2020000a202000037
:10013800a2020000a2020000a2020000a202000027
:10014800a2020000a2020000a2020000a202000017
:10015800a2020000a2020000a2020000a202000007
:10016800a2020000a2020000a2020000a2020000f7
:10017800a2020000a2020000a2020000a2020000e7
:10018800a2020000a2020000a2020000a2020000d7
:10019800a2020000a2020000a2020000a2020000c7
:1001a800a2020000a2020000a2020000a2020000b7
:1001b800a2020000a2020000a2020000a2020000a7
:1001c800a2020000a2020000a2020000a202000097
:1001d800a2020000a2020000a2020000a202000087
:1001e800a2020000a2020000a2020000a202000077
:0801f800a2020000a2020000b7
:020000040000fa
:10020800a2020000a2020000a2020000a202000056
:10021800a2020000a2020000a2020000a202000046
:10022800a2020000a2020000a202000000280000b2
:10023800a2020000a2020000a2020000a202000026
:10024800a2020000a2020000a2020000a202000016
:10025800a2020000a2020000a2020000a202000006
:10026800a2020000a2020000a2020000a2020000f6
:10027800a2020000a2020000a2020000a2020000e6
:10028800a2020000a2020000a2020000a2020000d6
:10029800a2020000a2020000a2020000a2020000c6
:1002a800a2020000a2020000a2020000a2020000b6
:1002b800a2020000a2020000a2020000a2020000a6
:1002c800a2020000a2020000a2020000a202000096
:1002d800a2020000a2020000a2020000a202000086
:1002e800a2020000a2020000a2020000a202000076
:1002f800a2020000a2020000a2020000a202000066
:10030800a2020000a2020000a2020000a202000055
:10031800a2020000a2020000a2020000a202000045
:10032800a2020000a2020000a2020000a202000035
:10033800a2020000a2020000a2020000a202000025
:10034800a2020000a2020000a2020000a202000015
:10035800a2020000a2020000a2020000a202000005
:10036800a2020000a2020000a2020000a2020000f5
:10037800a2020000a2020000a2020000a2020000e5
:10038800a2020000a2020000a2020000a2020000d5
:10039800a2020000a2020000a2020000a2020000c5
:1003a800a2020000a2020000a2020000a2020000b5
:1003b800a2020000a2020000a2020000a2020000a5
:1003c800a2020000a2020000a2020000a202000095
:1003d800a2020000a2020000a2020000a202000085
:1003e800a2020000a2020000a2020000a202000075
:0803f800a2020000a2020000b5
:020000040000fa
:10040000af8b20000e7f22000e018800000000004c
:10041000000020000000e000020032000001200087
:10042000200288000c000700c09a22000100200072
:1004300011000700000020000000e0000200320070
:1004400000000200000000000a240200000000007a
:100450000040da000000fe004440a90040032000f4
:100460000000e0000300320000002000a00188002e
:100470004440a80000000600910188008000780038
:100480000000eb0015003700e280400032a0b4000d
:100490009101ba00e280400032a0b4009102ba009b
:1004a000e280400032a0b4000002eb00472bde00e7
:1004b000f507b200602ce10004003a000059eb009f
:1004c0008301e900fdff3e00040037006128e100e0
:1004d000010032000082eb00040007001101ba00a5
:1004e0000200e000e8ff3a00000006003159ba00bf
:1004f0008301e9000c0032002159ba008301e900b0
:10050000080032000400e00003003a00e2804000ee
:1005100032a0b400f5ff370011d9ba008301e90019
:10052000faff3a008100e800e180400032a0b40008
:100530000000060094240400000000004c0b04009e
:10054000000000000040da000000fe000002780019
:1005500002003700315a78000201e900e00f510033
:08056000fcff3a000000060058
:020000040000fa
:10056800111100002222000033330000444400002f
:1005780055550000666600007777000088880000ff
:1005880099990000aaaa0000bbbb0000cccc0000cf
:10059800dddd0000eeee0000cecd0000acab0000cb
:1005a8006f75000074700000757400005f740000bf
:1005b800617300006b000000494400004c450000d6
:0805c800000000000400000027
:020000040000fa
:1005d0001600fa003007980041079800520798006b
:1005e0006307980074079800050f9800160f98008d
:1005f000270f98009e0890005e009000b10407004d
:1006000000027800140798001e029000e00f5200cc
:10061000510032001e029000c40a90002507980085
:100620001e029000c40a90005e0290000402e900dd
:1006300004024200848242001e029000750a980063
:100640005e029000ae0990007e019000ce00900006
:100650001e0090001c0407006e019000be00900078
:100660002e009000c5110700000278008402780077
:100670001e029000050a78000e0a9000e00f52005a
:10068000030032000e0a90009e029000050a7800d6
:1006900035120700b44280000402e800b44288002a
:1006a00004408000e00f520007003a001e02900054
:1006b00004408800b4428000e10f52000c003a0070
:1006c000420407000a003700e4428000e00f5200b5
:1006d00007003a0004408000b40a90007e029000b7
:1006e000848f520002003e009e0290000540880068
:1006f000244380000402e800244388001e02900086
:10070000b40a9000d4428000848f52000300360067
:100710001e029000340a9000d44288001e0290000d
:100720000483e8001e029000340a90006a22b90097
:100730008402780024802000048242008600780031
:10074000040078006712070014002000040f7800ee
:1007500017120700020037000082eb00040f780038
:100760001e027800e10f52000b003a00e4428000c4
:10077000e00f52000800320004408000b40a9000ec
:100780007e029000848f5200030031005c29020039
:1007900000000000000000001e0278000400780045
:1007a0000080fa00000006000c00fa0040079800e4
:1007b000510798000002eb00040f7800ae0107001b
:1007c000c4428000140798004e0290009402780002
:1007d0005e02900004824200240798004e029000be
:1007e000940278001e029000848f52000c003600a4
:1007f0004e029000940278002e029000848f5200e6
:1008000012003600ae0290001e029000848f52004b
:100810000e00360014002000040f78000b00370093
:100820004e029000940278002e029000848f5200b5
:1008300004003e00ae0290001e029000848f520021
:100840000200360014002000040f78004e029000d1
:10085000ae029000050a78001e027800e00f5200f8
:1008600006003200044080000482e80004007800a2
:100870006c1207002e009000f403070084010700ab
:1008800000027800340798003e029000e00f52000a
:1008900003003a005c290200000000000000000094
:1008a0000080fa00000006000600fa002007980009
:1008b0000002eb00040f78002e029000e00f5200bf
:1008c0000e0032006c010700c54280002e0290002d
:1008d0000482420014079800044080000482e8006b
:1008e000040078004f1207001e009000d703070095
:1008f0006701070000027800040f78001e027800ec
:10090000e00f520003003a005c29020000000000e2
:10091000000000000080fa00000006000c00fa0051
:1009200040079800510798000002eb00040f780080
:100930005e029000e30f52000200360034002000f7
:1009400054079800881107004e029000e00f5200f3
:1009500002003a0004408000010037004e0290007f
:10096000140798001e029000b40a90002507980012
:10097000ae0290005e029000848f52004a00320066
:10098000de0290002e029000848f52000c00360090
:10099000044080009e029000848f52000e003200be
:1009a00004408000b40a90005e029000848f5200e0
:1009b00009003e0014002000040f780006003700f4
:1009c000044080009e029000848f520002003a0092
:1009d00014002000040f78001e029000b40a90005a
:1009e000350798001e029000de029000350a98003c
:1009f0001e02900064029000e00f520004003500d7
:100a00005e029000e40212001e029000650298004f
:100a10001e029000540390003e0290006a22b9002a
:100a2000840278002480200004824200840f530056
:100a300017003a001e0290000482e80004007800cb
:100a4000f81107001e029000b40a9000d442800002
:100a5000848f5200030036001e029000340a90007a
:100a6000d44288001e0290000483e8001e02900019
:100a7000340a90006a22b9008402780024802000a1
:100a80000482420086007800040078009511070077
:100a90001e027800e10f520003003a005c290200b8
:100aa0000000000000000000411107000080fa0073
:100ab000000006000400fa00100798002a11070041
:100ac0001e029000e00f520002003a000440800035
:100ad000010037001e029000040f78001e82e8001b
:100ae00004007800cf1107001e027800240a90004d
:100af000e00f5200040032009e0278006c82420037
:100b000004007800c71107001e82e8008400780006
:100b1000c0842000731107002511070004408000e5
:100b20009e027800848f520010003a00e442800058
:100b3000e00f5200040032005c29020000000000b7
:100b4000000000000f00370065428000b4428000c2
:100b5000848f520003003a000002eb00044088003a
:100b600008003700a801070006003700e4428000b3
:100b7000e00f520003003200fb1007007303070070
:100b80000b1107000080fa00000006000600fa00c2
:100b9000200798000002eb00040f78002e0290005e
:100ba000140798001e029000d4029000c484200014
:100bb000848f52000b003a001e029000a40a90009d
:100bc00024842000848f5200060032001e02900010
:100bd000240a9000e00f520002003a0014002000a6
:100be000040f78001e027800040078000080fa00ec
:100bf000000006000400fa00100798001e02900092
:100c0000040f78001e027800e00f52002900320025
:100c1000044080009e027800848f5200250032003c
:100c2000d11007001e007800d8ff070000027800ee
:100c3000e10f52001e003a001e82e8000400780016
:100c4000781107001e027800b40a9000d442800098
:100c5000848f5200030036001e027800340a900090
:100c6000d44288001e83e8001e027800340a9000f7
:100c70006a22b900840278002480200004824200a5
:100c80008600780004007800161107001e02780024
:100c9000b40a900004408000340a9000848f52000f
:100ca000030039005c290200000000000000000081
:100cb000bf1007000080fa00000006000800fa00dc
:100cc000300798000002eb00040f78003e0290000d
:100cd000140798000002eb00240798001e00900003
:100ce000aaff070000027800e10f520028003a0036
:100cf00044438000e00f520020003a001e029000a2
:100d0000b40a900004408000340a9000848f52009e
:100d10000200390014002000040f78001e02900029
:100d20000482e800040078003e1107001e029000d3
:100d3000b40a9000d4428000848f52000300360031
:100d40001e029000340a9000d44288001e029000d7
:100d50000483e8001e029000340a90006a22b90061
:100d600084027800248020000482420086007800fb
:100d700004007800db100700050037001e02900019
:100d80006c0242008400780020842000d510070007
:100d90001e027800040078000080fa0000000600bf
:100da0000400fa008003eb000003eb008002eb007c
:100db0000002eb008001eb0032072000012e28002a
:100dc000c0b4200002fe070000027800040f780083
:100dd0001e027800e10f520013003a0094028000d6
:100de00014079800ff3ffc00140280000450a0008c
:100df0000460a1000470a100140288001e0290008b
:100e00009402880000008800000000000082eb00cf
:100e10003443880014002000e44288000002eb0004
:100e2000c44288001f1007000080fa00000006007e
:100e30000200fa0094028000040f7800ff3ffc00db
:100e4000140280000450a0000460a1000470a100fe
:100e5000140288001e0278009402880000008800b6
:100e6000000000000002eb00e442880025100700ab
:100e70000080fa00000006000000fa0044438000f1
:100e80000402e800444388000080fa0000000600e5
:100e90000400fa000002eb00040f78003210070093
:100ea000444380000402e900444388004443800036
:100eb000e00f520045003a00b4428000e00f5200bb
:100ec0004200320026003700444280003402900085
:100ed000140798001e0290006c0242000400780083
:100ee000d01007001e0290000482e8000400780081
:100ef000cc1007001e029000b40a9000d44280007b
:100f0000848f5200030036001e029000340a9000c5
:100f1000d44288001e0290000483e8001e02900064
:100f2000340a90006a22b9008402780024802000ec
:100f300004824200860078000400780069100700ef
:100f40001e029000b40a900004408000340a900011
:100f5000848f5200020039001400200004438800ee
:100f600014428000e00f5200d7ff3a00f4428000a4
:100f7000e00f52000d003200090037002f0007007b
:100f800000027800e00f520002003200140020003e
:100f900004438800f44280000402e900f44288001f
:100fa000f4428000e00f5200f4ff3a000443800056
:100fb000e10f520005003a0014002000040f7800f1
:100fc0005c2902000000000000000000f80f07008c
:100fd0001e027800040078000080fa00000006007d
:100fe0000200fa00e00f0700c4428000040f7800fe
:100ff000ef0f07001e027800040078000080fa005e
:10100000000006000400fa000002eb00040f780064
:10101000c4428000140798001e029000040078006b
:101020000080fa00000006000000fa00b4428000d0
:10103000040078000080fa00000006000a00fa00b0
:101040000002eb00040f780044438000e00f5200e0
:1010500061003a00c44280000402e800c4428800f3
:10106000c4428000140798001e029000e00f520056
:101070000a003a00f54180002507980004428000ec
:10108000f44188002e02900004428800144380003e
:101090000402e800144388002c0207003443800057
:1010a0009e029000848f52003f00390001003700fb
:1010b00000000000f441800014027800e00f5200ac
:1010c00003003a000082eb0034438800360037000a
:1010d000f4418000340290003402900034079800fc
:1010e0003e02900094029000450798009e029000f6
:1010f0004e029000848f5200030031004e02900097
:1011000034438800280037003e0290000482e80043
:1011100004007800431007003e029000240a90006b
:10112000e00f5200040032003e0290006c024200c8
:10113000040078003b1007003e029000b40a9000c3
:10114000d4428000848f5200030036003e0290009b
:10115000340a9000d44288003e0290000483e800e4
:101160003e029000340a90006a22b900840278009e
:101170002480200004824200860078000400780069
:10118000d80f07003e029000b40a9000044080008f
:10119000340a9000848f5200c5ff390014002000eb
:1011a000040f7800c3ff370004408000340a900029
:1011b0006a22b90084027800248020000482420060
:1011c00014027800e10f52000600360014002000df
:1011d000040f780003003700f44280000402e800a6
:1011e000f442880004438000e00f52000200320005
:1011f00014002000040f78001e027800040078001c
:101200000080fa00000006000200fa00444380005b
:10121000e00f520003003200140020000443880055
:10122000270037000002eb0004438800030037006a
:10123000d44280000402e900d4428800d4428000f5
:101240006a22b900840278002480200004824200cf
:1012500014027800e00f5200f5ff3200d442800003
:101260006a22b9008402780024802000048f4200a2
:101270001e02780014029000940290001e02780072
:10128000150298001e027800940290001e03780058
:1012900064024300848f520005003a001e02780069
:1012a00014029000940290001e027800150298002b
:1012b0001e0278001402900034029000044088005e
:1012c0000080fa00000006000600fa0010079800ef
:1012d00021079800044080006c02420084007800de
:1012e0001e0090009d0f0700044080000482e8006b
:1012f00004007800cb0f07002e029000e10f42009f
:1013000006003a00044080000482e800840078006f
:10131000c0842000730f070005003700c54280001d
:101320002e029000048f42001e0078004701070043
:101330000080fa00000006000800fa00100798007c
:101340002107980032079800044080002e03900087
:101350000500280086827200650298000440800023
:101360006c024200840078001e0090005d0f0700b0
:10137000044080000482e80004007800a90f070000
:101380003e029000e10f420006003a000440800057
:101390000482e80084007800c0842000510f070018
:1013a00005003700c54280003e029000048f4200d5
:1013b0001e007800250107000080fa0000000600ea
:1013c0000600fa00200798002e02900034029000d8
:1013d00034029000140798001e0290006c02420034
:1013e000040078008f0f070044438000e00f520094
:1013f00018003a001e0290000482e8000400780001
:10140000880f07001e029000b40a9000d4428000aa
:10141000848f5200030036001e029000340a9000b0
:10142000d44288001e0290000483e8001e0290004f
:10143000340a90006a22b9008402780024802000d7
:10144000048242008600780004007800250f07001f
:10145000050037001e0290006c02420084007800f4
:10146000208420001f0f07001e029000b40a900085
:1014700004408000340a9000848f5200050036003a
:1014800014002000040f780014002000044388009a
:10149000020037000002eb00040f78001e02780003
:1014a000040078000080fa00000006000800fa003e
:1014b0002007980031079800be0290000400280021
:1014c000850272002e029000050a78002e0290001c
:1014d00034029000140798002e009000510f07006e
:1014e0001e0290000482e800040078004d0f0700ff
:1014f0001e029000b40a9000d4428000848f5200f3
:10150000030036001e029000340a9000d442880086
:101510001e0290000483e8001e029000340a90002e
:101520006a22b900840278002480200004824200ec
:101530008600780004007800ea0e07001e02900082
:10154000b40a900004408000340a9000848f520056
:101550000500360014002000040f7800140020005d
:1015600004438800020037000002eb00040f7800fb
:101570001e027800040078000080fa0000000600d7
:101580000200fa00000f7800154380001e02780068
:10159000050a7800c54280001e02780015029800f6
:1015a0000080fa00000006000800fa0020079800fa
:1015b000310798006c0e0700c442800014079800a1
:1015c0003e02900014027800e10f420003003a004e
:1015d0000002eb00040f7800250037002e02900077
:1015e0009402780014438000848f52000800320077
:1015f0002e029000940290001e029000848f5200f0
:1016000003003e0014002000040f7800180037008b
:101610002e029000140290009e02900084825200dc
:101620003e02900014027800848f52000e003100b8
:101630003e029000940278002e0290001403900065
:101640001e02900004025300848242003e02900079
:10165000050a78002e009000c9ff07000002eb0089
:10166000040f78000200370014002000040f7800f7
:101670004f0e07001e027800040078000080fa0078
:10168000000006000000fa00140020000443880057
:101690000080fa00000006000200fa00000f780047
:1016a00001003700000000006500070014408000c2
:1016b000e10f5200fbff36005c2902000000000031
:1016c00000000000f8ff37000c00fa001007980037
:1016d00021079800320798004307980054079800a4
:1016e0000002eb00040f78000d0037002e0290007e
:1016f0001e024200944278001e0290001e02420028
:101700007a024200054a78002e0290001e02420032
:1017100014427800e04f5200050032001e0fe8002e
:101720001e027800e30f5200f0ff36000100370080
:10173000000000001e0290008042eb00555a980005
:101740003e029000e30f52000200360034002000f9
:10175000340798001e029000be029000350a9800df
:101760001e0290000482e80004007800560e070074
:101770001e0290006c02420004007800520e070026
:101780001e0290009e029000450298003e029000ca
:10179000e40212001e029000650298001e029000f2
:1017a0009e029000150a98001e0390006022b80067
:1017b00004139800151398001e0290008002eb009d
:1017c000251298000080fa00000006000200fa00ce
:1017d0000002eb00040f7800080037001e027800ba
:1017e0006a22b9008402780024802000048242002a
:1017f000040078001b0e07001e0fe8001e02780090
:10180000e30f5200f5ff3600a0822000150e0700fe
:1018100040832000130e070020842000110e0700d3
:10182000c08420000f0e0700a4822000f44188002d
:1018300044832000044288000080fa000000060073
:101840000000fa000080fa00000006000200fa0022
:10185000000f7800044080009e0278001502980076
:10186000c44280009e027800848f5200070031003d
:10187000044080008482e8000442800085007800f3
:1018800004007800350e07000c003700044080008b
:101890008482e800f441800085007800040078002c
:1018a0002e0e0700344380009e027800848f520081
:1018b000020031001e027800344388000080fa00e4
:1018c000000006000600fa001007980021079800a3
:1018d00060022000740a070000027800040f7800fc
:1018e0001e027800e00f5200140032002e02900019
:1018f000e00f520006003a001e029000040242006f
:1019000004007800680a0700000278000100370030
:101910002e0290009e027800c40a98001e027800f1
:10192000440a9000e00f520004003a001e007800c4
:10193000cd0a07000002eb00040f78001e027800b9
:10194000040078000080fa00000006000200fa009f
:10195000f441800014027800e00f520003003a00c6
:101960000082eb003443880007003700f441800018
:101970003402900034029000040f78001e027800b8
:1019800014029000344388000080fa000000060032
:101990000200fa0004408000e4029000050f780085
:1019a0000440800005408000b50a9000e4821200e7
:1019b000650298001e027800040078000080fa009a
:1019c000000006000a00fa0030079800410798005e
:1019d000650d0700044080009412900004129000ee
:1019e000e00f5200e08f5a001b003a0004408000d4
:1019f00015002000251298004e029000e00f5200c2
:101a000015003200044080000482e80004007800e1
:101a1000040e07004e029000e10f420006003a005b
:101a2000044080000482e80084007800c084200024
:101a3000ac0d070005003700c54280004e02900043
:101a4000048f42001e00780080ff07005c2902001e
:101a50000000000000000000550d0700420d0700c7
:101a6000044080000413900094139000160798001f
:101a7000270798001e029000ae029000e00f52006f
:101a8000e08f5a000f0032003e029000e00f52003b
:101a900005003200064080006022b8000413980060
:101aa00015139800070037000640800006129000ca
:101ab0009612900061025200e0825a0004139800ce
:101ac00015139800044080008002eb002512980056
:101ad000370d07001e029000ae0290000400be0009
:101ae0000080fa00000006001000fa0020079800ad
:101af0003107980042079800530798006407980040
:101b000075079800180d070004408000241290000b
:101b1000e20f5200320032000040800000139000bb
:101b2000901390002e029000be0290000482ea0002
:101b30008582ea0086007800070378008403780035
:101b40000502780087806000040263000500200021
:101b5000c022dd00040020000403be00610ab800ba
:101b60000403730085837300061098001710980013
:101b70000440800015002000251298007e0290008d
:101b8000e00f520016003200044080000482e8009a
:101b900004007800a30d07007e029000e10f4200d0
:101ba00006003a00044080000482e80084007800c7
:101bb000c08420004b0d070006003700c54280009e
:101bc0007e02900004824200140798001e009000dc
:101bd0001eff07005c29020000000000000000005a
:101be000f30c0700e00c07006e029000e00f5200bb
:101bf000050032000440800094129000041290000e
:101c00006e039000048bbe000440800024129000fc
:101c1000e10f520003003a000002eb00040f7800cd
:101c200018003700004080000013900090139000cf
:101c30004e029000de0290000482ea008582ea00f3
:101c40008600780007037800840378000502780096
:101c5000878060000402630005002000c022dd00d0
:101c6000040020000403be00610ab80004037300ee
:101c70008583730006109800171098001400200048
:101c8000040f7800044080008002eb0025129800c9
:101c9000c70c07001e027800040078000080fa00dc
:101ca000000006001000fa00300798004207980074
:101cb00053079800610798007407980014002000eb
:101cc000040f78003e02900014079800a60c07004d
:101cd0007e029000e00f5200050032001e029000cc
:101ce00094129000041290007e039000048bbe00ba
:101cf0001e029000a4129000250798001e0290007a
:101d000025002000251298006e029000050020009a
:101d10004600200007002000860f5200878f5a00df
:101d20002d003e00046001002a0037000300370048
:101d30000d003700150037001a0037001e02900012
:101d400004139000941390004e029000de02900065
:101d500004027300858273001e0390000413980030
:101d6000151398001c0037001e029000941290007a
:101d70000412900061024200e0824a001e039000bb
:101d80000413980015139800130037001e029000ea
:101d90004e039000de039000061298001712980080
:101da0000d0037002e029000e20f520006003200b4
:101db0001e0290004e039000de0390000612980071
:101dc00017129800040037000002eb00040f78009f
:101dd00001003700000000002e029000e10f5200c9
:101de00020003a001e0290000482e80004007800ff
:101df0000c0d07001e029000b40a9000d44280002f
:101e0000848f5200030036001e029000340a9000b6
:101e1000d44288001e0290000483e8001e02900055
:101e2000340a90006a22b9008402780024802000dd
:101e3000048242008600780004007800a90c0700a4
:101e40001e029000b40a900004408000340a900002
:101e5000848f5200030036005c290200000000005d
:101e600000000000520c07001e02780004007800f9
:101e70000080fa00000006001400fa0040079800f5
:101e8000520798006307980071079800040f9800a4
:101e9000150f980014002000040f78004e029000e7
:101ea000140798000002eb00240798000e0a900027
:101eb000e00f5200050032001e02900094129000c4
:101ec000041290000e0b9000048bbe001e029000c6
:101ed000a4129000350798001e02900025002000f3
:101ee000251298007e029000050020004600200088
:101ef00007002000860f5200878f5a002d003e00f9
:101f0000046001002a003700030037000d0037008d
:101f1000150037001a0037001e02900004139000cd
:101f2000941390005e029000ee0290000402730091
:101f3000858273001e039000041398001513980007
:101f40001c0037001e0290009412900004129000b2
:101f500061024200e0824a001e03900004139800d0
:101f600015139800130037001e0290005e039000c6
:101f7000ee03900006129800171298000d0037002b
:101f80003e029000e20f5200060032001e02900056
:101f90005e039000ee03900006129800171298005e
:101fa000040037000002eb00040f78000100370046
:101fb000000000003e029000e10f52002c003a00a9
:101fc00044438000e00f520018003a001e029000c7
:101fd0000482e80004007800920c07001e029000c2
:101fe000b40a9000d4428000848f5200030036006f
:101ff0001e029000340a9000d44288001e02900015
:102000000483e8001e029000340a90006a22b9009e
:102010008402780024802000048242008600780038
:10202000040078002f0c0700050037001e02900006
:102030006c0242008400780020842000290c0700f4
:102040001e029000b40a900004408000340a900000
:10205000848f5200060036001e0a9000e00f5200e6
:10206000030032001e0a900015002000050a7800c7
:102070001e027800040078000080fa0000000600cc
:102080000a00fa0030079800410798003e029000cd
:10209000040f78000002eb00140798001e0278007d
:1020a000a4129000250798001e0278002500200049
:1020b000251298001e0278009412900004129000dd
:1020c00061024200e0824a001e0378000413980077
:1020d000151398002e029000e10f52002a003a00da
:1020e00044438000e00f520016003a001e82e800d0
:1020f000040078004b0c07001e027800b40a900020
:10210000d4428000848f5200030036001e02780003
:10211000340a9000d44288001e83e8001e02780032
:10212000340a90006a22b9008402780024802000da
:10213000048242008600780004007800e90b070062
:10214000050037009e0278006c824200840078000f
:1021500020842000e30b07001e027800b40a9000e0
:1021600004408000340a9000848f5200060036003c
:102170004e029000e00f5200030032004e02900029
:1021800015002000050a78000080fa000000060013
:102190000600fa00200798002e029000140798000d
:1021a0001e029000e00f520002003a00044080003e
:1021b000010037001e029000140798006a0b070008
:1021c0001e02900024129000e20f520006003a0016
:1021d0001e0290008002eb002512980014002000df
:1021e000040f7800020037000002eb00040f7800b3
:1021f0006f0b07001e027800040078000080fa00d0
:10220000000006000600fa00100798002107980059
:102210001e029000040f7800530b07001e02780086
:10222000140378001e027800f40a90001e02780061
:102230000412900004aab90004027800840243004a
:102240001e027800150298001e0278008002eb0042
:10225000650a98001e027800940278001e02780039
:10226000250298001e027800140378001e027800f0
:10227000740a90008402e9001e02780004129000a3
:1022800004aab90004027800840243001e02780008
:10229000350298001e0278008082eb00151298002b
:1022a0001e0278008082eb00251298002e0290001a
:1022b000e00f52000f003a001e0278004402900026
:1022c000e00f5200130032009e0278006882420044
:1022d000040078003afc070000027800e10f520089
:1022e0000c003a005c290200000000000000000021
:1022f000080037009e0278006882420004007800df
:10230000580b07009e027800728242000400780099
:10231000540b0700260b070014002000040078006f
:102320000080fa00000006000c00fa003007980058
:1023300041079800224f98000002eb001407980014
:102340004e029000e00f520003003a000002eb0042
:10235000040f780005003700be0290004e02900086
:1023600004aab90004027800040fe8006502200006
:102370001e82420004007800cb07070000027800ac
:10238000240798002e029000e00f52001700320040
:102390004e029000e00f520004003a00ae0290009e
:1023a0002e029000050a7800050037002e029000ea
:1023b00065022000848242002e029000050a780007
:1023c0002e029000be029000750a98002e02900026
:1023d000ce02900005129800110020002e009000ff
:1023e00088ff07002e029000140798001e0290003c
:1023f000040078000080fa00000006001200fa00d5
:10240000500798006107980072079800030f980022
:102410000002eb00040f78005e02900014079800a1
:102420000100370000000000cf0a07001e029000e4
:10243000e40a90001e029000740a9000848f5200fb
:10244000030039000e0a9000e20f52001e003a000d
:102450000e099000ee0090001e009000dc010700c5
:1024600000027800240798001e029000140a9000d1
:10247000e00f52000b0032001e0290007202420078
:1024800004007800cefb070000027800e10f520044
:102490000a003a005c290200000000000000000071
:1024a000060037002e029000e00f520003003200b9
:1024b0005c2902000000000000000000bc0a0700c8
:1024c00014002000450037007e029000e00f52000b
:1024d00003003a00b60a07000002eb003f00370095
:1024e0001e027800e00f520005003a006602470025
:1024f0000400780022fc070014002000040f78007c
:10250000ab0a07005cfa0700970a07001e0290005a
:1025100014129000e10f420003003a001e029000e6
:102520008002eb00151298001e0290002412900009
:10253000e10f420003003a001e0290008002eb000f
:10254000251298009a0a0700ee024700660247002b
:10255000850078000400780013fc07000002780072
:10256000e00f520019003a001e00900072020700ae
:1025700000027800e00f520010003200fe029000ce
:102580001e02900068024200850078000400780076
:102590004dfb07001e009000090207003cfa0700ef
:1025a00000027800e00f52009eff3a005c29020012
:1025b00000000000000000009bff37001e0090009c
:1025c000ff01070032fa070097ff37001e00900056
:1025d000fb0107002efa07000002eb000400780060
:1025e0000080fa00000006000e00fa003007980094
:1025f0004107980052079800630798003e02900038
:10260000140798000002eb00240798001e029000b7
:10261000e40a90001e029000740a9000848f520019
:10262000030039006e029000e20f520022003a00cf
:102630006e019000ce0090001e0090006401070023
:102640001e02900024129000e10f420012003a0096
:102650001e029000140a9000e00f52001300320096
:102660001e029000720242000400780054fb070032
:1026700000027800e00f52000c0032005e02900071
:10268000e00f5200090032005e02900015002000a9
:10269000050a7800050037001e0290002412900001
:1026a0008402e8001e029000251298001400200009
:1026b000040f7800020037000002eb00040f7800de
:1026c0001e027800040078000080fa000000060076
:1026d0000a00fa0030079800410798003e02900077
:1026e000140798000002eb00240798001e029000d7
:1026f000e40a90001e029000740a9000848f520039
:10270000230031001e029000640a90008402e80059
:102710001e029000650a98001e029000241290008c
:10272000e10f420012003a001e029000140a9000cd
:10273000e00f5200130032001e02900072024200ad
:10274000040078001efb070000027800e00f520032
:102750000c0032004e029000e00f520009003200df
:102760004e02900015002000050a78000500370091
:102770001e029000241290008402e8001e029000c5
:102780002512980014002000040f78000200370082
:102790000002eb00040f78001e02780004007800ad
:1027a0000080fa00000006001200fa0050079800ae
:1027b0006107980072079800030f98000002eb0071
:1027c000040f78005e0290001407980001003700a3
:1027d00000000000e40907001e029000640a900057
:1027e000e00f5200310032001e029000b40290004f
:1027f00025079800ee0090001e0090004e01070093
:102800000e0a9000e00f520014003a001e029000e1
:10281000640a90008402e9001e029000650a980094
:102820001e02900044029000e00f52001c00320093
:102830001e0290006802420004007800e0fa0700df
:1028400000027800e10f520015003a005c290200f6
:102850000000000000000000110037001e02900080
:10286000ae029000350298001e029000140a9000fb
:10287000e00f52000a0032001e0290007202420075
:1028800004007800cefa070000027800e00f520042
:10289000030032005c29020000000000000000007c
:1028a000c309070014002000450037007e02900095
:1028b000e00f520003003a00bd0907000002eb00e0
:1028c0003f0037001e027800e00f520005003a007a
:1028d000660247000400780029fb0700140020006e
:1028e000040f7800b209070063f907009e0907008a
:1028f0001e02900014129000e10f420003003a0003
:102900001e0290008002eb00151298001e0290003b
:1029100024129000e10f420003003a001e029000d2
:102920008002eb0025129800a1090700ee02470083
:102930006602470085007800040078001afb070053
:1029400000027800e00f520019003a001e009000cb
:102950005901070000027800e00f52001000320019
:10296000fe0290001e029000720242008500780074
:102970000400780054fa07001e00900010010700c0
:1029800043f9070000027800e00f520090ff3a0080
:102990005c29020000000000000000008dff3700ed
:1029a0001e0090000601070039f9070089ff370073
:1029b0001e0090000201070035f907000002eb003d
:1029c000040078000080fa00000006000c00fa0005
:1029d0003007980041079800520798003e02900087
:1029e000140798000002eb00240798001e029000d4
:1029f000640a9000e00f520026003200ce009000e2
:102a00001e009000cc0007001e029000640a900097
:102a10008402e9001e029000650a98001e029000e0
:102a200014129000e10f420012003a001e029000c2
:102a300044029000e00f5200130032001e0290008a
:102a400068024200040078005dfa07000002780086
:102a5000e00f52000c0032005e029000e00f5200c6
:102a6000090032005e02900015002000050a78007f
:102a7000050037001e029000141290008402e80046
:102a80001e0290001512980014002000040f780018
:102a9000020037000002eb00040f78001e027800ed
:102aa000040078000080fa00000006000c00fa0024
:102ab00040079800510798004e02900014079800b4
:102ac0000002eb00240798001e029000640a9000a8
:102ad000e00f52000c0032001e029000b402900081
:102ae00035079800de0090001e009000920007005d
:102af0001e029000be0290003502980014002000d3
:102b0000040f7800020037000002eb00040f780089
:102b10001e027800040078000080fa000000060021
:102b20000400fa00100798000f0907001e02900029
:102b3000e40a9000050f78001d0907001e027800c6
:102b4000040078000080fa00000006000600fa0089
:102b5000200798002e029000040f78000209070059
:102b60001e027800f40a90001e027800640a9000a9
:102b700004825200140798000d0907001e029000fd
:102b8000040078000080fa00000006000400fa004b
:102b9000100798001e029000e40a9000050f7800cc
:102ba0001e027800040078000080fa000000060091
:102bb0000400fa00100798001e029000040f78002d
:102bc0001e007800280607000080fa0000000600ba
:102bd0000800fa00100798002107980032079800b3
:102be0000002eb00040f78001e0290000412900017
:102bf000e00f5200470032003e029000e00f52000a
:102c00001a003a001e029000841290001e029000ea
:102c10002402900005017800ae00900004007800c6
:102c20004af607001e029000a40290001e029000c7
:102c300004129000848242001e0290002502980037
:102c40001e029000a40290001e0290001402900048
:102c5000848f52002f0039001e02900094027800e9
:102c60001e029000250298002a0037001e029000e4
:102c7000841290001e02900034029000050178003a
:102c8000ae0090000400780030f607001e029000ad
:102c9000b40290001e029000041290000402ea00a8
:102ca000848242001e029000350298001e029000ad
:102cb000b40290001e02900014027800848f52002b
:102cc000080031001e029000940290001e02900045
:102cd000041290000402ea00848242001e02900066
:102ce000350298003e029000e20f520009003a00bf
:102cf0001e029000640a9000e00f520005003200ae
:102d00001e029000640a90008402e9001e029000f6
:102d1000650a98001e029000640a90008402e80090
:102d20001e029000650a98001e02780004007800d8
:102d30000080fa00000006000400fa00000f78008e
:102d4000110798001e02780004129000e00f520054
:102d5000190032001e027800b40290001e027800b2
:102d600004129000848242001e027800350298000e
:102d70001e027800b40290001e0278001402900037
:102d8000848f5200040039001e02780094027800fb
:102d90001e027800350298001e027800841290000e
:102da0001e0278003402900005017800840078004b
:102db0001e009000e5f507000080fa000000060004
:102dc0000200fa00000f78006708070011003700c2
:102dd0001e027800140a9000e00f52001200320028
:102de0009e027800728242000400780074f90700a5
:102df00000027800e00f52000100320021fa0700c3
:102e00001e027800241290008402e9001e0278005d
:102e1000251298001e02780024129000e00f520044
:102e2000ebff3c0001003700000000001e027800ac
:102e30008082eb00251298005d0807004a08070011
:102e4000110037001e02780044029000e00f52008b
:102e5000120032009e02780068824200040078006e
:102e600057f9070000027800e00f5200010032001d
:102e700004fa07001e027800141290008402e90090
:102e80001e027800151298001e027800141290009d
:102e9000e00f5200ebff3c00010037000000000093
:102ea0001e0278008082eb0015129800400807008f
:102eb0000080fa00000006000400fa0010079800e5
:102ec000290807001e029000640a9000e00f5200db
:102ed00003003a0014002000040f780002003700bd
:102ee0000002eb00040f7800310807001e02780092
:102ef000040078000080fa00000006000400fa00d8
:102f0000100798001e029000640a9000e00f520023
:102f100003003a0014002000040f7800020037007c
:102f20000002eb00040f78001e0278000400780015
:102f30000080fa00000006000400fa001007980064
:102f4000090807001e029000e40a90001e0290008b
:102f5000740a9000848f520003003a00140020008d
:102f6000040f7800020037000002eb00040f780025
:102f70000f0807001e027800040078000080fa00a5
:102f8000000006000400fa00100798001e029000de
:102f9000e40a90001e029000740a9000848f520090
:102fa00003003a0014002000040f780002003700ec
:102fb0000002eb00040f78001e0278000400780085
:102fc0000080fa00000006001600fa00000f9800ca
:102fd000110f9800220f98000e0a90001407980015
:102fe0009402800024079800ff3ffc001402800038
:102ff0000450a0000460a1000470a1001402880025
:103000002e0290009402880000008800000000005a
:103010001e009000c8ff070000027800e00f520079
:10302000220032002e0a9000e00f520012003200ff
:103030001e02900068024200840078002e08900072
:103040005f0307009402800034079800ff3ffc00f4
:10305000140280000450a1000460a1000470a100cb
:10306000140288003e02900094028800000088004c
:10307000c4ff2f004c0037009402800044079800e2
:10308000ff3ffc00140280000450a1000460a10076
:103090000470a100140288004e029000940288007f
:1030a000000088000002eb003f003700940280001f
:1030b00054079800ff3ffc00140280000450a10058
:1030c0000460a1000470a100140288005e02900058
:1030d0009402880000008800940280006407980031
:1030e000ff3ffc00140280000450a0000460a10017
:1030f0000470a100140288006e02900094028800ff
:1031000000008800000000001e029000e40a900009
:103110001e029000740a9000848f52001400310047
:103120000001eb009e0890001e009000a8fe070022
:1031300014002000040f78001e029000140a900072
:10314000e00f52000c0032001e029000720242009a
:10315000040078003604070000027800e00f5200f7
:1031600005003200b4ff2f00040f78000200370082
:103170000002eb00040f78009402800074079800ae
:10318000ff3ffc00140280000450a1000460a10075
:103190000470a100140288007e029000940288004e
:1031a000000088001e027800040078000080fa0009
:1031b000000006001600fa00000f9800110f98009a
:1031c000220f98000e0a90001407980094028000c5
:1031d00024079800ff3ffc00140280000450a00068
:1031e0000460a1000470a100140288002e02900067
:1031f0009402880000008800000000001e02900079
:10320000640a9000e00f520022003a002e0a90005b
:10321000e00f5200120032001e02900072024200c3
:10322000840078002e089000e502070094028000d8
:1032300034079800ff3ffc00140280000450a100f6
:103240000460a1000470a100140288003e029000f6
:103250009402880000008800c4ff2f00640037003b
:103260009402800044079800ff3ffc001402800095
:103270000450a1000460a1000470a10014028800a1
:103280004e02900094028800000088000002eb00cb
:10329000570037009402800054079800ff3ffc005d
:1032a000140280000450a1000460a1000470a10079
:1032b000140288005e0290009402880000008800da
:1032c0009402800064079800ff3ffc001402800015
:1032d0000450a0000460a1000470a1001402880042
:1032e0006e02900094028800000088000000000038
:1032f0001e029000640a9000e00f52002e0032007f
:103300001e029000b40290001e0290000412900071
:10331000848242001e029000350298001e02900036
:10332000b40290001e02900014029000848f52009c
:10333000040039001e029000940278001e029000e2
:10334000350298001e029000640a90008402e90091
:103350001e029000650a98001e02900084129000e0
:103360001e0290003402900005017800840078006d
:103370001e08900075f4070014002000040f780068
:103380001e02900044029000e00f52000c00320038
:103390001e0290006802420004007800a4030700a7
:1033a00000027800e00f520005003200b4ff2f0049
:1033b000040f7800020037000002eb00040f7800d1
:1033c0009402800074079800ff3ffc001402800004
:1033d0000450a1000460a1000470a1001402880040
:1033e0007e02900094028800000088001e0278008f
:1033f000040078000080fa00000006000800fa00cf
:103400001007980021079800320798001e029000cc
:10341000040f78001e027800e40a90001e02780073
:10342000740a9000848f5200140031000001eb00f8
:10343000ae0090001e007800e5fd07003e029000ff
:10344000e00f52000d003a001e027800140a9000ae
:10345000e00f5200090032009e02780072824200a2
:10346000040078007203070000027800e00f5200a9
:103470000200320014002000010037003e029000dc
:10348000040078000080fa00000006000a00fa003c
:103490002007980031079800420798002e029000fc
:1034a000140798001e029000640a9000e00f52007a
:1034b000330032001e029000b40290001e02900001
:1034c00004129000848242001e029000350298008f
:1034d0001e029000b40290001e02900014029000a0
:1034e000848f5200040039001e029000940278007c
:1034f0001e029000350298001e029000640a90009f
:103500008402e9001e029000650a98001e029000e5
:10351000841290001e029000340290000501780091
:10352000840078003e00900008f407004e029000ee
:1035300014027800e00f52000e003a001e029000c4
:1035400044029000e00f52000a0032001e02900078
:10355000680242000400780035030700000278008a
:10356000e00f5200030032004e02900015002000d0
:10357000050a780014002000040f780002003700cc
:103580000002eb00040f78001e02780004007800af
:103590000080fa00000006000200fa00c0002000cf
:1035a0004103070000027800040f78001e02780033
:1035b000e00f5200060032001e0278008002eb008d
:1035c000050a78001e82e80004007800a5060700be
:1035d0001e027800040078000080fa000000060057
:1035e0001200fa00500798006107980072079800cf
:1035f000030f98005e029000140798000002eb0091
:10360000240798001cf607001e0290009402780020
:1036100035079800ee0090005e009000ea00070079
:10362000be0290006e029000850272007e02900041
:10363000848262007e029000848f52000d003a0066
:10364000be0290006e029000048f72001e02900075
:10365000940278007e0290000482ea008482620074
:103660001e029000050a78000002eb00040f98008b
:10367000110037000e0a9000e00f52000c003200db
:10368000fe02900004502000850272001e0290008d
:103690000482e8000e09900085007800040078009c
:1036a00025f707000002eb00040f78000200370046
:1036b0001e029000140f7800f5f507000002780054
:1036c000440798000e0a9000e00f520021003200db
:1036d0004e029000e00f520003003a005c29020005
:1036e0000000000000000000a9f8070000027800b8
:1036f000040f7800042020001e026200e00f520038
:1037000012003a00180607001e029000140f7800fd
:103710007e0290009e0262007e029000848f520022
:1037200007003a001e029000940278007e0290008a
:103730000482ea00848262001e029000050a78007a
:103740001b0607001400200024079800f40f200037
:103750001e0f62001e027800040078000080fa004c
:10376000000006001800fa0070079800010f98008a
:10377000120f9800230f9800340f98007e029000db
:10378000240798000002eb00140798000002eb00e9
:1037900034079800b8f507002e02900094027800d4
:1037a000450798002e0990008e0890004e0090006a
:1037b0001601070000027800540798005e0290008e
:1037c000e00f52000f0032004e029000040f78000c
:1037d0000002eb00340f98001e0a9000e00f520028
:1037e000270032002e029000940278000e0a90000a
:1037f0000482ea00848262002e029000050a7800aa
:103800001f0037003e0a9000e00f520003003a000c
:10381000ce029000050f7800190037001e0a9000b4
:10382000e00f5200040032009e02900004102000bd
:1038300005027200140798002e0a9000e00f520053
:10384000040032009e029000044020000502720035
:10385000140798008e0a90001e02900085027200e4
:103860002e0290000482e8003e0990008500780056
:1038700004007800b0f607000002eb00040f7800a7
:1038800083f5070000027800640798003e0a900064
:10389000e00f5200260032006e029000e00f52004e
:1038a00003003a005c290200000000000000000054
:1038b00037f8070000027800040f78000420200089
:1038c0001e026200e00f520017003a00a605070032
:1038d0002e029000140f78002e0990008e089000a0
:1038e0001e007800c900070000027800e00f5200b7
:1038f0000a0032001e0a9000e00f5200070032005a
:103900002e029000940278000e0a90000482ea00d1
:10391000848262002e029000050a7800a405070048
:103920000002eb0034079800f40f20001e0f620025
:103930001e027800040078000080fa0000000600f3
:103940000800fa0020079800310798002e02900026
:10395000040f7800840507001e02780094027800a6
:10396000150798001e027800940278003e0290002d
:103970000482ea00848262001e027800050a780050
:103980008b0507001e029000040078000080fa00fa
:10399000000006000800fa00300798003e02900080
:1039a000040f78000002eb00140798001e02780054
:1039b00094027800250798002e02900004007800f9
:1039c0000080fa00000006001600fa00100f9800b0
:1039d000210f98000002eb00140798001e0a9000c7
:1039e000340798000002eb00240798003e02900084
:1039f0000482e800440798004e02900064024200ee
:103a0000540798001cf507004e029000b402900085
:103a1000050f78003e029000940278002e0a900074
:103a2000850272003e029000050a78003c003700d3
:103a30001e02780094029000650798001e0278002c
:103a400094027800750798000002eb0024079800a4
:103a5000fe02900004f02f0004826200040f980020
:103a6000fe029000f40f20000482620074079800a8
:103a70008e0a90000440200004826200e00f520091
:103a800009003a003e029000940278007e02900005
:103a900004826200e00f52000c003200140020008b
:103aa00024079800090037003e0290009402780035
:103ab0007e029000848262007e029000848f520019
:103ac00002003a0014002000240798002e02900003
:103ad000e00f5200100032008e0a90000410200007
:103ae00004826200e00f5200040032009e02900047
:103af0007e02900005027200140798003e029000ba
:103b000094027800042020000502720084007800ee
:103b10001e00780065f607006e029000040f780022
:103b20005e0290009e027800848f5200c0ff3a002f
:103b30003e029000940278001e0290000482ea0087
:103b4000848262003e029000050a7800d0f40700eb
:103b50003e02900014027800040078000080fa0011
:103b6000000006000600fa00200798002e029000d0
:103b7000040f78001e82e80014079800bef40700c6
:103b8000050037001e029000340290000120200042
:103b90000400780045f607001e0290001402780029
:103ba000e00f5200f7ff3a001e0078002e020700d7
:103bb000b7f407000080fa00000006000600fa00d3
:103bc000000f780012079800230798001e0290004b
:103bd000840078001e0078007bff07000080fa0058
:103be000000006000600fa00000f78001207980097
:103bf000230798001e029000840078001e007800c1
:103c00004fff07000080fa00000006000800fa00dd
:103c10001007980021079800320798000002eb0077
:103c2000040f78003e029000e00f520008003a00b6
:103c30009e0290002e02900004826200e00f52006b
:103c40000b00320014002000040f78000800370039
:103c50009e0290002e029000848262002e0290004c
:103c6000848f520002003a0014002000040f7800f4
:103c70001e027800040078000080fa0000000600b0
:103c80000a00fa00200798003107980042079800c0
:103c9000c00120008401070000027800140798008a
:103ca0001e029000e00f52003f00320004458000e9
:103cb000e00f520003003a001e0290000445880005
:103cc000400107003e029000e10f52000200360062
:103cd00014002000340798001e0290008002eb00c0
:103ce000550a98001e029000be029000350a980006
:103cf0001e029000ce029000450a98001e0290001d
:103d0000ae029000050a78001e0290000482e800ce
:103d100004007800ec0407001e0290006c024200d0
:103d200004007800e80407001e0290009e02900044
:103d3000450298001e0290009e029000150a98000d
:103d40003e029000e20212001e02900065029800fe
:103d50001e029000b40a900014458000848f520027
:103d6000030036001e029000340a900014458800bb
:103d70001e0290000483e8001e029000340a9000a6
:103d80006a22b90084027800a486200004824200de
:103d90008600780004007800d20407001400200098
:103da000040f7800020037000082eb00040f780057
:103db0001e027800040078000080fa00000006006f
:103dc0000600fa001007980021079800254580009a
:103dd0001e029000048f4200044580000482e80027
:103de000040078000f050700044580009e0278005b
:103df00015029800244580009e027800848f5200ae
:103e000007003100044580008482e800a44480005b
:103e10008500780004007800d00407000600370011
:103e2000044580008482e800944480008500780086
:103e300004007800c90407002e029000e00f520031
:103e400005003200044580006c02420084007800c6
:103e50002e009000c10407000080fa000000060058
:103e60000600fa003500370094028000040f780045
:103e7000ff3ffc00140280000450a0000460a10079
:103e80000470a100140288001e02780094028800c9
:103e90000000880000000000e4448000340290002c
:103ea000140798001e0290006c0242000400780083
:103eb000dc0407009402800024079800ff3ffc0008
:103ec000140280000450a1000460a1000470a1004d
:103ed000140288002e0290009402880000008800de
:103ee0001e0290000482e80004007800cd04070060
:103ef0001e029000b40a900014458000848f520086
:103f0000030036001e029000340a90001445880019
:103f10001e0290000483e8001e029000340a900004
:103f20006a22b90084027800a4862000048242003c
:103f300086007800040078006a040700b44480001a
:103f4000e00f5200c8ff3a000080fa0000000600af
:103f50000800fa0022f407000002780035458000ce
:103f60000502520044458800570037002445800070
:103f70000402e80024458800444580000402e9006a
:103f80004445880024458000e00f520047003a0075
:103f900094448000040f7800a44480009444880076
:103fa0001e027800a4448800410037009444800039
:103fb0003402900034029000140798001e02900012
:103fc0009402900024458000848f52003d003e0002
:103fd0009402800024079800ff3ffc001402800038
:103fe0000450a0000460a1000470a1001402880025
:103ff0002e0290009402880000008800000000005b
:104000001e0290000482e800040078008504070086
:104010001e029000240a9000e00f520004003200bb
:104020001e0290006c024200040078007d0407002c
:104030009402800034079800ff3ffc0014028000c7
:104040000450a1000460a1000470a10014028800c3
:104050003e02900094028800000088001e0290003a
:10406000b40a900014458000848f5200030036008b
:104070001e029000340a9000144588001e02900031
:104080000483e8001e029000340a90006a22b900fe
:1040900084027800a4862000048242008600780012
:1040a000040078000f040700010037000000000042
:1040b0009444800014027800e00f5200bbff3a00e5
:1040c000010037000000000044458000e00f52006e
:1040d000a6ff3a0024458000344588000080fa009d
:1040e000000006000200fa005dff070098ff0700cd
:1040f0000600370014458000e00f52002e00320009
:10410000144580000402e90014458800144580002d
:104110006a22b90084027800a4862000048242004a
:1041200014027800e00f5200f2ff320014458000c4
:104130006a22b90084027800a4862000048f42001d
:104140001e02780014029000940290001e02780073
:10415000150298001e027800940290001e03780059
:1041600064024300848f520005003a001e0278006a
:1041700014029000940290001e027800150298002c
:104180001e0278001402900034029000044588005a
:10419000044580001403780004458000c40a9000a0
:1041a00004458000850078000400780006000100c6
:1041b0000000000001003700000000000080fa004d
:1041c000000006000200fa000002eb00040f780075
:1041d000080037001e0278006a22b90084027800c5
:1041e000a486200004824200040078009d0307009a
:1041f0001e0fe8001e027800e10f5200f5ff3600a6
:10420000e0872000970307008088200095030700bf
:104210006089200093030700e4872000944488000d
:1042200084882000a44488000080fa000000060072
:104230000600fa00200798002e0290003402900039
:1042400034029000140798001e0290006c02420095
:1042500004007800f30307001e0290006c02420085
:1042600084007800608920009e0307001e029000f1
:10427000b40a900004458000340a9000848f5200f4
:104280000300390014002000040f780002003700fa
:104290000002eb00040f78001e0278000400780092
:1042a0000080fa00000006000a00fa0040079800ab
:1042b0000002eb0024079800eff20700a5458000fc
:1042c0004e02900004826200e00f520061003a004a
:1042d0004e029000e00f52000e00320034178400ae
:1042e000ce02900004824200440798004e029000e3
:1042f0006102620004427800e04f52000500320083
:10430000ce029000e4ff2f00048262000482e800e5
:10431000440798004e029000e00f52004d0032001a
:1043200084458000ce029000848f520049003e00f8
:10433000a48a20001407980054458000040f7800d8
:10434000040037009e027800150798001e027800ce
:10435000140f78001e027800940290004e02900024
:10436000848f5200040031001e027800140278008d
:10437000e00f5200f3ff3a00744580009e0278007f
:10438000848f5200330032001e02900094027800a5
:104390003417840004824200240798001e0278002b
:1043a000940278001e029000050a78001e02780030
:1043b000940290004e0290008482520034178400d0
:1043c00004024200848f52000e0036004e0290001c
:1043d0001e024200340798001e02780094029000ea
:1043e0004e029000848252003e0290001502980016
:1043f0001e027800ce029000150298003e00900048
:104400004b000700854580001e02780014029000d2
:1044100004825200844588008545800094458000d0
:10442000848f52000200310084458000944588004a
:104430001e02780094029000a4458000850272005c
:104440001e027800150298001e0278008002eb0020
:10445000050a78008ef207002e0290000400780012
:104460000080fa00000006000600fa00200798000d
:104470002e029000040f78002e029000e00f5200f0
:104480001f003200341784000402ea001e0f4200ad
:104490001e027800140798001e02900094029000fb
:1044a000a445800004826200e00f52001400320034
:1044b0001e02900014027800e00f520010003a0033
:1044c0001e02900094029000a44580000482ea003d
:1044d000848262001e0290001502980066f20700b6
:1044e0001e029000940290008445800004824200e5
:1044f000844588001e0090000d00070064f207004c
:104500000080fa00000006000000fa0084458000e8
:10451000040078000080fa00000006000000fa00a5
:1045200094458000040078000080fa000000060036
:104530000600fa0020079800a48a2000040f7800e3
:10454000020037001e027800140f78001e02780067
:10455000940278002e029000848f5200f9ff3900f7
:104560001e027800140798001e02780014029000c2
:104570009e029000848242002e029000848f52009e
:1045800009003a001e027800940290002e0290006a
:1045900014029000848242001e02780015029800e6
:1045a0009e027800250798002e02900014079800bc
:1045b0002e029000140290009e029000848242001d
:1045c0001e02780014027800848f520017003a000f
:1045d0001e0278009402780074458000848f520097
:1045e0000e0032002e029000940290001e0278000d
:1045f0001402780014029000848242002e0290007f
:10460000150298001e0278001402780094027800c7
:104610002e029000050a78000800370075458000da
:104620002e029000050a7800040037001e02780070
:10463000940278002e029000050a78002e02900065
:104640009e027800848f5200030032001e02780020
:10465000ae029000050a78000080fa000000060013
:104660001200fa00000f98000002eb0054079800b7
:104670000002eb00140798000002eb0024079800ea
:104680002e0290004222dd008e0a90000482420039
:1046900044079800530037004e02900094029000a7
:1046a000050f78004e02900014027800340798003d
:1046b0003e0290006102620004427800e04f520026
:1046c0000d0032003e0290000402e800340798001a
:1046d000be029000e4ff2f000482620034079800bd
:1046e0004e02900014027800840278003e0290008e
:1046f000048252001e0f42003e02900064079800a0
:104700002e029000e00f520004003a006e0290006a
:10471000544588000002eb00644588007545800020
:10472000750798006e0290001e0242003407980040
:1047300034178400be0290000482520034079800af
:10474000be029000e4ff2f0004826200340798004c
:104750003e02900074458800744580008002eb00a2
:1047600015029800744580008002eb00050a78006d
:104770006e029000540798005e029000be02900006
:10478000848252005e0290001502980075458000f8
:104790005e029000050a78007e029000e00f520051
:1047a000030032007e029000de029000050a7800cd
:1047b0005e029000140290009e029000048242006b
:1047c000140798002e0290000402e80024079800c5
:1047d0002e0290004222dd008e0a900004824200e8
:1047e000440798004e02900014029000e00f52001f
:1047f000a9ff3a001e029000944588009e02900096
:104800008545880004002800a44588000080fa003f
:10481000000006000000fa008540a9009540a900ac
:1048200041e2a90041a2a900041280000480a10075
:104830000490a10004a0a1000412880040e2a90095
:1048400040c2a90040a2a900041280000420a100d7
:104850000430a1000440a100041288004022a900f5
:104860004002a9004382a8004362a90014198000f5
:104870000420a1000430a1000440a1000450a100c4
:10488000141988004302a90042e2a90042c2a9000b
:1048900042a2a800141280000420a1000430a0004d
:1048a0000440a00014128800141280000400a0002c
:1048b0000410a0001412880045e2a90045c2a90016
:1048c00045a2a8004422a9004402a900453a80005c
:1048d00004fc2f00848262000402200005027200a2
:1048e000443a88008540a90041e2a800c002a9001e
:1048f0008003eb000003eb008002eb0014002000bb
:104900008001eb0002402000412d28004049220098
:104910002fef070022f107000002eb0004007800ef
:104920000080fa00000006000400fa00100798005a
:104930000002eb00040f78000800370000000000c0
:104940000412800062026200e00f5200fcff3a0095
:104950000002eb00441288001e0fe8003402200021
:104960009e027800848f5200f4ff340000000000a3
:104970000412800062026200e00f5200fcff3a0065
:104980008408200044128800000000000412800007
:1049900062026200e00f5200fcff3a00840820002f
:1049a00044128800000000000412800062026200cd
:1049b000e00f5200fcff3a008408200044128800f7
:1049c000000000000412800062026200e00f52004a
:1049d000fcff3a0084082000441288000000000018
:1049e0000412800062026200e00f5200fcff3a00f5
:1049f0008408200044128800000000000412800097
:104a000062026200e00f5200fcff3a0084082000be
:104a1000441288000000000004128000620262005c
:104a2000e00f5200fcff3a00840820004412880086
:104a3000000000000412800062026200e00f5200d9
:104a4000fcff3a00840820004412880000000000a7
:104a50000412800062026200e00f5200fcff3a0084
:104a6000c40c2000441288000000000004128000e2
:104a700062026200e00f5200fcff3a00c40c20000a
:104a800044128800000000000412800062026200ec
:104a9000e00f5200fcff3a00c40c200044128800d2
:104aa000000000000412800062026200e00f520069
:104ab000fcff3a00c40c200044128800400620008d
:104ac00079ef07000002eb00040f780008003700c0
:104ad000000000000412800062026200e00f520039
:104ae000fcff3a000002eb00441288001e0fe800b1
:104af000340220009e027800848f5200f4ff3400bc
:104b0000000000000412800062026200e00f520008
:104b1000fcff3a00840820004412880000000000d6
:104b20000412800062026200e00f5200fcff3a00b3
:104b30008408200044128800000000000412800055
:104b400062026200e00f5200fcff3a00840820007d
:104b5000441288000000000004128000620262001b
:104b6000e00f5200fcff3a00840820004412880045
:104b7000000000000412800062026200e00f520098
:104b8000fcff3a00c40c2000441288000000000022
:104b90000412800062026200e00f5200fcff3a0043
:104ba000c40c2000441288000000000004128000a1
:104bb00062026200e00f5200fcff3a00c40c2000c9
:104bc00044128800000000000412800062026200ab
:104bd000e00f5200fcff3a00c40c20004412880091
:104be000000000000412800062026200e00f520028
:104bf000fcff3a00840820004412880000000000f6
:104c00000412800062026200e00f5200fcff3a00d2
:104c10008408200044128800000000000412800074
:104c200062026200e00f5200fcff3a00840820009c
:104c3000441288000000000004128000620262003a
:104c4000e00f5200fcff3a00840820004412880064
:104c50004006200014ef070035ff37000c00fa0073
:104c6000500798000002eb00040f78002500370081
:104c70000002eb00140798000c0037000508200024
:104c80001e02900084aade002e02900004826200c0
:104c9000e00f520002003200843e200044128800df
:104ca0001e0290000402e800140798001e02900003
:104cb000e70f5200f1ff34000002eb0014079800e8
:104cc000030037001e0290000402e8001407980059
:104cd0001e029000e70f5200faff34000002eb00c2
:104ce00014079800030037001e0290000402e80039
:104cf000140798001e029000e70f5200faff3400dc
:104d00001e0fe8001e027800e00f5200d8ff3400aa
:104d1000d4ff37000000fa000002eb000416880000
:104d20000002eb00141688000080fa000000060064
:104d30000000fa000080fa00000006000600fa00f9
:104d4000100798002107980094028000040f780053
:104d5000ff3ffc00140280000450a0000460a1008a
:104d60000470a100140288001e02780094028800da
:104d70000000880000000000ffff37002a00fa0052
:104d800020179800311798004217980064024700d6
:104d9000452b28000f000900351a78003e129000bc
:104da000140798002e1290009e029000050a7800c9
:104db0002e1290000482e800241798002e12900012
:104dc0008002eb00050a78002e1290000482e800b1
:104dd000241798002e1290008002eb00050a78003c
:104de0002e1290000482e80024179800ce12900042
:104df0002e129000050a78002e1290000482e8001e
:104e0000241798000002eb00040f78000a00370016
:104e10001e0278000402420004024700a40290002f
:104e20002e129000050a78002e1290000482e800ed
:104e3000241798001e0fe8001e027800ef0f5200a2
:104e4000f3ff3600250280002e129000050a78003c
:104e50002e1290000482e8002417980044032000da
:104e6000144278008482fb002e129000050a78001c
:104e70002e1290000482e800241798002e12900051
:104e80008002eb00050a78002e1290000482e800f0
:104e9000241798002e129000040078000080fa0079
:104ea000000006000000fa00190007000040800022
:104eb000900778004f007800c04588003400f90062
:104ec0004400f9003200f9003600f9004f0778007d
:104ed0004f06be004f05be004f04be004f03be008c
:104ee0004f02be004f01be004f00be004200f9005d
:104ef0000000060014002000040078000080fa0082
:104f0000000006000000fa000080fa000000060021
:104f10000400fa00f47c200005002000048fbe008d
:104f20000002eb00240888000002eb00040888005f
:104f30001e027800140888002405800004c0a00028
:104f400004d0a10004e0a100240588008460a90029
:104f50009460a8000481a80004a1a90005e1a800ac
:104f60000080fa00000006000200fa0094028000af
:104f7000040f7800ff3ffc00140280000450a000e2
:104f80000460a1000470a100140288001e027800d1
:104f9000940288000000880000000000c4458000e2
:104fa0000402e800c44588000080fa000000060002
:104fb0000200fa00c44580000402e900c4458800ec
:104fc000c4458000e00f52000b003a0094028000bc
:104fd000040f7800ff3ffc00140280000450a10081
:104fe0000460a1000470a100140288001e02780071
:104ff00094028800000088000080fa00000006008b
:105000003600f800809fbe00829fbe00849fbe00d5
:10501000869fbe003400f80000002000a001880038
:105020000000fa008460a90004f007000002780084
:10503000e00f5200030032005c2902000000000073
:10504000000000000080fa003400f9004f03be00a9
:105050004f02be004f01be004f00be003600f900f7
:10506000004006000200fa00000f78009e0278005f
:1050700064824200840278001e02780015029800c3
:105080001e0278008082eb00250298009e027800c4
:1050900064824200840278001e0278003502980083
:1050a0009e02780064824200840278001e0278002a
:1050b000450298001e0278008002eb00050a780085
:1050c0000080fa00000006000200fa00000f7800dd
:1050d0001e0278008002eb00450298000080fa0072
:1050e000000006000600fa0010079800210798004b
:1050f0001e02900094029000050f78002e0290008e
:105100009e027800150298001e027800a40290000a
:105110002e029000250298001e02780024029000c2
:10512000ae029000150298001e027800ae029000b8
:10513000250298002e0290009e02900045029800e1
:105140001e029000140278008402e8001e02900003
:10515000050a78000080fa00000006000800fa0046
:1051600020079800310798003e02900094027800d2
:10517000150798001e029000e10f420004003a005b
:105180002e029000c4029000050f78000d00370039
:105190002e02900064024200040f780003003700e2
:1051a0001e02780094029000050f78001e0278001d
:1051b00014029000940278001e029000848f520026
:1051c000f7ff36001e027800940290003e02900025
:1051d000150298003e02900014029000be0290005a
:1051e000250298003e0290009e0278002502980059
:1051f0001e027800be029000150298003e02900048
:10520000ae029000450298002e0290001402780031
:105210008402e8002e029000050a78000080fa005f
:10522000000006000400fa00100798001e0290001b
:1052300044029000040f78001e02900014029000b7
:105240009e029000a5029000250298001e02900088
:10525000240290009e029000950290001502980092
:105260001e027800940290001e029000848f52006b
:1052700004003a001e029000a40290001e02780072
:10528000150298001e0290008002eb004502980073
:105290001e027800140278008402e9001e027800e1
:1052a000050a78001e0278001402780004007800d5
:1052b0000080fa00000006004200f800801f78001d
:1052c0000002200010028800811f7800829fbe002b
:1052d000849fbe00869fbe00889fbe008a9fbe003e
:1052e0008c9fbe008e1f78003600f8003200f80058
:1052f0004400f8003400f800c0458000801f7800aa
:10530000004080000f08780004090200000000003f
:1053100000408000900778004f007800c04588006a
:105320003400f9004400f9003200f9003600f900b9
:105330004f0778004f06be004f05be004f04be0069
:105340004f03be004f02be004f01be004f00be0023
:085350004200f9000000060014
:020000040000fa
:10535800b60800000200000000000000000800007d
:105368006a00000000000000b80800000200000009
:1053780002000000ef000000aa0800000c00000076
:10538800000000006a080000400000000000000063
:045398000000000011
:020000040000fa
:020000040002f8
:04aff800bd7900001f
:020000040000fa
:020000040002f8
:04affc007f3f000093
:00000001FF
