:020000040000fa
:080000000002040000000000f2
:020000040000fa
:10000800a2020000a2020000a2020000a202000058
:10001800a2020000a2020000a2020000a202000048
:10002800a2020000a2020000a2020000f8310000b3
:10003800a2020000a2020000a2020000a202000028
:10004800a2020000a2020000a2020000a202000018
:10005800a2020000a2020000a2020000a202000008
:10006800a2020000a2020000a2020000a2020000f8
:10007800a2020000a2020000a2020000a2020000e8
:10008800a2020000a2020000a2020000a2020000d8
:10009800a2020000a2020000a2020000a2020000c8
:1000a800a2020000a2020000a2020000a2020000b8
:1000b800a2020000a2020000a2020000a2020000a8
:1000c800a2020000a2020000a2020000a202000098
:1000d800a2020000a2020000a2020000a202000088
:1000e800a2020000a2020000a2020000a202000078
:1000f800a2020000a2020000a2020000a202000068
:10010800a2020000a2020000a2020000a202000057
:10011800a2020000a2020000a2020000a202000047
:10012800a2020000a2020000a2020000a202000037
:10013800a2020000a2020000a2020000a202000027
:10014800a2020000a2020000a2020000a202000017
:10015800a2020000a2020000a2020000a202000007
:10016800a2020000a2020000a2020000a2020000f7
:10017800a2020000a2020000a2020000a2020000e7
:10018800a2020000a2020000a2020000a2020000d7
:10019800a2020000a2020000a2020000a2020000c7
:1001a800a2020000a2020000a2020000a2020000b7
:1001b800a2020000a2020000a2020000a2020000a7
:1001c800a2020000a2020000a2020000a202000097
:1001d800a2020000a2020000a2020000a202000087
:1001e800a2020000a2020000a2020000a202000077
:0801f800a2020000a2020000b7
:020000040000fa
:10020800a2020000a2020000a2020000a202000056
:10021800a2020000a2020000a2020000a202000046
:10022800a2020000a2020000a2020000f8310000b1
:10023800a2020000a2020000a2020000a202000026
:10024800a2020000a2020000a2020000a202000016
:10025800a2020000a2020000a2020000a202000006
:10026800a2020000a2020000a2020000a2020000f6
:10027800a2020000a2020000a2020000a2020000e6
:10028800a2020000a2020000a2020000a2020000d6
:10029800a2020000a2020000a2020000a2020000c6
:1002a800a2020000a2020000a2020000a2020000b6
:1002b800a2020000a2020000a2020000a2020000a6
:1002c800a2020000a2020000a2020000a202000096
:1002d800a2020000a2020000a2020000a202000086
:1002e800a2020000a2020000a2020000a202000076
:1002f800a2020000a2020000a2020000a202000066
:10030800a2020000a2020000a2020000a202000055
:10031800a2020000a2020000a2020000a202000045
:10032800a2020000a2020000a2020000a202000035
:10033800a2020000a2020000a2020000a202000025
:10034800a2020000a2020000a2020000a202000015
:10035800a2020000a2020000a2020000a202000005
:10036800a2020000a2020000a2020000a2020000f5
:10037800a2020000a2020000a2020000a2020000e5
:10038800a2020000a2020000a2020000a2020000d5
:10039800a2020000a2020000a2020000a2020000c5
:1003a800a2020000a2020000a2020000a2020000b5
:1003b800a2020000a2020000a2020000a2020000a5
:1003c800a2020000a2020000a2020000a202000095
:1003d800a2020000a2020000a2020000a202000085
:1003e800a2020000a2020000a2020000a202000075
:0803f800a2020000a2020000b5
:020000040000fa
:10040000afda21000e7f22000e01880000000000fc
:10041000000020000000e000020032000001200087
:10042000200288000c000700403523000100200056
:1004300011000700000020000000e0000200320070
:100440000000020000000000a626020000000000dc
:100450000040da000000fe004440a900e007200050
:100460000000e0000300320000002000a00188002e
:100470004440a80000000600910188008000780038
:100480000000eb0015003700e280400032a0b4000d
:100490009101ba00e280400032a0b4009102ba009b
:1004a000e280400032a0b4000002eb00472bde00e7
:1004b000f507b200602ce10004003a000059eb009f
:1004c0008301e900fdff3e00040037006128e100e0
:1004d000010032000082eb00040007001101ba00a5
:1004e0000200e000e8ff3a00000006003159ba00bf
:1004f0008301e9000c0032002159ba008301e900b0
:10050000080032000400e00003003a00e2804000ee
:1005100032a0b400f5ff370011d9ba008301e90019
:10052000faff3a008100e800e180400032a0b40008
:1005300000000600d6280400000000002617040072
:10054000000000000040da000000fe000a00fa008f
:10055000e20f500022003e0044ed8000e10f520007
:100560000600320087232000462320002423200099
:1005700005232000e08f530004003a00872220006a
:10058000462220002422200005222000000028000e
:100590001500600003003a00800b78000700280077
:1005a000958a7300054020009482620001003a00a1
:1005b00014a0a0008202780006003700940378009f
:1005c0000710b200fdff3200b103fb00070b7800fb
:1005d0008502e900e08f5200f8ff3a00080037007a
:1005e00034002000c0bf9f00e2bf9f00b4bf9f0047
:1005f000d1bf9f006a8057002c0407006fb9970095
:10060000020078000080fa00000006000002780076
:1006100002003700315a78000201e900e00f510072
:10062000fcff3a0000000600889fbe000004be00e8
:10063000050037000000fb00890078001900070062
:10064000e10f40000400320038407800e04f5000d5
:10065000f8ff3a000000eb004f04be000000060067
:1006600081d82100881f7800efff070081d8210082
:1006700000047800a00020000a00070008007800ad
:100680004f0478000000060080d821000000fa0026
:1006900068815700cfb89700460007000080fa0035
:1006a00000000600889fbe00010478008084eb00f3
:1006b00038029000e20262003b003200040378003e
:1006c000980290000620b20002003a00e08f52002b
:1006d00035003a000490a0008004780034049800ab
:1006e000f90fb200e08f520002003a00a802900019
:1006f000050c7800ea8f540005003a000408b200a7
:1007000003003a0088007800d0002000e5ff0700d1
:1007100018029000d8029000850f52000b003200a2
:100720000402e80015c0b300140498001802780011
:10073000094a7800040ce80024da2100054a780010
:10074000ea8f540018003a0005003700094078008d
:1007500088007800930307008004780012003700b7
:10076000380290000410b2000f003200180190000f
:10077000a80090004800900074ff07001802900045
:10078000840f500004003200380290000403b300cc
:10079000340498008084eb000002eb0014049800fd
:1007a00028029000040c7800090078004f04be0075
:1007b00000000600ef03b000889fbe008a9fbe00c5
:1007c0008c9fbe00800678008e1f78000007eb002b
:1007d000d1af9f00a2b79f0066033700dfa8970044
:1007e00054c2b3008100e800d1af9f00844f500095
:1007f00006003a00010278000006eb0001c3b300d6
:1008000000c2b300b7c2b3000e0037003d02900033
:100810000404b200040032001d027800004a78008f
:10082000840ee800050037000000fb008d00780012
:100830009cff0700e10f40004e0332000e07e80066
:100840004c03370084027800d2c2b30034437800ee
:10085000824f53000900320005003c00804f5300d6
:1008600008003200874f53000c003a0007003700a1
:10087000814f530009003a00060037000c30a000f9
:10088000f0ff37000c00a000eeff37000c10a000b6
:10089000ecff37000c20a000eaff37006202660080
:1008a000010032000c00a100680266000100320065
:1008b0000c20a1000602fb000403b100e90f520066
:1008c0000c003e00050378000002eb00b603fb00bd
:1008d0006a22b9000703b10086027800048243004f
:1008e0009603fb000703b100e98f5300f7ff3600c2
:1008f000080037000002eb00a7c2b300874f530087
:1009000004003a00afb197008502e8004302780086
:10091000a3b79f000003eb0096b79f00e6c2b300a9
:10092000954f13000c003a000ce0a0006443530004
:10093000d54f130003003200050378000000eb00e0
:1009400009003700afb397008502e800470478003c
:10095000a7b79f0098b79f000503780009003700ec
:100960006a00b9000080430086027800b603fb00ed
:100970000703b100e98f5300f9ff360090b79f00dd
:10098000f5ff3700b6427800cac6b300d6af9f0065
:100990008acf5200250032000f003c0036c6b3005b
:1009a00086cf52009e00320004003c00e0cf52008f
:1009b000f50232006b4353000f00370046c6b30008
:1009c00086cf5200170032006543430086cf5200a5
:1009d000b2003a001300370036c7b30086cf52008a
:1009e0001f00320007003c006443530086cf5200d2
:1009f000140032000643e80086cf5200a7003a00f8
:100a00001300370056c7b30086cf5200aa00320049
:100a10006343430086cf5200a0003a00e5779f0071
:100a20000d003700e5779f00a5003700f003660052
:100a30000501200001003200050028000c8672002c
:100a4000d0ff3700e5779f000c60a0009c003700c6
:100a5000e5779f000c50a0000c70a00098003700b4
:100a6000afb59700e5779f00cb027800abb79f004a
:100a7000b5b79f00e08f520002003a0041d7210035
:100a8000b1b79f003fb397008002eb000100370031
:100a90008502e800e6c37a00e0cf5300fcff3a008d
:100aa000c5b79f001fb19700e00f5100050032004d
:100ab000cfb19700830f510002003100820278000d
:100ac000c5b79f00cfb297000004eb00850f52001e
:100ad00001003600050452006806660009c2b30032
:100ae0000f003200290037003d0290000404b200dc
:100af000040032001d027800094a7800840ee800e4
:100b0000050037008d00780000022000e5fe070098
:100b1000e10f4000010032000e07e8000804e90080
:100b2000e00f5400f0ff3a000084eb00170037009c
:100b3000bd0290000504b20009003200880278006e
:100b40009d03780035437800864b780005047800d3
:100b5000870ee800e04f53000a003a00110037000a
:100b6000880278008d0078003500fb0084bf9f006c
:100b700005047800cbfe07000fba9700e10f400094
:100b8000080032000e07e800060037000c0278006b
:100b9000080678003fb49700cfb497005fb5970080
:100ba000efb59700890278008504e900e08f5200d4
:100bb000dfff3a00b8b79f00c9b79f00dab79f00c0
:100bc000ebb79f000c04780009c2b300040678005c
:100bd000e00f56000f003a00660237003d02900019
:100be0000404b200040032001d027800094a7800b3
:100bf000840ee800050037008d0078000002200018
:100c0000a8fe0700e10f4000010032000e07e800d7
:100c10000804e900e00f5400f0ff3a0055023700e5
:100c2000afb097007003660041047800a1b79f0041
:100c3000cfc4de00090578008a0578000800be00f0
:100c40000a01be004800de00c80add000080720014
:100c5000e0779f00e00f530009003200e04f5000a2
:100c600007003200e14f400005003200260020005e
:100c7000f0779f00887f9f00c6b79f000300370072
:100c800017002000c7b79f00f8779f0078fb2f0060
:100c900008844700b8b79f0082ff370069fb2f0028
:100ca0001a00200089844700e5779f00b9b79f00ac
:100cb000cab79f007bff3700e5779f000c0cb3009d
:100cc0008c027800050cb2003b003a00e00f5600a1
:100cd00005003d00afb297004501be004500be00d3
:100ce000a5b79f000f003700f00266001200320027
:100cf0002fb497004803be00f69f9f0087a79f0070
:100d0000a8b79f0098029000cfaade0095a79f0089
:100d1000a5a79f007f9897008fa097001fa197001d
:100d2000afa19700b0b79f00c1b79f00d2b79f0097
:100d3000e3b79f000b003700afb09700c102780007
:100d400005047800cfc4de00090578008a05780024
:100d5000a1b79f00b8b79f00c9b79f00dab79f003f
:100d6000ebb79f003fb09700cfb097005fb19700ff
:100d7000efb19700e00f5000e08f5800e00f5900ee
:100d8000e08f590032003d006000b8006011b800eb
:100d90003fb49700cfb497005fb59700efb59700c9
:100da0003c00b30008045000898458000a0559002b
:100db0008b85590022003700e00f560005003d00ea
:100dc000afb297004501be004500be00a5b79f0029
:100dd0000f003700f0026600120032002fb49700b7
:100de0008004eb004803be000005eb0096af9f00b7
:100df000a7af9f00b9af9f00caaf9f001fa8970081
:100e0000afa897003fa99700cfa99700a8b79f0068
:100e1000b0b79f00c1b79f00d2b79f00e3b79f0054
:100e20000b003700afb09700c1027800a1b79f0058
:100e300005047800090020000a0020000b002000b3
:100e4000b8b79f00c9b79f00dab79f00ebb79f0004
:100e50009fb49700e08f54000d003a001a00200064
:100e60003fb09700cfb097005fb19700efb1970008
:100e70009ab79f00e00f5000e08f5800e00f590034
:100e8000e08f5900020032008000eb0091b79f0014
:100e90000c01780005042000020cb20082b79f000c
:100ea000850f51003400320003003c00e00f510078
:100eb0000800320048003700050820008fb1970075
:100ec000858f510014003200050c2000858f5100e1
:100ed00041003a00a6cb210015c0b3003600be0089
:100ee0003601be003fb49700cfb497005fb59700be
:100ef000efb597000040e10001c8e10002d0e10039
:100f000003d8e100330039008542e800f4cf5200f5
:100f1000f2ff3a002f00370015c0b3000001200097
:100f2000010020006011b8003fb49700cfb49700d3
:100f30005fb59700efb597000040e10001c8e10000
:100f400002d0e10003d8e10022003900490020006e
:100f50000000d0008180d2000281d2008381d200c3
:100f60008904e900faff3a008542e800f0cf520018
:100f7000edff3a001700370015c0b30080002000d5
:100f8000010020006011b8003fb49700cfb4970073
:100f90005fb59700efb597000040e10001c8e100a0
:100fa00002d0e10003d8e1000a0039003900200036
:100fb0000000d0008180d2000281d2008381d20063
:100fc0008904e900faff3a008542e800f5cf5200b3
:100fd000edff3a00e5779f006f7597009fb597008a
:100fe0008a02fb008b8f520002003d00eb779f00ce
:100ff000040037001fb09700850f500001003d002e
:1010000095b79f00e00f520003003200e302660034
:10101000010032000402e900050024008502660098
:10102000060032009fb09700810f5200020034008a
:1010300001025200010037000002eb006f719700bf
:101040008001eb008202fb00f3af9f00850f52008e
:101050000200340085025200f5af9f006402660072
:101060003b003200e202660061026600e08f52003f
:1010700011003200bd0290000504b20008003200e9
:101080009d027800b6c2b300e00f520001003200aa
:1010900006c3e800864a7800850ee8001500370090
:1010a000b0022000e00f5200010032000080e80092
:1010b0008d0078000c003700e00f52000e00320067
:1010c0003d0290000404b200050032001d027800c9
:1010d00005c2b300054a7800840ee8000500370019
:1010e0008d007800000220006efd0700e10f400037
:1010f000010032000e07e8007faa9700e00f5200bf
:101100004f00320008c3b300840478003d02900011
:101110000404b200040032001d027800084a78007e
:10112000840ee800050037008d00780000032000e1
:101130005cfd0700e10f4000010032000e07e800ef
:101140008904e900f1ff3a00f9af9f003c00370045
:10115000ffaa9700e08f5200140032006802660078
:1011600012003a0008c2b300850478003d029000e6
:101170000404b200040032001d027800084a78001e
:10118000840ee800050037008d0078000002200082
:1011900044fd0700e10f4000010032000e07e800a7
:1011a0008904e900f1ff3a00f9af9f00e20266000e
:1011b00061026600e08f520011003200bd02900013
:1011c0000504b200080032009d027800b6c2b300e8
:1011d000e00f52000100320006c3e800864a7800a2
:1011e000850ee80015003700b0022000e00f520025
:1011f000010032000080e8008d0078000c0037000c
:10120000e00f52000e0032003d0290000404b200d4
:10121000050032001d02780005c2b300054a7800bf
:10122000840ee800050037008d00780000022000e1
:101230001cfd0700e10f4000010032000e07e8002e
:101240001fb3970025cb21000602e900f0046600d9
:10125000c223dd000c057800c7a79f000a02b20078
:101260006323b900e99f9f00060478004322dd0054
:10127000b8a79f0085024200da9f9f00e5af9f005c
:10128000a30037009fb597000fb097008b05e900ca
:10129000010420009bb79f00810f500073003200b3
:1012a00003003c00e00f5000080032007e003700d1
:1012b000040820000fb19700840f5100560032003f
:1012c000040c2000840f510077003a00e00f560014
:1012d0001f003d00efa997003304be002305be00a8
:1012e0003fb09700cfb097005fb19700efb1970084
:1012f0000802be000a03be00af0107000802be00dc
:101300000a03be00e0779f000000fb00cf80de00f4
:101310000101780082017800100207003fb29700b7
:10132000cfb297005fb39700efb39700000252006f
:1013300081825a0002035b0083835b00b4b79f0085
:10134000c5b79f00d6b79f00e7b79f002e003700b4
:10135000ef9a9700e08f5200220032006fab9700a7
:101360003fb29700cfb297003604be002605be00fc
:101370000400be000801be0084bf9f00f5b79f00b7
:101380000005eb00cb0007000801be00e0779f00de
:101390000000fb00cf80de00d60007000fba9700e8
:1013a000ffb297008aaf9f000004520081845a0068
:1013b000d8a79f00e9a79f008004eb00f9a79f0032
:1013c0005fa09700efa097007fa197008fa99700db
:1013d000b0b79f00c1b79f00d2b79f00e3b79f008f
:1013e00009003700efa897003fb19700110278007d
:1013f000110009000481d800a40020001100090098
:101400000480d800e1779f00ef7197000343b0009c
:10141000e3779f002400370034d62100df9a97003d
:10142000e08f52000100320024d521003fb0970028
:10143000cfb097005fb19700efb197004fa397002f
:101440000603e900050033008301d1000281d300c7
:101450008180d3000080d300f9ff37006f00600067
:1014600064407800e0779f000f0037003fb297009c
:10147000cfb297005fb39700efb397003fa49700f8
:101480000804e900050033008703d1000683d30078
:101490008582d3000482d300f9ff370067426200df
:1014a0000443b000e4779f003d0290000404b200c2
:1014b000070032009d0278006f729700844a78001e
:1014c000850ee800e04f520007003a0007003700a1
:1014d000ef7497008d0078000900fb0071fc070095
:1014e000e10f4000010032000e07e8004fa5970011
:1014f000bfa597006fa8970064055500e3855500c8
:1015000068005000caa79f00bba79f00e0af9f00e4
:101510009fb09700e08f50005aff3a0068066600bf
:10152000140032007fa99700e00f51001100340031
:1015300008c2b300820478003d0290000404b200a7
:10154000040032001d027800084a7800840ee8008a
:10155000050037008d0078000002200051fc0700d4
:10156000e10f4000010032000e07e8008904e900a5
:10157000f1ff3a00dfa9970013407800e0779f0061
:10158000e04f500095fc3a000e0078004f077800bd
:101590004f06be004f05be004f04be00ef03b10072
:1015a000000006000200fa00889fbe0001047800d7
:1015b000a0ff9f0038029000840278000504b2006a
:1015c000020032000000fb0035003700e20262003a
:1015d00005003a000403b300150498003404980091
:1015e0000080eb002e003700d8049000e08f5400fc
:1015f00006003a0012002000e680570048009000e4
:10160000d2fb07001904980023003700a8029000bd
:10161000e08f520008003a0065da21000430a00093
:1016200025049800050c780034049800250020005b
:10163000550498001504980018019000a800900027
:1016400048009000c1fb0700280290008082eb0058
:1016500015049800affa9700054a7800040ce800da
:101660002ffa9700ea4f52000b003a003802900020
:101670000410b2000800320018019000a800900089
:1016800048009000b1fb07000002eb00a8029000a8
:1016900014049800050c78002ffa97000400fb0052
:1016a0004f04be000080fa000000060000c0da000f
:1016b000000006006022b800060220000000d000f2
:1016c0008180d2000482d2008582d2000000a00076
:1016d0000202520083825a000300310002024200db
:1016e00083824a000000a1000603e900f3ff3a00ec
:1016f00000000600020ab900001bb9000200b80091
:10170000810042008100430000000600889fbe0067
:101710008a9fbe003004be002005be0004044400c1
:1017200085844c0006054d0087854d000898be0055
:101730000a90be000440e10005c8e10006d0e100c7
:1017400007d8e10002003100680040001008e800fe
:101750004f05be004f04be00000006001000fa0056
:10176000889fbe008a9fbe00110020000605be00b3
:101770000404be003002be002003be00c4b79f00b8
:10178000d5b79f00e6b79f00f7b79f000802520049
:1017900089825a000a035b008b835b0084bf9f0031
:1017a00095bf9f00a6bf9f00b7bf9f000498be00d3
:1017b0000698be004fb29700dfb297006fb3970054
:1017c000ffb397000820e10009a8e1000ab0e1009a
:1017d0000bb8e100010039008000eb004f05be00ae
:1017e000108810004f04be000080fa0000000600c0
:1017f0001400fa00889fbe008a9fbe008c9fbe0026
:101800000006eb003e000700ccb79f00bcb79f006e
:10181000acb79f009cb79f008cb79f000605be0029
:101820000404be000d0420004fb39700bfb2970020
:10183000860343002fb29700e00f530004003d00e1
:101840003d0007000f004000b0ff07000300370015
:10185000390007000f004000c0ff0700cfb297001b
:1018600095bf9f00e08f5200090035002b00070054
:1018700014002000050020006033b8000000720052
:101880008180720002017300838173001c000700d5
:101890000c06e8008d0f5600e3ff3a001fba9700d0
:1018a000e00f520005003d000802be000a03be0022
:1018b00000fe2f000f00400094ff07004faa970082
:1018c000e00f520008003a000fb497009fb4970051
:1018d0002fb59700bfb59700d8b79f00e9b79f0015
:1018e000fab79f008bbf9f000c0007004f06be0099
:1018f0004f05be004f04be000080fa000000060045
:10190000010007000000060090b79f00a1b79f00ec
:10191000b2b79f00c3b79f00000006000100070098
:10192000000006001fb09700afb097003fb19700ce
:10193000cfb19700000006004f2bde00f9ff070033
:1019400086837300858242004f23de00a7b79f0085
:10195000868272000402420095b79f00ffaa97009a
:101960004f2bde00858242000602720084b79f0082
:101970006faa97004f23de000402420086827200a5
:10198000f5af9f004f18de0000027200e5ff070070
:10199000e4af9f0000004000818048000201490040
:1019a000838149000802be000a03be00d6ff07007b
:1019b00000fe2f0000000600881f7800180020009d
:1019c000881f78008aff07008f87e9004f0478009e
:1019d00000000600801feb0085ff07008f87e900ed
:1019e00000000600889fbe008a9fbe00e00f5000e6
:1019f000e08f5800e00f5900e08f59000c003d00c7
:101a00006044b8006055b8000000540081805c005c
:101a100002015d0083815d001800200015000700b1
:101a200008003d00180007000004eb000500370027
:101a30000004eb000f00070002003d001200070049
:101a400018002000dcff0700e00f54000600320001
:101a50006022b8006033b8000000520081805a0054
:101a600002015b0083815b004f05be004f04be0096
:101a700000000600e00f5200e08f5a00e00f5b000c
:101a8000e08f5b00000006006044b8006055b800bd
:101a90000402540085825c0006035d0087835d00bc
:101aa00000000600889fbe008a9fbe008c1f780041
:101ab000e00f5000e08f5800e00f5900e08f590010
:101ac0000d003d006044b8006055b8001c002000c7
:101ad0000000540081805c0002015d0083815d0094
:101ae0000820e10009a8e1000ab0e1000bb8e1001c
:101af0000d003d00080037000006eb00e00f52002b
:101b0000e08f5a00e00f5b00e08f5b0006003d00b5
:101b10006044b8006055b8000402540085825c003f
:101b200006035d0087835d00aaff0700e00f5600f3
:101b3000060032006022b8006033b8000000520096
:101b400081805a0002015b0083815b004f067800b0
:101b50004f05be004f04be0000000600889fbe0077
:101b60008a9fbe008c1f78000006eb00e00f50003b
:101b7000e08f5800e00f5900e08f590007003d004a
:101b80006044b8006055b8001c00200000005400fc
:101b900081805c0002015d0083815d00e00f5200e6
:101ba000e08f5a00e00f5b00e08f5b0007003d0014
:101bb0006044b8006055b8000c00a2000402540054
:101bc00085825c0006035d0087835d000c000700d2
:101bd000e00f5600060032006022b8006033b80003
:101be0000000520081805a0002015b0083815b008b
:101bf0004f0678004f05be004f04be0000000600ef
:101c0000889fbe008a9fbe008c9fbe000404b8005f
:101c10000506b8008904460060854e000606b80037
:101c20000a054600e0854e000706b8008b05460011
:101c3000040eb800890446000a854e00e0854d0078
:101c4000050eb8000a0546008b854e00060eb8004a
:101c50008b0546000416b8000a0546008b854e0029
:101c60000516b8008b054600041eb8008b0546001b
:101c70000800be000a01be004f06be004f05be00b0
:081c80004f04be000000060045
:020000040000fa
:101c88006f75000074700000757400005f740000c8
:101c9800617300006b000000426900007445000099
:101ca8006e63000020690000733a000020250000e0
:101cb800640a0000004f000075740000757400008d
:101cc800203100003030000030310000303000009a
:101cd800300000004f75000074750000742000008b
:101ce8003130000030300000313100003030000069
:101cf800004f00007574000075740000203100006a
:101d08003130000030310000303000003000000079
:101d18004f75000074750000742000003131000018
:101d28003030000031310000303000000000000089
:101d38001111000022220000333300004444000047
:101d48005555000066660000777700008888000017
:101d580099990000aaaa0000bbbb0000cccc0000e7
:101d6800dddd0000eeee0000cecd0000acab0000e3
:0c1d7800494400004c4500000000000041
:020000040000fa
:101d84001600fa003007980041079800520798009f
:101d94006307980074079800050f9800160f9800c1
:101da400270f98009e0890005e009000b104070081
:101db40000027800140798001e029000e00f520001
:101dc400510032001e029000c40a900025079800ba
:101dd4001e029000c40a90005e0290000402e90012
:101de40004024200848242001e029000750a980098
:101df4005e029000ae0990007e019000ce0090003b
:101e04001e0090001c0407006e019000be009000ac
:101e14002e009000d410070000027800840278009d
:101e24001e029000050a78000e0a9000e00f52008e
:101e3400030032000e0a90009e029000050a78000a
:101e440044110700d4e280000402e800d4e28800d0
:101e540024e08000e00f520007003a001e029000c8
:101e640024e08800d4e28000e10f52000c003a0024
:101e7400420407000a00370004e38000e00f520028
:101e840007003a0024e08000b40a90007e0290002b
:101e9400848f520002003e009e02900025e08800dc
:101ea40044e380000402e80044e388001e0290003a
:101eb400b40a9000f4e28000848f520003003600dc
:101ec4001e029000340a9000f4e288001e02900082
:101ed4000483e8001e029000340a90006a22b900cc
:101ee4008402780064c021000482420086007800e5
:101ef400040078007611070014002000040f780015
:101f040026110700020037000082eb00040f78005e
:101f14001e027800e10f52000b003a0004e3800037
:101f2400e00f52000800320024e08000b40a900060
:101f34007e029000848f520003003100c6340200f8
:101f440000000000000000001e0278000400780079
:101f54000080fa00000006000c00fa004007980018
:101f6400510798000002eb00040f7800ae0107004f
:101f7400e4e28000140798004e0290009402780076
:101f84005e02900004824200240798004e029000f2
:101f9400940278001e029000848f52000c003600d8
:101fa4004e029000940278002e029000848f52001a
:101fb40012003600ae0290001e029000848f520080
:101fc4000e00360014002000040f78000b003700c8
:101fd4004e029000940278002e029000848f5200ea
:101fe40004003e00ae0290001e029000848f520056
:101ff4000200360014002000040f78004e02900006
:10200400ae029000050a78001e027800e00f52002c
:102014000600320024e080000482e8000400780016
:102024007b1107002e009000f403070084010700d1
:1020340000027800340798003e029000e00f52003e
:1020440003003a00c6340200000000000000000053
:102054000080fa00000006000600fa00200798003d
:102064000002eb00040f78002e029000e00f5200f3
:102074000e0032006c010700e5e280002e029000a1
:10208400048242001407980024e080000482e800df
:10209400040078005e1107001e009000d7030700bb
:1020a4006701070000027800040f78001e02780020
:1020b400e00f520003003a00c634020000000000a2
:1020c400000000000080fa00000006000c00fa0086
:1020d40040079800510798000002eb00040f7800b5
:1020e4005e029000e30f520002003600340020002c
:1020f40054079800971007004e029000e00f52001a
:1021040002003a0024e08000010037004e029000f3
:10211400140798001e029000b40a90002507980046
:10212400ae0290005e029000848f52004a0032009a
:10213400de0290002e029000848f52000c003600c4
:1021440024e080009e029000848f52000e00320032
:1021540024e08000b40a90005e029000848f520054
:1021640009003e0014002000040f78000600370028
:1021740024e080009e029000848f520002003a0006
:1021840014002000040f78001e029000b40a90008e
:10219400350798001e029000de029000350a980070
:1021a4001e02900064029000e00f5200040035000b
:1021b4005e029000e40212001e0290006502980084
:1021c4001e029000540390003e0290006a22b9005f
:1021d4008402780064c0210004824200840f53000a
:1021e40017003a001e0290000482e8000400780000
:1021f400071107001e029000b40a9000f4e2800068
:10220400848f5200030036001e029000340a9000ae
:10221400f4e288001e0290000483e8001e0290008d
:10222400340a90006a22b9008402780064c0210054
:10223400048242008600780004007800a41007009d
:102244001e027800e10f520003003a00c634020077
:102254000000000000000000501007000080fa0099
:10226400000006000400fa00100798003910070067
:102274001e029000e00f520002003a0024e08000a9
:10228400010037001e029000040f78001e82e8004f
:1022940004007800de1007001e027800240a900073
:1022a400e00f5200040032009e0278006c8242006b
:1022b40004007800d61007001e82e800840078002d
:1022c40000c52100821007003410070024e08000bc
:1022d4009e027800848f520010003a0004e38000cc
:1022e400e00f520004003200c63402000000000077
:1022f400000000000f00370085e28000d4e2800077
:10230400848f520003003a000002eb0024e08800ae
:1023140008003700a80107000600370004e3800026
:10232400e00f5200030032000a1007007303070095
:102334001a1007000080fa00000006000600fa00e8
:10234400200798000002eb00040f78002e02900092
:10235400140798001e029000d402900004c52100c6
:10236400848f52000b003a001e029000a40a9000d1
:1023740064c42100848f5200060032001e029000c3
:10238400240a9000e00f520002003a0014002000da
:10239400040f78001e027800040078000080fa0020
:1023a400000006000400fa00100798001e029000c6
:1023b400040f78001e027800e00f5200290032005a
:1023c40024e080009e027800848f520025003200b1
:1023d400e00f07001e007800d8ff07000002780015
:1023e400e10f52001e003a001e82e800040078004b
:1023f400871007001e027800b40a9000f4e28000ff
:10240400848f5200030036001e027800340a9000c4
:10241400f4e288001e83e8001e027800340a90006b
:102424006a22b9008402780064c021000482420058
:102434008600780004007800251007001e0278004a
:10244400b40a900024e08000340a9000848f520083
:1024540003003900c6340200000000000000000040
:10246400ce0f07000080fa00000006000800fa0002
:10247400300798000002eb00040f78003e02900041
:10248400140798000002eb00240798001e00900037
:10249400aaff070000027800e10f520028003a006a
:1024a40064e38000e00f520020003a001e02900016
:1024b400b40a900024e08000340a9000848f520013
:1024c4000200390014002000040f78001e0290005e
:1024d4000482e800040078004d1007001e029000fa
:1024e400b40a9000f4e28000848f520003003600a6
:1024f4001e029000340a9000f4e288001e0290004c
:102504000483e8001e029000340a90006a22b90095
:102514008402780064c021000482420086007800ae
:1025240004007800ea0f0700050037001e0290003f
:102534006c0242008400780060c42100e40f0700ac
:102544001e027800040078000080fa0000000600f3
:102554000400fa008003eb000003eb008002eb00b0
:102564000002eb008001eb0032072000c1eb2800e1
:102574006072210002fe070000027800040f780058
:102584001e027800e10f520013003a00940280000a
:1025940014079800ff3ffc00140280000450a000c0
:1025a4000460a1000470a100140288001e029000bf
:1025b4009402880000008800000000000082eb0004
:1025c40054e388001400200004e388000002eb00b8
:1025d400e4e288002e0f07000080fa0000000600e5
:1025e4000200fa0094028000040f7800ff3ffc0010
:1025f400140280000450a0000460a1000470a10033
:10260400140288001e0278009402880000008800ea
:10261400000000000002eb0004e38800340f070010
:102624000080fa00000006000000fa0064e3800065
:102634000402e80064e388000080fa000000060059
:102644000400fa000002eb00040f7800410f0700b9
:1026540064e380000402e90064e3880064e380002a
:10266400e00f520045003a00d4e28000e00f52002f
:10267400420032002600370064e2800034029000f9
:10268400140798001e0290006c02420004007800b7
:10269400df0f07001e0290000482e80004007800a7
:1026a400db0f07001e029000b40a9000f4e28000e1
:1026b400848f5200030036001e029000340a9000fa
:1026c400f4e288001e0290000483e8001e029000d9
:1026d400340a90006a22b9008402780064c02100a0
:1026e400048242008600780004007800780f070016
:1026f4001e029000b40a900024e08000340a900086
:10270400848f5200020039001400200024e3880062
:1027140034e28000e00f5200d7ff3a0014e3800057
:10272400e00f52000d003200090037002f000700af
:1027340000027800e00f5200020032001400200072
:1027440024e3880014e380000402e90014e3880011
:1027540014e38000e00f5200f4ff3a0024e3800009
:10276400e10f520005003a0014002000040f780025
:10277400c63402000000000000000000070f07003c
:102784001e027800040078000080fa0000000600b1
:102794000200fa00ef0e0700e4e28000040f780064
:1027a400fe0e07001e027800040078000080fa0084
:1027b400000006000400fa000002eb00040f780099
:1027c400e4e28000140798001e02900004007800e0
:1027d4000080fa00000006000000fa00d4e2800045
:1027e400040078000080fa00000006000a00fa00e5
:1027f4000002eb00040f780064e38000e00f520055
:1028040061003a00e4e280000402e800e4e28800a7
:10281400e4e28000140798001e029000e00f5200ca
:102824000a003a0015e280002507980024e280009f
:1028340014e288002e02900024e2880034e3800031
:102844000402e80034e388002c02070054e380000b
:102854009e029000848f52003f003900010037002f
:102864000000000014e2800014027800e00f52001f
:1028740003003a000082eb0054e38800360037007e
:1028840014e280003402900034029000340798006f
:102894003e02900094029000450798009e0290002a
:1028a4004e029000848f5200030031004e029000cb
:1028b40054e38800280037003e0290000482e800b8
:1028c40004007800520f07003e029000240a900092
:1028d400e00f5200040032003e0290006c024200fd
:1028e400040078004a0f07003e029000b40a9000ea
:1028f400f4e28000848f5200030036003e02900010
:10290400340a9000f4e288003e0290000483e80058
:102914003e029000340a90006a22b90084027800d2
:1029240064c021000482420086007800040078001c
:10293400e70e07003e029000b40a900024e08000f5
:10294400340a9000848f5200c5ff3900140020001f
:10295400040f7800c3ff370024e08000340a90009d
:102964006a22b9008402780064c021000482420013
:1029740014027800e10f5200060036001400200013
:10298400040f78000300370014e380000402e80019
:1029940014e3880024e38000e00f520002003200b8
:1029a40014002000040f78001e0278000400780050
:1029b4000080fa00000006000200fa0064e38000d0
:1029c400e00f5200030032001400200024e38800ca
:1029d400270037000002eb0024e3880003003700df
:1029e400f4e280000402e900f4e28800f4e28000ea
:1029f4006a22b9008402780064c021000482420083
:102a040014027800e00f5200f5ff3200f4e2800077
:102a14006a22b9008402780064c02100048f420055
:102a24001e02780014029000940290001e027800a6
:102a3400150298001e027800940290001e0378008c
:102a440064024300848f520005003a001e0278009d
:102a540014029000940290001e027800150298005f
:102a64001e027800140290003402900024e08800d2
:102a74000080fa00000006000600fa001007980023
:102a84002107980024e080006c0242008400780052
:102a94001e009000ac0e070024e080000482e800d1
:102aa40004007800da0e07002e029000e10f4200c5
:102ab40006003a0024e080000482e80084007800e4
:102ac40000c52100820e070005003700e5e2800002
:102ad4002e029000048f42001e0078004701070078
:102ae4000080fa00000006000800fa0010079800b1
:102af400210798003207980024e080002e039000fc
:102b040005002800868272006502980024e0800097
:102b14006c024200840078001e0090006c0e0700d6
:102b240024e080000482e80004007800b80e070066
:102b34003e029000e10f420006003a0024e08000cb
:102b44000482e8008400780000c52100600e0700bc
:102b540005003700e5e280003e029000048f420049
:102b64001e007800250107000080fa00000006001e
:102b74000600fa00200798002e029000340290000c
:102b840034029000140798001e0290006c02420068
:102b9400040078009e0e070064e38000e00f5200fa
:102ba40018003a001e0290000482e8000400780035
:102bb400970e07001e029000b40a9000f4e2800011
:102bc400848f5200030036001e029000340a9000e5
:102bd400f4e288001e0290000483e8001e029000c4
:102be400340a90006a22b9008402780064c021008b
:102bf400048242008600780004007800340e070046
:102c0400050037001e0290006c0242008400780028
:102c140060c421002e0e07001e029000b40a90002a
:102c240024e08000340a9000848f520005003600ae
:102c340014002000040f78001400200024e388000e
:102c4400020037000002eb00040f78001e02780037
:102c5400040078000080fa00000006000800fa0072
:102c64002007980031079800be0290000400280055
:102c7400850272002e029000050a78002e02900050
:102c840034029000140798002e009000600e070094
:102c94001e0290000482e800040078005c0e070025
:102ca4001e029000b40a9000f4e28000848f520067
:102cb400030036001e029000340a9000f4e28800fb
:102cc4001e0290000483e8001e029000340a900063
:102cd4006a22b9008402780064c0210004824200a0
:102ce4008600780004007800f90d07001e029000a9
:102cf400b40a900024e08000340a9000848f5200cb
:102d04000500360014002000040f78001400200091
:102d140024e38800020037000002eb00040f78006f
:102d24001e027800040078000080fa00000006000b
:102d34000200fa00000f780035e380001e027800dc
:102d4400050a7800e5e280001e027800150298006a
:102d54000080fa00000006000800fa00200798002e
:102d6400310798007b0d0700e4e280001407980007
:102d74003e02900014027800e10f420003003a0082
:102d84000002eb00040f7800250037002e029000ab
:102d94009402780034e38000848f520008003200eb
:102da4002e029000940290001e029000848f520024
:102db40003003e0014002000040f780018003700c0
:102dc4002e029000140290009e0290008482520011
:102dd4003e02900014027800848f52000e003100ed
:102de4003e029000940278002e029000140390009a
:102df4001e02900004025300848242003e029000ae
:102e0400050a78002e009000c9ff07000002eb00bd
:102e1400040f78000200370014002000040f78002b
:102e24005e0d07001e027800040078000080fa009e
:102e3400000006000000fa001400200024e38800cb
:102e44000080fa00000006000200fa00000f78007b
:102e540001003700000000006500070034e0800036
:102e6400e10f5200fbff3600c634020000000000f0
:102e740000000000f8ff37000c00fa00100798006b
:102e840021079800320798004307980054079800d8
:102e94000002eb00040f78000d0037002e029000b2
:102ea4001e024200944278001e0290001e0242005c
:102eb4007a024200054a78002e0290001e02420067
:102ec40014427800e04f5200050032001e0fe80063
:102ed4001e027800e30f5200f0ff360001003700b5
:102ee400000000001e0290008042eb00555a98003a
:102ef4003e029000e30f520002003600340020002e
:102f0400340798001e029000be029000350a980013
:102f14001e0290000482e80004007800650d07009a
:102f24001e0290006c02420004007800610d07004c
:102f34001e0290009e029000450298003e029000fe
:102f4400e40212001e029000650298001e02900026
:102f54009e029000150a98001e0390006022b8009b
:102f640004139800151398001e0290008002eb00d1
:102f7400251298000080fa00000006000200fa0002
:102f84000002eb00040f7800080037001e027800ee
:102f94006a22b9008402780064c0210004824200dd
:102fa400040078002a0d07001e0fe8001e027800b6
:102fb400e30f5200f5ff3600e0c22100240d0700a4
:102fc40080c32100220d070060c42100200d0700ea
:102fd40000c521001e0d0700e4c2210014e2880090
:102fe40084c3210024e288000080fa000000060067
:102ff4000000fa000080fa00000006000200fa0057
:10300400000f780024e080009e02780015029800ea
:10301400e4e280009e027800848f520007003100b1
:1030240024e080008482e80024e2800085007800a7
:1030340004007800440d07000c00370024e08000f1
:103044008482e80014e2800085007800040078009f
:103054003d0d070054e380009e027800848f5200e7
:10306400020031001e02780054e388000080fa0058
:10307400000006000600fa001007980021079800d7
:1030840060022000020e070000027800040f78009e
:103094001e027800e00f5200140032002e0290004d
:1030a400e00f520006003a001e02900004024200a3
:1030b40004007800f60d07000002780001003700d4
:1030c4002e0290009e027800c40a98001e02780026
:1030d400440a9000e00f520004003a001e007800f9
:1030e400190e07000002eb00040f78001e0278009e
:1030f400040078000080fa00000006000200fa00d4
:1031040014e2800014027800e00f520003003a0039
:103114000082eb0054e388000700370014e28000cb
:103124003402900034029000040f78001e027800ec
:103134001402900054e388000080fa0000000600a6
:103144000200fa0024e08000e4029000050f7800f9
:1031540024e0800025e08000b50a9000e48212009b
:10316400650298001e027800040078000080fa00ce
:10317400000006000a00fa00300798004107980092
:10318400740c070024e08000941290000412900054
:10319400e00f5200e08f5a001b003a0024e0800048
:1031a40015002000251298004e029000e00f5200f6
:1031b4001500320024e080000482e8000400780056
:1031c400130d07004e029000e10f420006003a0082
:1031d40024e080000482e8008400780000c5210017
:1031e400bb0c070005003700e5e280004e029000aa
:1031f400048f42001e00780080ff0700c6340200de
:103204000000000000000000640c0700510c0700df
:1032140024e0800004139000941390001607980093
:10322400270798001e029000ae029000e00f5200a3
:10323400e08f5a000f0032003e029000e00f52006f
:103244000500320026e080006022b80004139800d4
:10325400151398000700370026e08000061290003e
:103264009612900061025200e0825a000413980002
:103274001513980024e080008002eb0025129800ca
:10328400460c07001e029000ae0290000400be002f
:103294000080fa00000006001000fa0020079800e1
:1032a4003107980042079800530798006407980074
:1032b40075079800270c070024e080002412900072
:1032c400e20f52003200320020e080000013900030
:1032d400901390002e029000be0290000482ea0037
:1032e4008582ea008600780007037800840378006a
:1032f4000502780087806000040263000500200056
:10330400c022dd00040020000403be00610ab800ee
:103314000403730085837300061098001710980047
:1033240024e0800015002000251298007e02900001
:10333400e00f52001600320024e080000482e8000e
:1033440004007800b20c07007e029000e10f4200f6
:1033540006003a0024e080000482e800840078003b
:1033640000c521005a0c070006003700e5e2800082
:103374007e02900004824200140798001e00900010
:103384001eff0700c6340200000000000000000019
:10339400020c0700ef0b07006e029000e00f5200d2
:1033a4000500320024e08000941290000412900082
:1033b4006e039000048bbe0024e080002412900071
:1033c400e10f520003003a000002eb00040f780002
:1033d4001800370020e08000001390009013900044
:1033e4004e029000de0290000482ea008582ea0028
:1033f40086007800070378008403780005027800cb
:10340400878060000402630005002000c022dd0004
:10341400040020000403be00610ab8000403730022
:10342400858373000610980017109800140020007c
:10343400040f780024e080008002eb00251298003d
:10344400d60b07001e027800040078000080fa0002
:10345400000006001000fa003007980042079800a8
:10346400530798006107980074079800140020001f
:10347400040f78003e02900014079800b50b070073
:103484007e029000e00f5200050032001e02900000
:1034940094129000041290007e039000048bbe00ee
:1034a4001e029000a4129000250798001e029000ae
:1034b40025002000251298006e02900005002000cf
:1034c4004600200007002000860f5200878f5a0014
:1034d4002d003e00046001002a003700030037007d
:1034e4000d003700150037001a0037001e02900047
:1034f40004139000941390004e029000de0290009a
:1035040004027300858273001e0390000413980064
:10351400151398001c0037001e02900094129000ae
:103524000412900061024200e0824a001e039000ef
:103534000413980015139800130037001e0290001e
:103544004e039000de0390000612980017129800b4
:103554000d0037002e029000e20f520006003200e8
:103564001e0290004e039000de03900006129800a5
:1035740017129800040037000002eb00040f7800d3
:1035840001003700000000002e029000e10f5200fd
:1035940020003a001e0290000482e8000400780033
:1035a4001b0c07001e029000b40a9000f4e2800095
:1035b400848f5200030036001e029000340a9000eb
:1035c400f4e288001e0290000483e8001e029000ca
:1035d400340a90006a22b9008402780064c0210091
:1035e400048242008600780004007800b80b0700cb
:1035f4001e029000b40a900024e08000340a900077
:10360400848f520003003600c6340200000000001c
:1036140000000000610b07001e027800040078001f
:103624000080fa00000006001400fa004007980029
:10363400520798006307980071079800040f9800d8
:10364400150f980014002000040f78004e0290001b
:10365400140798000002eb00240798000e0a90005b
:10366400e00f5200050032001e02900094129000f8
:10367400041290000e0b9000048bbe001e029000fa
:10368400a4129000350798001e0290002500200027
:10369400251298007e0290000500200046002000bc
:1036a40007002000860f5200878f5a002d003e002d
:1036b400046001002a003700030037000d003700c2
:1036c400150037001a0037001e0290000413900002
:1036d400941390005e029000ee02900004027300c6
:1036e400858273001e03900004139800151398003c
:1036f4001c0037001e0290009412900004129000e7
:1037040061024200e0824a001e0390000413980004
:1037140015139800130037001e0290005e039000fa
:10372400ee03900006129800171298000d0037005f
:103734003e029000e20f5200060032001e0290008a
:103744005e039000ee039000061298001712980092
:10375400040037000002eb00040f7800010037007a
:10376400000000003e029000e10f52002c003a00dd
:1037740064e38000e00f520018003a001e0290003b
:103784000482e80004007800a10b07001e029000e8
:10379400b40a9000f4e28000848f520003003600e3
:1037a4001e029000340a9000f4e288001e02900089
:1037b4000483e8001e029000340a90006a22b900d3
:1037c4008402780064c021000482420086007800ec
:1037d400040078003e0b0700050037001e0290002d
:1037e4006c0242008400780060c42100380b07009a
:1037f4001e029000b40a900024e08000340a900075
:10380400848f5200060036001e0a9000e00f52001a
:10381400030032001e0a900015002000050a7800fb
:103824001e027800040078000080fa000000060000
:103834000a00fa0030079800410798003e02900001
:10384400040f78000002eb00140798001e027800b1
:10385400a4129000250798001e027800250020007d
:10386400251298001e027800941290000412900011
:1038740061024200e0824a001e03780004139800ab
:10388400151398002e029000e10f52002a003a000e
:1038940064e38000e00f520016003a001e82e80044
:1038a400040078005a0b07001e027800b40a900046
:1038b400f4e28000848f5200030036001e02780078
:1038c400340a9000f4e288001e83e8001e027800a7
:1038d400340a90006a22b9008402780064c021008e
:1038e400048242008600780004007800f80a070089
:1038f400050037009e0278006c8242008400780044
:1039040060c42100f20a07001e027800b40a900085
:1039140024e08000340a9000848f520006003600b0
:103924004e029000e00f5200030032004e0290005d
:1039340015002000050a78000080fa000000060047
:103944000600fa00200798002e0290001407980041
:103954001e029000e00f520002003a0024e08000b2
:10396400010037001e02900014079800790a07002e
:103974001e02900024129000e20f520006003a004a
:103984001e0290008002eb00251298001400200013
:10399400040f7800020037000002eb00040f7800e7
:1039a4007e0a07001e027800040078000080fa00f6
:1039b400000006000600fa0010079800210798008e
:1039c4001e029000040f7800620a07001e027800ad
:1039d400140378001e027800f40a90001e02780096
:1039e4000412900004aab90004027800840243007f
:1039f4001e027800150298001e0278008002eb0077
:103a0400650a98001e027800940278001e0278006d
:103a1400250298001e027800140378001e02780024
:103a2400740a90008402e9001e02780004129000d7
:103a340004aab90004027800840243001e0278003c
:103a4400350298001e0278008082eb00151298005f
:103a54001e0278008082eb00251298002e0290004e
:103a6400e00f52000f003a001e027800440290005a
:103a7400e00f5200130032009e0278006882420078
:103a8400040078003afc070000027800e10f5200bd
:103a94000c003a00c63402000000000000000000e0
:103aa400080037009e027800688242000400780013
:103ab400670a07009e0278007282420004007800c0
:103ac400630a0700350a0700140020000400780088
:103ad4000080fa00000006000c00fa00300798008d
:103ae40041079800224f98000002eb001407980049
:103af4004e029000e00f520003003a000002eb0077
:103b0400040f780005003700be0290004e029000ba
:103b140004aab90004027800040fe800650220003a
:103b24001e82420004007800590b0700000278004e
:103b3400240798002e029000e00f52001700320074
:103b44004e029000e00f520004003a00ae029000d2
:103b54002e029000050a7800050037002e0290001e
:103b640065022000848242002e029000050a78003b
:103b74002e029000be029000750a98002e0290005a
:103b8400ce02900005129800110020002e00900033
:103b940088ff07002e029000140798001e02900070
:103ba400040078000080fa00000006001200fa0009
:103bb400500798006107980072079800030f980057
:103bc4000002eb00040f78005e02900014079800d6
:103bd4000100370000000000de0907001e0290000b
:103be400e40a90001e029000740a9000848f520030
:103bf400030039000e0a9000e20f52001e003a0042
:103c04000e099000ee0090001e009000dc010700f9
:103c140000027800240798001e029000140a900005
:103c2400e00f52000b0032001e02900072024200ac
:103c340004007800cefb070000027800e10f520078
:103c44000a003a00c6340200000000000000000030
:103c5400060037002e029000e00f520003003200ed
:103c6400c63402000000000000000000cb09070079
:103c740014002000450037007e029000e00f52003f
:103c840003003a00c50907000002eb003f003700bb
:103c94001e027800e00f520005003a006602470059
:103ca4000400780022fc070014002000040f7800b0
:103cb400ba0907005cfa0700a60907001e02900073
:103cc40014129000e10f420003003a001e0290001b
:103cd4008002eb00151298001e029000241290003e
:103ce400e10f420003003a001e0290008002eb0044
:103cf40025129800a9090700ee0247006602470052
:103d0400850078000400780013fc070000027800a6
:103d1400e00f520019003a001e00900072020700e2
:103d240000027800e00f520010003200fe02900002
:103d34001e029000680242008500780004007800aa
:103d44004dfb07001e009000090207003cfa070023
:103d540000027800e00f52009eff3a00c6340200d1
:103d640000000000000000009bff37001e009000d0
:103d7400ff01070032fa070097ff37001e0090008a
:103d8400fb0107002efa07000002eb000400780094
:103d94000080fa00000006000e00fa0030079800c8
:103da4004107980052079800630798003e0290006c
:103db400140798000002eb00240798001e029000ec
:103dc400e40a90001e029000740a9000848f52004e
:103dd400030039006e029000e20f520022003a0004
:103de4006e019000ce0090001e0090006401070058
:103df4001e02900024129000e10f420012003a00cb
:103e04001e029000140a9000e00f520013003200ca
:103e14001e029000720242000400780054fb070066
:103e240000027800e00f52000c0032005e029000a5
:103e3400e00f5200090032005e02900015002000dd
:103e4400050a7800050037001e0290002412900035
:103e54008402e8001e02900025129800140020003d
:103e6400040f7800020037000002eb00040f780012
:103e74001e027800040078000080fa0000000600aa
:103e84000a00fa0030079800410798003e029000ab
:103e9400140798000002eb00240798001e0290000b
:103ea400e40a90001e029000740a9000848f52006d
:103eb400230031001e029000640a90008402e8008e
:103ec4001e029000650a98001e02900024129000c1
:103ed400e10f420012003a001e029000140a900002
:103ee400e00f5200130032001e02900072024200e2
:103ef400040078001efb070000027800e00f520067
:103f04000c0032004e029000e00f52000900320013
:103f14004e02900015002000050a780005003700c5
:103f24001e029000241290008402e8001e029000f9
:103f34002512980014002000040f780002003700b6
:103f44000002eb00040f78001e02780004007800e1
:103f54000080fa00000006001200fa0050079800e2
:103f64006107980072079800030f98000002eb00a5
:103f7400040f78005e0290001407980001003700d7
:103f840000000000f30807001e029000640a90007d
:103f9400e00f5200310032001e029000b402900083
:103fa40025079800ee0090001e0090004e010700c7
:103fb4000e0a9000e00f520014003a001e02900016
:103fc400640a90008402e9001e029000650a9800c9
:103fd4001e02900044029000e00f52001c003200c8
:103fe4001e0290006802420004007800e0fa070014
:103ff40000027800e10f520015003a00c6340200b6
:104004000000000000000000110037001e029000b4
:10401400ae029000350298001e029000140a90002f
:10402400e00f52000a0032001e02900072024200a9
:1040340004007800cefa070000027800e00f520076
:1040440003003200c634020000000000000000003b
:10405400d208070014002000450037007e029000bb
:10406400e00f520003003a00cc0807000002eb0006
:104074003f0037001e027800e00f520005003a00ae
:10408400660247000400780029fb070014002000a2
:10409400040f7800c108070063f90700ad080700a2
:1040a4001e02900014129000e10f420003003a0037
:1040b4001e0290008002eb00151298001e02900070
:1040c40024129000e10f420003003a001e02900007
:1040d4008002eb0025129800b0080700ee024700aa
:1040e4006602470085007800040078001afb070088
:1040f40000027800e00f520019003a001e00900000
:104104005901070000027800e00f5200100032004d
:10411400fe0290001e0290007202420085007800a8
:104124000400780054fa07001e00900010010700f4
:1041340043f9070000027800e00f520090ff3a00b4
:10414400c634020000000000000000008dff3700ac
:104154001e0090000601070039f9070089ff3700a7
:104164001e0090000201070035f907000002eb0071
:10417400040078000080fa00000006000c00fa0039
:104184003007980041079800520798003e029000bb
:10419400140798000002eb00240798001e02900008
:1041a400640a9000e00f520026003200ce00900016
:1041b4001e009000cc0007001e029000640a9000cc
:1041c4008402e9001e029000650a98001e02900015
:1041d40014129000e10f420012003a001e029000f7
:1041e40044029000e00f5200130032001e029000bf
:1041f40068024200040078005dfa070000027800bb
:10420400e00f52000c0032005e029000e00f5200fa
:10421400090032005e02900015002000050a7800b3
:10422400050037001e029000141290008402e8007a
:104234001e0290001512980014002000040f78004c
:10424400020037000002eb00040f78001e02780021
:10425400040078000080fa00000006000c00fa0058
:1042640040079800510798004e02900014079800e8
:104274000002eb00240798001e029000640a9000dc
:10428400e00f52000c0032001e029000b4029000b5
:1042940035079800de0090001e0090009200070091
:1042a4001e029000be029000350298001400200007
:1042b400040f7800020037000002eb00040f7800be
:1042c4001e027800040078000080fa000000060056
:1042d4000400fa00100798001e0807001e02900050
:1042e400e40a9000050f78002c0807001e027800ed
:1042f400040078000080fa00000006000600fa00be
:10430400200798002e029000040f7800110807007f
:104314001e027800f40a90001e027800640a9000dd
:1043240004825200140798001c0807001e02900023
:10433400040078000080fa00000006000400fa007f
:10434400100798001e029000e40a9000050f780000
:104354001e027800040078000080fa0000000600c5
:104364000400fa00100798001e029000040f780061
:104374001e007800740907000080fa00000006009f
:104384000800fa00100798002107980032079800e7
:104394000002eb00040f78001e029000041290004b
:1043a400e00f5200470032003e029000e00f52003e
:1043b4001a003a001e029000841290001e0290001f
:1043c4002402900005017800ae00900004007800fb
:1043d4008df007001e029000a40290001e029000bf
:1043e40004129000848242001e029000250298006c
:1043f4001e029000a40290001e029000140290007d
:10440400848f52002f0039001e029000940278001d
:104414001e029000250298002a0037001e02900018
:10442400841290001e02900034029000050178006e
:10443400ae0090000400780073f007001e029000a4
:10444400b40290001e029000041290000402ea00dc
:10445400848242001e029000350298001e029000e1
:10446400b40290001e02900014027800848f52005f
:10447400080031001e029000940290001e02900079
:10448400041290000402ea00848242001e0290009a
:10449400350298003e029000e20f520009003a00f3
:1044a4001e029000640a9000e00f520005003200e2
:1044b4001e029000640a90008402e9001e0290002b
:1044c400650a98001e029000640a90008402e800c5
:1044d4001e029000650a98001e027800040078000d
:1044e4000080fa00000006000400fa00000f7800c3
:1044f400110798001e02780004129000e00f520089
:10450400190032001e027800b40290001e027800e6
:1045140004129000848242001e0278003502980042
:104524001e027800b40290001e027800140290006b
:10453400848f5200040039001e027800940278002f
:104544001e027800350298001e0278008412900042
:104554001e0278003402900005017800840078007f
:104564001e00900028f007000080fa0000000600fa
:104574000200fa00000f78007607070011003700e8
:104584001e027800140a9000e00f5200120032005c
:104594009e027800728242000400780074f90700d9
:1045a40000027800e00f52000100320021fa0700f7
:1045b4001e027800241290008402e9001e02780092
:1045c400251298001e02780024129000e00f520079
:1045d400ebff3c0001003700000000001e027800e1
:1045e4008082eb00251298006c070700590707002a
:1045f400110037001e02780044029000e00f5200c0
:10460400120032009e0278006882420004007800a2
:1046140057f9070000027800e00f52000100320051
:1046240004fa07001e027800141290008402e900c4
:104634001e027800151298001e02780014129000d1
:10464400e00f5200ebff3c000100370000000000c7
:104654001e0278008082eb00151298004f070700b5
:104664000080fa00000006000400fa001007980019
:10467400380707001e029000640a9000e00f520001
:1046840003003a0014002000040f780002003700f1
:104694000002eb00040f7800400707001e027800b8
:1046a400040078000080fa00000006000400fa000c
:1046b400100798001e029000640a9000e00f520058
:1046c40003003a0014002000040f780002003700b1
:1046d4000002eb00040f78001e027800040078004a
:1046e4000080fa00000006000400fa001007980099
:1046f400180707001e029000e40a90001e029000b2
:10470400740a9000848f520003003a0014002000c1
:10471400040f7800020037000002eb00040f780059
:104724001e0707001e027800040078000080fa00cb
:10473400000006000400fa00100798001e02900012
:10474400e40a90001e029000740a9000848f5200c4
:1047540003003a0014002000040f78000200370020
:104764000002eb00040f78001e02780004007800b9
:104774000080fa00000006001600fa00000f9800fe
:10478400110f9800220f98000e0a90001407980049
:104794009402800024079800ff3ffc00140280006c
:1047a4000450a0000460a1000470a1001402880059
:1047b4002e0290009402880000008800000000008f
:1047c4001e009000c8ff070000027800e00f5200ae
:1047d400220032002e0a9000e00f52001200320034
:1047e4001e02900068024200840078002e089000a7
:1047f400230507009402800034079800ff3ffc0063
:10480400140280000450a1000460a1000470a100ff
:10481400140288003e029000940288000000880080
:10482400c4ff2f004c003700940280004407980016
:10483400ff3ffc00140280000450a1000460a100aa
:104844000470a100140288004e02900094028800b3
:10485400000088000002eb003f0037009402800053
:1048640054079800ff3ffc00140280000450a1008c
:104874000460a1000470a100140288005e0290008c
:104884009402880000008800940280006407980065
:10489400ff3ffc00140280000450a0000460a1004b
:1048a4000470a100140288006e0290009402880033
:1048b40000008800000000001e029000e40a90003e
:1048c4001e029000740a9000848f5200140031007c
:1048d4000001eb009e0890001e009000a8fe070057
:1048e40014002000040f78001e029000140a9000a7
:1048f400e00f52000c0032001e02900072024200cf
:1049040004007800fa05070000027800e00f520066
:1049140005003200b4ff2f00040f780002003700b6
:104924000002eb00040f78009402800074079800e2
:10493400ff3ffc00140280000450a1000460a100a9
:104944000470a100140288007e0290009402880082
:10495400000088001e027800040078000080fa003d
:10496400000006001600fa00000f9800110f9800ce
:10497400220f98000e0a90001407980094028000f9
:1049840024079800ff3ffc00140280000450a0009c
:104994000460a1000470a100140288002e0290009b
:1049a4009402880000008800000000001e029000ad
:1049b400640a9000e00f520022003a002e0a900090
:1049c400e00f5200120032001e02900072024200f8
:1049d400840078002e089000a90407009402800047
:1049e40034079800ff3ffc00140280000450a1002b
:1049f4000460a1000470a100140288003e0290002b
:104a04009402880000008800c4ff2f00640037006f
:104a14009402800044079800ff3ffc0014028000c9
:104a24000450a1000460a1000470a10014028800d5
:104a34004e02900094028800000088000002eb00ff
:104a4400570037009402800054079800ff3ffc0091
:104a5400140280000450a1000460a1000470a100ad
:104a6400140288005e02900094028800000088000e
:104a74009402800064079800ff3ffc001402800049
:104a84000450a0000460a1000470a1001402880076
:104a94006e0290009402880000008800000000006c
:104aa4001e029000640a9000e00f52002e003200b3
:104ab4001e029000b40290001e02900004129000a6
:104ac400848242001e029000350298001e0290006b
:104ad400b40290001e02900014029000848f5200d1
:104ae400040039001e029000940278001e02900017
:104af400350298001e029000640a90008402e900c6
:104b04001e029000650a98001e0290008412900014
:104b14001e029000340290000501780084007800a1
:104b24001e089000b8ee070014002000040f78005f
:104b34001e02900044029000e00f52000c0032006c
:104b44001e02900068024200040078006805070015
:104b540000027800e00f520005003200b4ff2f007d
:104b6400040f7800020037000002eb00040f780005
:104b74009402800074079800ff3ffc001402800038
:104b84000450a1000460a1000470a1001402880074
:104b94007e02900094028800000088001e027800c3
:104ba400040078000080fa00000006000800fa0003
:104bb4001007980021079800320798001e02900001
:104bc400040f78001e027800e40a90001e027800a8
:104bd400740a9000848f5200140031000001eb002d
:104be400ae0090001e007800e5fd07003e02900034
:104bf400e00f52000d003a001e027800140a9000e3
:104c0400e00f5200090032009e02780072824200d6
:104c1400040078003605070000027800e00f520017
:104c24000200320014002000010037003e02900010
:104c3400040078000080fa00000006000a00fa0070
:104c44002007980031079800420798002e02900030
:104c5400140798001e029000640a9000e00f5200ae
:104c6400330032001e029000b40290001e02900035
:104c740004129000848242001e02900035029800c3
:104c84001e029000b40290001e02900014029000d4
:104c9400848f5200040039001e02900094027800b0
:104ca4001e029000350298001e029000640a9000d3
:104cb4008402e9001e029000650a98001e0290001a
:104cc400841290001e0290003402900005017800c6
:104cd400840078003e0090004bee07004e029000e6
:104ce40014027800e00f52000e003a001e029000f9
:104cf40044029000e00f52000a0032001e029000ad
:104d04006802420004007800f904070000027800f9
:104d1400e00f5200030032004e0290001500200004
:104d2400050a780014002000040f78000200370000
:104d34000002eb00040f78001e02780004007800e3
:104d44000080fa00000006000000fa008540a90077
:104d54009540a90041e2a90041a2a90004128000e3
:104d64000480a1000490a10004a0a1000412880002
:104d740040e2a90040c2a90040a2a9000412800098
:104d84000420a1000430a1000440a1000412880002
:104d94004022a9004002a9004382a8004362a9005e
:104da400141980000420a1000430a1000440a100d3
:104db4000450a100141988004302a90042e2a9008a
:104dc40042c2a90042a2a800141280000420a1003b
:104dd4000430a0000440a0001412880014128000c3
:104de4000400a0000410a0001412880045e2a900e9
:104df40045c2a90045a2a8004422a9004402a90072
:104e0400453a800004fc2f008482620004022000e2
:104e140005027200443a88008540a90041e2a800d6
:104e2400c002a9000041eb00610020001000200036
:104e340029fb07000002780074e588008003eb007a
:104e44000003eb008002eb00140020008001eb0063
:104e54000240200041e42800608d2200c8f30700ce
:104e6400bbf507000002eb00040078000080fa00a4
:104e7400000006000400fa00100798000002eb008e
:104e8400040f7800080037000000000004128000be
:104e940062026200e00f5200fcff3a000002eb00e5
:104ea400441288001e0fe800340220009e0278009d
:104eb400848f5200f4ff34000000000004128000cc
:104ec40062026200e00f5200fcff3a0084082000f6
:104ed4004412880000000000041280006202620094
:104ee400e00f5200fcff3a008408200044128800be
:104ef400000000000412800062026200e00f520011
:104f0400fcff3a00840820004412880000000000de
:104f14000412800062026200e00f5200fcff3a00bb
:104f2400840820004412880000000000041280005d
:104f340062026200e00f5200fcff3a008408200085
:104f44004412880000000000041280006202620023
:104f5400e00f5200fcff3a0084082000441288004d
:104f6400000000000412800062026200e00f5200a0
:104f7400fcff3a008408200044128800000000006e
:104f84000412800062026200e00f5200fcff3a004b
:104f940084082000441288000000000004128000ed
:104fa40062026200e00f5200fcff3a00c40c2000d1
:104fb40044128800000000000412800062026200b3
:104fc400e00f5200fcff3a00c40c20004412880099
:104fd400000000000412800062026200e00f520030
:104fe400fcff3a00c40c20004412880000000000ba
:104ff4000412800062026200e00f5200fcff3a00db
:10500400c40c2000441288004006200012f407005b
:105014000002eb00040f78000800370000000000d5
:105024000412800062026200e00f5200fcff3a00aa
:105034000002eb00441288001e0fe8003402200036
:105044009e027800848f5200f4ff340000000000b8
:105054000412800062026200e00f5200fcff3a007a
:10506400840820004412880000000000041280001c
:1050740062026200e00f5200fcff3a008408200044
:1050840044128800000000000412800062026200e2
:10509400e00f5200fcff3a0084082000441288000c
:1050a400000000000412800062026200e00f52005f
:1050b400fcff3a008408200044128800000000002d
:1050c4000412800062026200e00f5200fcff3a000a
:1050d400c40c200044128800000000000412800068
:1050e40062026200e00f5200fcff3a00c40c200090
:1050f4004412880000000000041280006202620072
:10510400e00f5200fcff3a00c40c20004412880057
:10511400000000000412800062026200e00f5200ee
:10512400fcff3a00c40c2000441288000000000078
:105134000412800062026200e00f5200fcff3a0099
:10514400840820004412880000000000041280003b
:1051540062026200e00f5200fcff3a008408200063
:105164004412880000000000041280006202620001
:10517400e00f5200fcff3a0084082000441288002b
:10518400000000000412800062026200e00f52007e
:10519400fcff3a00840820004412880040062000e6
:1051a400adf3070035ff37001400fa00100f980024
:1051b4000002eb005407980074e58000ec024700fd
:1051c4008001eb000081eb0085007800040078008a
:1051d40061fb07000002eb00340798000a00370067
:1051e400000000000412800062026200e00f52001e
:1051f400fcff3a000002eb00441288003e029000db
:105204000402e80034079800be0290003402200033
:10521400848f5200f2ff34000002eb00040f780088
:105224006f0037000002eb00140798006800370095
:105234001e029000e10f52000b003200e20f5200f8
:105244000f003200e00f520014003a001e027800f2
:105254006622b900040278000482e80004024700d0
:10526400e4029000450798001e0278006622b90007
:105274000402780004024700e40290004507980005
:105284001e0278006622b90004027800640242001b
:1052940004024700e4029000450798000002eb0076
:1052a40024079800440037002e0290006302120085
:1052b40004024200ce02900004aade0063026200ef
:1052c400540798005e029000841f780004e52800cb
:1052d400841f7800ebec0700e48757005e0290001f
:1052e400cfa2de003600200007002000860f520007
:1052f400878f5a002d003e00046001000300370030
:105304000c003700150037001e003700f0e52800b8
:10531400d2ec070000000000041280006202620068
:10532400e00f5200fcff3a00840820004412880079
:105334001e003700e0e62800c8ec0700000000006b
:105344000412800062026200e00f5200fcff3a0087
:10535400c40820004412880014003700d0e7280055
:10536400beec07000000000004128000620262002c
:10537400e00f5200fcff3a00840c20004412880025
:105384000a003700c0e82800b4ec07000000000061
:105394000412800062026200e00f5200fcff3a0037
:1053a400c40c200044128800000000002e0290006b
:1053b4000402e800240798002e029000e30f520034
:1053c400b9ff34001e0290000402e800140798009c
:1053d4001e029000e20f520095ff34001e0fe800f9
:1053e4001e027800e00f52008eff340072ff370077
:1053f4000000fa000002eb00041688000002eb0033
:10540400141688000080fa00000006000000fa006c
:105414000080fa00000006000600fa001007980059
:105424002107980094028000040f7800ff3ffc00dd
:10543400140280000450a0000460a1000470a100c4
:10544400140288001e02780094028800000088007c
:1054540000000000ffff37000200fa00c000200037
:105464000b05070000027800040f78001e02780084
:10547400e00f5200060032001e0278008002eb00aa
:10548400050a78001e82e80004007800f003070093
:105494001e027800040078000080fa000000060074
:1054a4001200fa00500798006107980072079800ec
:1054b400030f98005e029000140798000002eb00ae
:1054c4002407980058f407001e0290009402780004
:1054d40035079800ee0090005e009000ea00070097
:1054e400be0290006e029000850272007e0290005f
:1054f400848262007e029000848f52000d003a0084
:10550400be0290006e029000048f72001e02900092
:10551400940278007e0290000482ea008482620091
:105524001e029000050a78000002eb00040f9800a8
:10553400110037000e0a9000e00f52000c003200f8
:10554400fe02900004502000850272001e029000aa
:105554000482e8000e0990008500780004007800b9
:1055640061f507000002eb00040f78000200370029
:105574001e029000140f780031f407000002780036
:10558400440798000e0a9000e00f520021003200f8
:105594004e029000e00f520003003a00c6340200ad
:1055a4000000000000000000e5f60700000278009b
:1055b400040f7800042020001e026200e00f520055
:1055c40012003a00630307001e029000140f7800d3
:1055d4007e0290009e0262007e029000848f520040
:1055e40007003a001e029000940278007e029000a8
:1055f4000482ea00848262001e029000050a780098
:10560400660307001400200024079800f40f20000c
:105614001e0f62001e027800040078000080fa0069
:10562400000006001800fa0070079800010f9800a7
:10563400120f9800230f9800340f98007e029000f8
:10564400240798000002eb00140798000002eb0006
:1056540034079800f4f307002e02900094027800b7
:10566400450798002e0990008e0890004e00900087
:105674001601070000027800540798005e029000ab
:10568400e00f52000f0032004e029000040f780029
:105694000002eb00340f98001e0a9000e00f520045
:1056a400270032002e029000940278000e0a900027
:1056b4000482ea00848262002e029000050a7800c7
:1056c4001f0037003e0a9000e00f520003003a002a
:1056d400ce029000050f7800190037001e0a9000d2
:1056e400e00f5200040032009e02900004102000db
:1056f40005027200140798002e0a9000e00f520071
:10570400040032009e029000044020000502720052
:10571400140798008e0a90001e0290008502720001
:105724002e0290000482e8003e0990008500780073
:1057340004007800ecf407000002eb00040f78008a
:10574400bff3070000027800640798003e0a900047
:10575400e00f5200260032006e029000e00f52006b
:1057640003003a00c63402000000000000000000fc
:1057740073f6070000027800040f7800042020006c
:105784001e026200e00f520017003a00f102070007
:105794002e029000140f78002e0990008e089000bd
:1057a4001e007800c900070000027800e00f5200d4
:1057b4000a0032001e0a9000e00f52000700320077
:1057c4002e029000940278000e0a90000482ea00ef
:1057d400848262002e029000050a7800ef0207001e
:1057e4000002eb0034079800f40f20001e0f620043
:1057f4001e027800040078000080fa000000060011
:105804000800fa0020079800310798002e02900043
:10581400040f7800cf0207001e027800940278007b
:10582400150798001e027800940278003e0290004a
:105834000482ea00848262001e027800050a78006d
:10584400d60207001e029000040078000080fa00cf
:10585400000006000800fa00300798003e0290009d
:10586400040f78000002eb00140798001e02780071
:1058740094027800250798002e0290000400780016
:105884000080fa00000006001600fa00100f9800cd
:10589400210f98000002eb00140798001e0a9000e4
:1058a400340798000002eb00240798003e029000a1
:1058b4000482e800440798004e029000640242000b
:1058c4005407980058f307004e029000b402900069
:1058d400050f78003e029000940278002e0a900092
:1058e400850272003e029000050a78003c003700f1
:1058f4001e02780094029000650798001e0278004a
:1059040094027800750798000002eb0024079800c1
:10591400fe02900004f02f0004826200040f98003d
:10592400fe029000f40f20000482620074079800c5
:105934008e0a90000440200004826200e00f5200ae
:1059440009003a003e029000940278007e02900022
:1059540004826200e00f52000c00320014002000a8
:1059640024079800090037003e0290009402780052
:105974007e029000848262007e029000848f520036
:1059840002003a0014002000240798002e02900020
:10599400e00f5200100032008e0a90000410200024
:1059a40004826200e00f5200040032009e02900064
:1059b4007e02900005027200140798003e029000d7
:1059c400940278000420200005027200840078000c
:1059d4001e007800a1f407006e029000040f780006
:1059e4005e0290009e027800848f5200c0ff3a004d
:1059f4003e029000940278001e0290000482ea00a5
:105a0400848262003e029000050a78000cf30700cd
:105a14003e02900014027800040078000080fa002e
:105a2400000006000600fa00200798002e029000ed
:105a3400040f78001e82e80014079800faf20700a9
:105a4400050037001e02900034029000012020005f
:105a54000400780081f407001e029000140278000c
:105a6400e00f5200f7ff3a001e007800b60307006b
:105a7400f3f207000080fa00000006000600fa00b6
:105a8400000f780012079800230798001e02900068
:105a9400840078001e0078007bff07000080fa0075
:105aa400000006000600fa00000f780012079800b4
:105ab400230798001e029000840078001e007800de
