:020000040000fa
:080000000002040000000000f2
:020000040000fa
:100008005a2300005a2300005a2300005a230000f4
:100018005a2300005a2300005a2300005a230000e4
:100028005a2300005a2300005a230000122000001f
:100038005a2300005a2300005a2300005a230000c4
:100048005a2300005a2300005a2300005a230000b4
:100058005a2300005a2300005a2300005a230000a4
:100068005a2300005a2300005a2300005a23000094
:100078005a2300005a2300005a2300005a23000084
:100088005a2300005a2300005a2300005a23000074
:100098005a2300005a2300005a2300005a23000064
:1000a8005a2300005a2300005a2300005a23000054
:1000b8005a2300005a2300005a2300005a23000044
:1000c8005a2300005a2300005a2300005a23000034
:1000d8005a2300005a2300005a2300005a23000024
:1000e8005a2300005a2300005a2300005a23000014
:1000f8005a2300005a2300005a2300005a23000004
:100108005a2300005a2300005a2300005a230000f3
:100118005a2300005a2300005a2300005a230000e3
:100128005a2300005a2300005a2300005a230000d3
:100138005a2300005a2300005a2300005a230000c3
:100148005a2300005a2300005a2300005a230000b3
:100158005a2300005a2300005a2300005a230000a3
:100168005a2300005a2300005a2300005a23000093
:100178005a2300005a2300005a2300005a23000083
:100188005a2300005a2300005a2300005a23000073
:100198005a2300005a2300005a2300005a23000063
:1001a8005a2300005a2300005a2300005a23000053
:1001b8005a2300005a2300005a2300005a23000043
:1001c8005a2300005a2300005a2300005a23000033
:1001d8005a2300005a2300005a2300005a23000023
:1001e8005a2300005a2300005a2300005a23000013
:0801f8005a2300005a23000005
:020000040000fa
:100208005a2300005a2300005a2300005a230000f2
:100218005a2300005a2300005a2300005a230000e2
:100228005a2300005a2300005a230000122000001d
:100238005a2300005a2300005a2300005a230000c2
:100248005a2300005a2300005a2300005a230000b2
:100258005a2300005a2300005a2300005a230000a2
:100268005a2300005a2300005a2300005a23000092
:100278005a2300005a2300005a2300005a23000082
:100288005a2300005a2300005a2300005a23000072
:100298005a2300005a2300005a2300005a23000062
:1002a8005a2300005a2300005a2300005a23000052
:1002b8005a2300005a2300005a2300005a23000042
:1002c8005a2300005a2300005a2300005a23000032
:1002d8005a2300005a2300005a2300005a23000022
:1002e8005a2300005a2300005a2300005a23000012
:1002f8005a2300005a2300005a2300005a23000002
:100308005a2300005a2300005a2300005a230000f1
:100318005a2300005a2300005a2300005a230000e1
:100328005a2300005a2300005a2300005a230000d1
:100338005a2300005a2300005a2300005a230000c1
:100348005a2300005a2300005a2300005a230000b1
:100358005a2300005a2300005a2300005a230000a1
:100368005a2300005a2300005a2300005a23000091
:100378005a2300005a2300005a2300005a23000081
:100388005a2300005a2300005a2300005a23000071
:100398005a2300005a2300005a2300005a23000061
:1003a8005a2300005a2300005a2300005a23000051
:1003b8005a2300005a2300005a2300005a23000041
:1003c8005a2300005a2300005a2300005a23000031
:1003d8005a2300005a2300005a2300005a23000021
:1003e8005a2300005a2300005a2300005a23000011
:0803f8005a2300005a23000003
:020000040000fa
:100400002fcb21000e7f22000e018800000000008b
:100410000c000700e0fd2100010020001100070092
:10042000000020000000e000020032000000020096
:1004300000000000d2200200000000000040da00ae
:100440000000fe004440a900600420000000e0001d
:100450000300320000002000a00188004440a800f2
:100460000000060091018800800078000000eb0089
:1004700015003700e280400032a0b4009101ba00bc
:10048000e280400032a0b4009102ba00e280400055
:1004900032a0b4000002eb00472bde00f507b200eb
:1004a000602ce10004003a000059eb008301e900f0
:1004b000fdff3e00040037006128e100010032002a
:1004c0000082eb00040007001101ba000200e00006
:1004d000e8ff3a00000006003159ba008301e90044
:1004e0000c0032002159ba008301e90008003200f3
:1004f0000400e00003003a00e280400032a0b400b3
:10050000f5ff370011d9ba008301e900faff3a007c
:100510008100e800e180400032a0b4000000060045
:100520005822040000000000200b0400000000001e
:10053000e68747008e1f7800d0bf9f006687570070
:10054000012f78000e0037005fba97001440780042
:10055000efb99700934078000201e900814f500005
:10056000040032000080fb008180fb00010050008d
:10057000060037000402e800d4bf9f00030fe80024
:10058000e00f5100f0ff3a00020078004f077800ba
:100590006f00b10000000600800178000200370003
:1005a000b15978000201e900e00f5100fcff3a0068
:1005b00000000600800178000200370081597800b1
:1005c0000201e900e00f5100fcff3a0000000600c4
:020000040000fa
:1005d00011110000222200003333000044440000c7
:1005e0005555000066660000777700008888000097
:1005f00099990000aaaa0000bbbb0000cccc000067
:10060000dddd0000eeee0000cecd0000acab000062
:10061000494400004c45000000a50000a5a50000cd
:10062000a5a50000a5a50000a5a50000a5a50000a2
:10063000a5a50000a5a50000a5a50000a5a5000092
:10064000a50000006f750000747000007574000054
:0c0650005f740000617300006b0000008c
:020000040000fa
:10065c001600fa00000f9800110f9800220f980056
:10066c000e08900010079800900280002007980058
:10067c00ff3ffc0011028000f0f12f008080600031
:10068c000002200000807000100288002e009000f4
:10069c009002880000008800000000001e009000fe
:1006ac00e00890000000eb00808f500021003a0021
:1006bc00ae0890000000eb00808f5000110032005b
:1006cc001e00900072004000800078002e08900000
:1006dc00b40c07009002800030079800ff3ffc002c
:1006ec0011028000f0f12f000080600010028800e1
:1006fc003e0090009002880000008800c0ff2f0090
:10070c00630037009002800040079800ff3ffc0018
:10071c0011028000f0f12f000080600010028800b0
:10072c004e00900090028800000088000000eb0052
:10073c00570037009002800050079800ff3ffc00e4
:10074c0011028000f0f12f00008060001002880080
:10075c005e009000900288000000880090028000eb
:10076c0060079800ff3ffc0011028000f0f12f00a1
:10077c008080600000022000008070001002880061
:10078c006e009000900288000000880000000000bd
:10079c001e009000e00890000000eb00808f5000dd
:1007ac002e0032001e009000b00090001e00900041
:1007bc0000109000808040001e00900031009800d6
:1007cc001e009000b00090001e00900010009000e1
:1007dc00808f5000040039001e00900090007800bb
:1007ec001e009000310098001e00900060089000e0
:1007fc008000e9001e009000610898001e00900027
:10080c00801090001e0090003000900001017800d4
:10081c00800078001e0890005cff0700100020008c
:10082c00000f78001e009000c00090000000eb004c
:10083c00808f50000b0032001e00900068004000ba
:10084c00700d07008000eb00810f50000500320096
:10085c00b0ff2f00000f7800020037000000eb0003
:10086c00000f78009002800070079800ff3ffc009a
:10087c0011028000f0f12f0000806000100288004f
:10088c007e00900090028800000088001e00780016
:08089c000080fa0000000600d4
:020000040000fa
:1008a4001200fa0050079800610798007207980038
:1008b400030f98000000eb00000f78005e0090002a
:1008c4001007980001003700000000005d0e0700cb
:1008d4001e009000e00890000000eb00808f5000a4
:1008e400320032001e009000b000900021079800f2
:1008f400ee0090001e009000500c07008e0890003f
:100904000000eb00808f500014003a001e0090009d
:10091400600890008000e9001e00900061089800c3
:100924001e009000c00090000000eb00808f50007b
:100934001b0032001e009000680040004a090700b6
:1009440011002000810f500015003a00ae1b020078
:100954000000000000000000110037001e0090009d
:10096400ae009000310098001e00900090089000a6
:100974000000eb00808f5000090032001e00900040
:1009840072004000380907008000eb00810f50001e
:1009940003003200ae1b0200000000000000000053
:1009a400140e07001000200044003700fe009000e1
:1009b4000000eb00808f500003003a000d0e07008a
:1009c4000000eb003d0037009e0078000000eb00c3
:1009d400808f500004003a0066004700d50e0700df
:1009e40010002000000f7800020e07000f0f070010
:1009f400140e07001e009000901090000080eb0081
:100a0400808f500003003a001e0090008000eb002d
:100a1400111098001e009000a01090000080eb00c0
:100a2400808f500003003a001e0090008000eb000d
:100a340021109800ef0d0700ee0047006600470004
:100a4400e70907008000eb00810f500017003a000f
:100a54001e009000450e07008000eb00810f50003f
:100a64000e003200fe0090001e0090007200400054
:100a7400ca0c07001e00900093070700fe0407003d
:100a84008000eb00810f50008fff3a00ae1b020084
:100a940000000000000000008cff37001e009000e2
:100aa40089070700f404070088ff37001e00900040
:100ab40085070700f00407000000eb000080fa003f
:040ac4000000060028
:020000040000fa
:100ac8001400fa004007980052079800630798003e
:100ad80071079800040f9800150f98001000200067
:100ae800000f78004e009000100798000000eb00ff
:100af800200798008e0890000000eb00808f5000bf
:100b0800050032001e009000901090000010900028
:100b18000e0990000089be001e009000a0109000f1
:100b2800310798001e009000210020002110980035
:100b38007e009000010020004200200003002000f9
:100b4800820f5000838f580030003e000060010083
:100b58002d003700030037000d003700170037005d
:100b68001c0037001e0090000011900090119000aa
:100b78005e009000ee00900000007100818071001e
:100b88001e01900000119800111198001f003700f5
:100b98001e0090000011900090119000100020009d
:100ba8000100200002004000838048001e019000e0
:100bb8000011980011119800140037001e009000d1
:100bc8005e019000ee01900002109800131098004a
:100bd8000e003700be00900020002000808f5000db
:100be800060032001e0090005e019000ee019000a9
:100bf8000210980013109800040037000000eb0062
:100c0800000f78000100370000000000be009000cf
:100c180010002000808f50002c003a0051e3800023
:100c28000000eb00808f500016003a001e00900074
:100c38000080e800140b07001e009000b008900028
:100c4800e0e28000808f5000030036001e00900014
:100c580030089000e0e288001e0090000081e80063
:100c68001e009000300890006a00b90080007800eb
:100c780040c021000080400082007800b30b0700cc
:100c8800050037001e0090006c00400080007800ce
:100c980040c42100ad0b07001e009000b008900072
:100ca80060e5800030089000808f50000700360013
:100cb8009e0890000000eb00808f50000300320077
:100cc8001e08900011002000010878001e0078001e
:080cd8000080fa000000060094
:020000040000fa
:100ce0001200fa00500798006107980072079800f8
:100cf000030f98000000eb00000f78005e009000ea
:100d00001007980001003700000000004e0d07009a
:100d10001e009000e00890001e00900070089000f7
:100d2000808f5000040039008e08900020002000c1
:100d3000808f50001e003a000e099000ee009000d7
:100d40001e009000f2030700200798001e0090008c
:100d5000900890000000eb00808f50000a003200e5
:100d60001e009000720040004008070011002000a3
:100d7000810f50000b003a00ae1b02000000000083
:100d80000000000007003700ae0090000000eb00fc
:100d9000808f500003003200ae1b020000000000f4
:100da00000000000140d0700100020004400370070
:100db000fe0090000000eb00808f500003003a001e
:100dc0000d0d07000000eb003d0037009e0078008d
:100dd0000000eb00808f500004003a0066004700de
:100de000d50d070010002000000f7800020d07004d
:100df0000f0e0700140d07001e00900090109000c9
:100e00000080eb00808f500003003a001e0090002d
:100e10008000eb00111098001e009000a0109000c0
:100e20000080eb00808f500003003a001e0090000d
:100e30008000eb0021109800ef0c0700ee00470047
:100e400066004700e70807008000eb00810f5000b4
:100e500017003a001e009000210d07008000eb00f3
:100e6000810f50000e003200fe0090001e00900026
:100e700068004000ca0b07001e00900093060700a0
:100e8000fe0307008000eb00810f50009eff3a0038
:100e9000ae1b020000000000000000009bff3700b6
:100ea0001e00900089060700f403070097ff370033
:100eb0001e00900085060700f00307000000eb000d
:080ec0000080fa0000000600aa
:020000040000fa
:100ec8001600fa00000f9800110f9800220f9800e2
:100ed8000e089000100798009002800020079800e4
:100ee800ff3ffc0011028000f0f12f0080806000bd
:100ef8000002200000807000100288002e00900080
:100f08009002880000008800000000001e00900089
:100f1800f10c07008000eb00810f50002100320027
:100f2800ae0890000000eb00808f500011003200e6
:100f38001e00900068004000800078002e08900095
:100f4800990a07009002800030079800ff3ffc00d4
:100f580011028000f0f12f0000806000100288006c
:100f68003e0090009002880000008800c0ff2f001b
:100f78004a0037009002800040079800ff3ffc00bd
:100f880011028000f0f12f0000806000100288003c
:100f98004e00900090028800000088000000eb00de
:100fa8003e0037009002800050079800ff3ffc0089
:100fb80011028000f0f12f0000806000100288000c
:100fc8005e00900090028800000088009002800077
:100fd80060079800ff3ffc0011028000f0f12f002d
:100fe80080806000000220000080700010028800ed
:100ff8006e00900090028800000088000000000049
:101008001e009000e00890001e00900070089000fc
:10101800808f5000140031000001eb009e08900002
:101028001e0090003803070010002000000f780011
:101038001e009000900890000000eb00808f500088
:101048000b0032001e009000720040006e0b07007b
:101058008000eb00810f500005003200b0ff2f0028
:10106800000f7800020037000000eb00000f780046
:101078009002800070079800ff3ffc00110280007a
:10108800f0f12f0000806000100288007e009000c0
:1010980090028800000088001e0078000080fa0096
:0410a800000006003e
:020000040000fa
:1010ac001600fa0030079800410798005207980084
:1010bc006307980074079800050f9800160f9800a6
:1010cc00270f98009e0890005e009000730907009f
:1010dc00100798009e0090000000eb00808f5000dd
:1010ec00530032001e009000c008900021079800a9
:1010fc001e009000c00890005e0090000000e90007
:10110c0000004000808040001e0090007108980094
:10111c005e029000ae0990007e019000ce0090001f
:10112c001e009000a40507006e019000be00900008
:10113c002e00900040040700800078001e009000f4
:10114c00010878008e0890000000eb00808f5000a2
:10115c00030032000e0890009e00900001087800f9
:10116c00360c0700c0e280000000e800c0e28800f6
:10117c0061e580000000eb00808f500008003a0011
:10118c001e00900060e58800c1e280001000200085
:10119c00808f50000d003a00e10a07000b00370069
:1011ac00f1e280000000eb00808f500007003a0055
:1011bc0060e58000b00890007e009000808f5000a9
:1011cc0002003e009e00900061e5880030e3800044
:1011dc000000e80030e388001e009000b00890008a
:1011ec00e0e28000808f5000030036001e0090006b
:1011fc0030089000e0e288001e0090000081e800ba
:10120c001e009000300890006a00b9008000780041
:10121c0040c0210000804000820078004a0a07008c
:10122c0010002000000f7800f00b070002003700c0
:10123c000080eb00000f78009e007800100020006a
:10124c00808f50000c003a00f1e280000000eb00af
:10125c00808f50000800320060e58000b0089000dc
:10126c007e009000808f500003003100ae1b020006
:10127c0000000000000000001e0078000080fa0052
:04128c000000060058
:020000040000fa
:101290001000fa00300798004207980053079800a2
:1012a000610798007407980010002000000f780074
:1012b0003e00900010079800e30b0700fe0090002e
:1012c0000000eb00808f5000050032001e009000ef
:1012d00090109000001090007e0190000089be00e8
:1012e0001e009000a0109000210798001e009000a2
:1012f00021002000211098006e00900001002000c5
:101300004200200003002000820f5000838f58000d
:1013100030003e00006001002d0037000300370060
:101320000d003700170037001c0037001e0090002a
:1013300000119000901190004e009000de0090008f
:1013400000007100818071001e0190000011980062
:10135000111198001f0037001e009000001190002e
:1013600090119000100020000100200002004000b9
:10137000838048001e019000001198001111980010
:10138000140037001e0090004e019000de01900016
:1013900002109800131098000e003700ae00900065
:1013a00020002000808f5000060032001e009000b8
:1013b0004e019000de01900002109800131098007a
:1013c000040037000000eb00000f78000100370038
:1013d00000000000ae00900010002000808f500040
:1013e0001e003a001e0090000080e8002809070057
:1013f0001e009000b0089000e0e28000808f500056
:10140000030036001e00900030089000e0e28800e3
:101410001e0090000081e8001e009000300890003f
:101420006a00b9008000780040c0210000804000c0
:1014300082007800c70907001e009000b0089000e5
:1014400060e5800030089000808f50000300360077
:10145000ae1b02000000000000000000660b070049
:0c1460001e0078000080fa00000006006a
:020000040000fa
:10146c000a00fa000000eb00000f780051e3800046
:10147c000000eb00808f500062003a00d0e2800048
:10148c000000e800d0e28800d0e28000100798004d
:10149c009e0090000000eb00808f50000a003a0084
:1014ac0001e280002107980010e2800000e2880031
:1014bc002e00900010e2880020e380000000e8007d
:1014cc0020e38800950b070040e380009e0090000d
:1014dc00808f50003e0039000100370000000000f2
:1014ec0000e28000900078000000eb00808f50003c
:1014fc0003003a000080eb0040e388003400370022
:10150c0000e280003000900030009000300798001e
:10151c003e00900090009000410798009e009000c3
:10152c004e009000808f5000030031004e00900060
:10153c0040e38800260037003e0090000080e80061
:10154c00d00807003e009000a00890000000eb00bf
:10155c00808f5000030032003e0090006c00400071
:10156c00c80807003e009000b0089000e0e2800040
:10157c00808f5000030036003e0090003008900031
:10158c00e0e288003e0090000081e8003e00900000
:10159c00300890006a00b9008000780040c021003b
:1015ac000080400082007800670907003e00900030
:1015bc00b008900060e5800030089000808f5000eb
:1015cc00c6ff390010002000000f7800c4ff370060
:1015dc0060e58000300890006a00b9008000780057
:1015ec0040c02100008040009000780010002000d6
:1015fc00808f50000600360010002000000f78008d
:10160c000300370000e380000000e80000e38800de
:10161c0011e380000000eb00808f500002003200cc
:10162c0010002000000f78001e0078000080fa00e7
:04163c0000000600a4
:020000040000fa
:101640000c00fa00500798006400470021082000b1
:101650000108780064004700b104200011009800e0
:101660006400470071032000210098000000eb0097
:10167000000f7800610037000000eb0010079800b1
:1016800019003700010820001e0090008088de004d
:101690006400470010007800808060000000eb00cc
:1016a000808f500007003200c402a80030002000e4
:1016b00081090700c402a900900020007e090700ec
:1016c00006003700c402a800600020007a09070065
:1016d000c402a90060002000770907001e009000e6
:1016e0000000e800100798009e00900070002000a5
:1016f000808f5000e3ff34000000eb0010079800db
:1017000019003700010820001e0090008088de00cc
:101710006400470010009000808060000000eb0033
:10172000808f500007003200c402a8003000200063
:1017300061090700c402a900900020005e090700ab
:1017400006003700c402a800600020005a09070004
:10175000c402a90060002000570907001e00900085
:101760000000e800100798009e0090007000200024
:10177000808f5000e3ff34000000eb00100798005a
:1017800019003700010820001e0090008088de004c
:101790006400470020009000808060000000eb00a3
:1017a000808f500007003200c402a80030002000e3
:1017b00041090700c402a900900020003e0907006b
:1017c00006003700c402a800600020003a090700a4
:1017d000c402a90060002000370907001e00900025
:1017e0000000e800100798009e00900070002000a4
:1017f000808f5000e3ff34001e0fe8009e00780049
:101800000000eb00808f50009bff340097ff3700f3
:020000040000fa
:101810001000fa002007980031079800420798004e
:10182000530798006407980075079800860a070018
:1018300060e58000a010900020002000808f500004
:101840003300320064e58000041190009411900090
:101850002e009000be0090000080ea008180ea0027
:10186000820278000301780080017800010078008e
:10187000838262000000610001002000c000dd00e2
:10188000000020000001be006128b80000017100c6
:1018900081817100021298001312980060e58000a7
:1018a0001100200021109800fe0090000000eb00c5
:1018b000808f50001600320060e580000080e80054
:1018c000f3070700fe0090000080eb00808f5000bf
:1018d00006003a0060e580000080e80080007800a3
:1018e000e0c421009b08070006003700d1e2800019
:1018f0007e00900000804000100798001e009000bd
:1019000094090700ae1b0200000000000000000068
:10191000390a07004c0a0700ee0090000000eb00b7
:10192000808f50000500320060e58000901090002c
:10193000001090006e0190000089be0060e58000fc
:10194000a010900010002000808f500003003a008b
:101950000000eb00000f78001800370064e58000fd
:1019600004119000941190004e009000de00900051
:101970000080ea008180ea0082027800030178009a
:10198000800178000100780083826200000061001d
:1019900001002000c000dd00000020000001be00aa
:1019a0006128b80000017100818171000212980065
:1019b0001312980010002000000f780060e58000ee
:1019c0008000eb00211098000b0a07001e00780031
:0819d0000080fa00000006008f
:020000040000fa
:1019d8000c00fa0040079800510798000000eb003f
:1019e800000f7800de00900030002000808f50004b
:1019f800020036003000200050079800100a070047
:101a0800ce0090000000eb00808f500002003a00ea
:101a180060e58000010037004e0090001007980034
:101a28001e009000b008900021079800ae009000ba
:101a38005e009000808f50004b003200de00900066
:101a48002e009000808f50000c00360060e580006a
:101a58009e009000808f50000e00320060e58000ec
:101a6800b00890005e009000808f500009003e0092
:101a780010002000000f78000600370060e58000a5
:101a88009e009000808f500002003a001000200055
:101a9800000f78001e009000b008900031079800f1
:101aa8001e009000de009000310898001e00900093
:101ab80060009000800078000000eb00808f5000ec
:101ac800040035005e009000e40010001e00900045
:101ad800610098001e009000500190003e009000a8
:101ae8006a00b9008000780040c0210000804000f2
:101af800800f510015003a001e0090000080e80099
:101b0800610707001e009000b0089000e0e2800026
:101b1800808f5000030036001e00900030089000af
:101b2800e0e288001e0090000081e8001e0090009e
:101b3800300890006a00b9008000780040c0210099
:101b48000080400082007800000807009e007800ae
:101b580010002000808f500003003a00ae1b0200e6
:101b68000000000000000000a10907000080fa0042
:041b78000000060063
:020000040000fa
:101b7c000800fa00870a070031e5800001005000d8
:101b8c0040e588005700370020e580000000e800a1
:101b9c0020e5880040e580000000e90040e5880071
:101bac0021e580000000eb00808f500045003a00da
:101bbc00a0e48000000f7800b0e48000a0e488006e
:101bcc001e007800b0e488003f003700a0e48000dd
:101bdc003000900030009000100798001e0090001c
:101bec009000900020e58000808f50003c003e006b
:101bfc009002800020079800ff3ffc00110280003b
:101c0c00f0f12f0080806000000220000080700046
:101c1c00100288002e0090009002880000008800be
:101c2c00000000001e0090000080e800150707006f
:101c3c001e009000a00890000000eb00808f500068
:101c4c00030032001e0090006c0040000d070700de
:101c5c009002800030079800ff3ffc0011028000ca
:101c6c00f0f12f0000806000100288003e00900010
:101c7c0090028800000088001e009000b0089000c0
:101c8c0010e58000808f5000030036001e0090008d
:101c9c003008900010e588001e0090000081e800dc
:101cac001e009000300890006a00b9008000780097
:101cbc00c0c621000080400082007800a207070007
:101ccc000100370000000000a0e4800090007800c4
:101cdc000000eb00808f5000bcff3a000100370081
:101cec000000000041e580000000eb00808f5000f8
:101cfc00a5ff3a0020e5800030e588000080fa005e
:041d0c0000000600cd
:020000040000fa
:101d10000800fa0010079800210798003207980081
:101d20000000eb00000f78001e0090008010900073
:101d30000000eb00808f500048003200be00900091
:101d40000000eb00808f500019003a001e00900048
:101d5000801090001e00900020009000010178008b
:101d6000ae0090000cfa07001e009000a00090004a
:101d70001e00900000109000808040001e00900027
:101d8000210098001e009000a00090001e0090000e
:101d900010009000808f5000300039001e0090002d
:101da000900078001e009000210098002b00370062
:101db0001e009000801090001e00900030009000e7
:101dc00001017800ae009000f3f907001e009000ba
:101dd000b00090001e009000001090000000ea008b
:101de000808040001e009000310098001e0090008e
:101df000b00090001e00900010007800808f50000e
:101e0000080031001e009000900090001e0090001d
:101e1000001090000000ea00808040001e0090004a
:101e200031009800be00900020002000808f5000fc
:101e30000a003a001e009000e00890000000eb004d
:101e4000808f5000050032001e0090006008900056
:101e50008000e9001e009000610898001e009000bc
:101e6000600890008000e8001e0090006108980063
:0c1e70001e0078000080fa000000060050
:020000040000fa
:101e7c000400fa000000eb00000f7800ef080700e8
:101e8c0050e380000000e90050e3880051e380003b
:101e9c000000eb00808f500047003a00c1e2800048
:101eac000000eb00808f500043003200230037000d
:101ebc0050e2800030009000100798001e00900047
:101ecc006c0040006f0607001e0090000080e800c8
:101edc006c0607001e009000b0089000e0e2800045
:101eec00808f5000030036001e00900030089000d8
:101efc00e0e288001e0090000081e8001e009000c7
:101f0c00300890006a00b9008000780040c02100c1
:101f1c0000804000820078000b0707001e00900034
:101f2c00b008900060e5800030089000808f500071
:101f3c00020039001000200010e3880021e280002c
:101f4c000000eb00808f5000d9ff3a0001e38000c5
:101f5c000000eb00808f50000e00320009003700ab
:101f6c003ffd07008000eb00810f500002003200a3
:101f7c001000200010e3880000e380000000e9005e
:101f8c0000e3880001e380000000eb00808f50002c
:101f9c00f3ff3a0011e3800010002000808f500006
:101fac0005003a0010002000000f7800ae1b020064
:101fbc0000000000000000008c0807001e007800e4
:081fcc000080fa00000006008d
:020000040000fa
:101fd4000a00fa00300798004107980099080700a2
:101fe40060e5800000119000901190006000b8003e
:101ff400800f5100818f59001c003a0060e5800079
:102004001100200021109800ce0090000000eb0089
:10201400808f50001500320060e580000080e800e9
:102024001a060700ce0090000080eb00808f50005d
:1020340006003a0060e580000080e8008000780037
:10204400e0c42100c206070005003700d1e2800089
:102054004e009000008f40001e007800bc0707006f
:10206400ae1b020000000000000000006108070031
:102074007408070060e58000001190009011900042
:1020840012079800230798001e019000ae019000eb
:102094006000b800800f5100818f59001200320097
:1020a400be0090000000eb00808f5000050032005d
:1020b40062e580006000b8000011980011119800da
:1020c4000900370064e58000041190009411900029
:1020d4000080eb008080eb00020040008380480019
:1020e400001298001112980060e580008000eb0057
:1020f400211098003f0807001e009000ae009000d9
:082104000080fa000000060053
:020000040000fa
:10210c000a00fa002007980031079800420798004f
:10211c00c001200032050700100798009e009000b7
:10212c000000eb00808f50003e00320071e5800013
:10213c000000eb00808f500003003a001e0090005e
:10214c0070e588004b070700be00900010002000cf
:10215c00808f5000020036001000200030079800dd
:10216c001e0090008000eb00510898001e009000ab
:10217c00be009000310898001e009000ce00900028
:10218c00410898001e009000ae00900001087800f5
:10219c001e0090000080e8000e0907001e00900051
:1021ac006c0040000b0907001e0090009e00900080
:1021bc00410098001e0090009e00900011089800ad
:1021cc003e009000e20010001e009000610098009c
:1021dc001e009000b008900010e58000808f500029
:1021ec00030036001e0090003008900010e58800b7
:1021fc001e0090000081e8001e0090003008900046
:10220c006a00b90080007800c0c621000080400040
:10221c00820078004c06070010002000000f7800a8
:10222c00020037000080eb00000f78001e007800e1
:08223c000080fa00000006001a
:020000040000fa
:102244002a00fa00201798003117980042179800c6
:1022540064004700812e28000f000900311878001f
:102264000002b1003e109000100798002e1090005c
:102274009e009000010878002e1090000080e80075
:10228400201798002e1090008000eb0001087800c1
:102294002e1090000080e800201798002e10900067
:1022a4008000eb00010878002e1090000080e80008
:1022b40020179800ce1090002e109000010878008e
:1022c4002e1090000080e800201798000000eb001a
:1022d400000f78000a003700e40047001e00780071
:1022e40000004000e10078002e1090000108780002
:1022f4002e1090000080e800201798001e0fe800c0
:102304009e007800f0002000808f5000f2ff36001d
:10231400210280002e109000010878002e109000f9
:102324000080e8002017980034c0bf008080fb00c4
:102334002e109000010878002e1090000080e80014
:10234400201798002e1090008000eb000108780000
:102354002e1090000080e800201798002e109000a6
:082364000080fa0000000600f1
:020000040000fa
:10236c000600fa0010079800210798001e00900044
:10237c00000f7800b10707001e00780010017800ec
:10238c001e007800f00890001e00780000109000ed
:10239c000088b90000007800800041001e00780021
:1023ac00110098001e0078008000eb006108980076
:1023bc001e007800900078001e0078002100980024
:1023cc001e007800100178001e0078007008900044
:1023dc008000e9001e007800001090000088b90011
:1023ec0000007800800041001e0078003100980049
:1023fc001e0078008080eb00111098001e00780001
:10240c008080eb0021109800ae0090000000eb00e3
:10241c00808f50000f003a001e007800c000900022
:10242c000000eb00808f5000100032009e007800fe
:10243c00688040008a02070011002000810f5000c4
:10244c000a003a00ae1b0200000000000000000071
:10245c00060037009e0078006880400007070700e0
:10246c009e00780072804000040707005f07070099
:0c247c00100020000080fa0000000600a4
:020000040000fa
:102488000a00fa0030079800410798003e009000c3
:10249800000f78000000eb00100798001e0078007d
:1024a800a0109000210798001e007800210020004d
:1024b800211098001e0078000011900090119000e3
:1024c8001000200001002000020040008380480026
:1024d8001e0178000011980011119800ae009000bc
:1024e80010002000808f50002a003a0051e380003d
:1024f8000000eb00808f500014003a001e80e800b6
:10250800e10407001e007800b0089000e0e28000b7
:10251800808f5000030036001e00780030089000bd
:10252800e0e288001e81e8001e0078003008900074
:102538006a00b9008000780040c021000080400097
:102548008200780081050700050037009e007800aa
:102558006c8040008000780040c421007b050700a3
:102568001e007800b008900060e5800030089000f8
:10257800808f500007003600ce0090000000eb006e
:10258800808f5000030032004e00900011002000a0
:0c259800010878000080fa000000060036
:020000040000fa
:1025a4000a00fa00200798003107980042079800b3
:1025b4002e009000100798001e009000e008900084
:1025c4000000eb00808f5000340032001e009000a9
:1025d400b00090001e009000001090008080400029
:1025e4001e009000310098001e009000b000900082
:1025f4001e00900010009000808f500004003900ed
:102604001e009000900078001e0090003100980099
:102614001e009000600890008000e9001e009000f9
:10262400610898001e009000801090001e00900029
:102634003000900001017800800078003e00900096
:10264400d4f707004e009000900078000000eb00e3
:10265400808f50000e003a001e009000c0009000d1
:102664000000eb00808f5000090032001e00900033
:1026740068004000e50507008000eb00810f500072
:10268400030032004e009000110020000108780081
:1026940010002000000f7800020037000000eb005b
:1026a400000f78001e0078000080fa000000060089
:020000040000fa
:1026b4000400fa0051e380000000eb00808f50001a
:1026c400030032001000200010e388003a003700b5
:1026d4000000eb0010e3880060e5800070089000c3
:1026e400000f78001e007800740f50004201200093
:1026f400d13028001e0078008cf707008000780095
:102704000000eb00808f50000800320060e580007c
:10271400fa00400060e58000250707000300370049
:10272400e0e280000000e900e0e28800e0e28000ee
:102734006a00b9008000780040c021000080400099
:10274400900078000000eb00808f5000f4ff32000e
:10275400e0e280006a00b9008000780040c02100f7
:1027640000804000100798001e00900010009000a8
:10277400900090001e009000110098001e00900030
:10278400900090001e00900064004000808f500074
:1027940005003a001e009000100090009000900088
:1027a4001e009000110098001e0090001000900080
:1027b4003000900060e588000080fa000000060008
:020000040000fa
:1027c4000c00fa00100798002107980032079800bf
:1027d40043079800540798000000eb00000f7800ae
:1027e4000e0037002e0090001e00400010407800bc
:1027f4009e0090009e804000fa804000804878004f
:102804002e0090001e004000904078000040eb0035
:1028140080cf5000060032001e0fe8009e007800b2
:1028240030002000808f5000eeff3600010037009a
:10283400000000009e0090000040eb00d05898007b
:10284400be00900030002000808f5000020036004f
:1028540030002000300798001e009000be00900059
:10286400310898001e0090000080e8005b07070014
:102874001e0090006c004000580707001e009000e6
:102884009e009000410098003e009000e40010007b
:102894001e009000610098001e0090009e009000b1
:1028a400110898001e0190006000b8000011980003
:1028b400111198001e0090008000eb002110980078
:0828c4000080fa00000006008c
:020000040000fa
:1028cc000200fa00000f78005c06070011003700c8
:1028dc001e007800900890000000eb00808f5000e4
:1028ec00120032009e007800728040005c010700ec
:1028fc008000eb00810f50000100320054070700ec
:10290c001e007800201090008000e9001e00780066
:10291c00211098001e007800a01090000000eb0021
:10292c00808f5000eaff3c000100370000000000df
:10293c001e0078008080eb00211098002b06070009
:10294c003e060700110037001e007800c000900002
:10295c000000eb00808f5000120032009e007800c7
:10296c00688040003e0107008000eb00810f5000a2
:10297c0001003200360707001e007800101090008e
:10298c008000e9001e007800111098001e007800ed
:10299c00901090000000eb00808f5000eaff3c008c
:1029ac0001003700000000001e0078008080eb0062
:1029bc00111098000d0607000080fa0000000600b8
:020000040000fa
:1029cc000c00fa0040079800510798000000eb003b
:1029dc00000f780013070700d0e280001007980062
:1029ec004e009000900078005e0090000080400047
:1029fc00200798004e009000900078001e00900078
:102a0c00808f50000c0036004e0090009000780033
:102a1c002e009000808f500012003600ae00900007
:102a2c001e009000808f50000e0036001000200019
:102a3c00000f78000b0037004e00900090007800db
:102a4c002e009000808f500004003e00ae009000dd
:102a5c001e009000808f50000200360010002000f5
:102a6c00000f78004e009000ae0090000108780036
:102a7c009e0078000000eb00808f500005003200b3
:102a8c0060e580000080e8007e0307002e009000c7
:102a9c002d050700f6fc070030079800be009000db
:102aac000000eb00808f500003003a00ae1b0200c8
:102abc0000000000000000000080fa00000006008a
:020000040000fa
:102acc000e00fa0030079800410798005207980052
:102adc00630798003e009000100798000000eb0080
:102aec00200798001e009000e00890001e00900047
:102afc0070089000808f500004003900ee009000a8
:102b0c0020002000808f500024003a006e019000bd
:102b1c00ce0090001e0090007afc07001e00900072
:102b2c00a01090000080eb00808f500013003a0042
:102b3c001e009000900890000000eb00808f500069
:102b4c00130032001e00900072004000c400070009
:102b5c008000eb00810f50000d003200de00900071
:102b6c000000eb00808f5000090032005e009000e6
:102b7c001100200001087800050037001e009000ad
:102b8c00201090008000e8001e009000211098009a
:102b9c0010002000000f7800020037000000eb004e
:102bac00000f78001e0078000080fa00000006007c
:020000040000fa
:102bbc000c00fa0030079800410798005207980063
:102bcc003e009000100798000000eb0020079800d2
:102bdc001e009000e00890000000eb00808f500079
:102bec0028003200ce0090001e00900091030700d8
:102bfc001e009000600890008000e9001e0090000c
:102c0c00610898001e009000901090000080eb006e
:102c1c00808f500013003a001e009000c0009000fe
:102c2c000000eb00808f5000130032001e0090005b
:102c3c00680040008a0007008000eb00810f500004
:102c4c000d003200de0090000000eb00808f500081
:102c5c00090032005e00900011002000010878008d
:102c6c00050037001e009000101090008000e80056
:102c7c001e0090001110980010002000000f78002a
:102c8c00020037000000eb00000f78001e007800f7
:082c9c000080fa0000000600b0
:020000040000fa
:102ca4000600fa003200370090028000000f78001e
:102cb400ff3ffc0011028000f0f12f0080806000d3
:102cc4000002200000807000100288001e007800be
:102cd400900288000000880000000000f0e48000fa
:102ce40030009000100798001e0090006c00400017
:102cf400e60207009002800020079800ff3ffc00d6
:102d040011028000f0f12f000080600010028800a2
:102d14002e00900090028800000088001e009000a1
:102d24000080e800d90207001e009000b00890005f
:102d340010e58000808f5000030036001e009000d4
:102d44003008900010e588001e0090000081e80023
:102d54001e009000300890006a00b90080007800de
:102d6400c0c621000080400082007800780307007c
:102d7400c1e480000000eb00808f5000caff3a00dd
:082d84000080fa0000000600c7
:020000040000fa
:102d8c000400fa00100798002c0507009e00900024
:102d9c000000eb00808f500002003a0060e58000dc
:102dac00010037001e009000000f78001e80e80024
:102dbc00b40207001e007800a00890000000eb0091
:102dcc00808f5000030032009e0078006c80400021
:102ddc00ac0207001e80e80080007800e0c42100ef
:102dec00590307000105070060e580009e0078008c
:102dfc00808f500011003a00f1e280000000eb00df
:102e0c00808f500004003200ae1b02000000000056
:102e1c00000000001000370071e28000c0e280006a
:102e2c00808f500003003a000000eb0060e5880042
:102e3c00090037001cfe070007003700f1e2800094
:102e4c000000eb00808f500003003200fb040700f1
:102e5c0032050700e50407000080fa0000000600b8
:020000040000fa
:102e6c000600fa00200798002e0090003000900019
:102e7c0030009000100798001e0090006c0040007d
:102e8c008002070051e380000000eb00808f5000af
:102e9c0016003a001e0090000080e800790207003e
:102eac001e009000b0089000e0e28000808f50007f
:102ebc00030036001e00900030089000e0e288000d
:102ecc001e0090000081e8001e0090003008900069
:102edc006a00b9008000780040c0210000804000ea
:102eec008200780018030700050037001e009000d0
:102efc006c0040008000780040c4210012030700e1
:102f0c001e009000b008900060e580003008900032
:102f1c00808f50000500360010002000000f780054
:102f2c001000200010e38800020037000000eb00c6
:102f3c00000f78001e0078000080fa0000000600e8
:020000040000fa
:102f4c000200fa0054ff070009fb070007003700d6
:102f5c0011e580000000eb00808f50002d00320046
:102f6c0010e580000000e90010e5880010e5800005
:102f7c006a00b90080007800c0c6210000804000c3
:102f8c00900078000000eb00808f5000f0ff3200c2
:102f9c0010e580006a00b90080007800c0c62100ee
:102fac00008f40001e0078001000900090009000f0
:102fbc001e007800110098001e0078009000900010
:102fcc001e01780064004100808f500005003a001b
:102fdc001e00780010009000900090001e007800f9
:102fec00110098001e007800100090003000900036
:102ffc0070e5880070e580001001780070e58000b5
:10300c00c008900070e58000020001000000000084
:10301c0001003700000000000080fa0000000600ec
:020000040000fa
:10302c000a00fa0030079800410798003e00900013
:10303c00100798000000eb00200798001e0090007d
:10304c00e00890001e00900070089000808f5000e7
:10305c00250031001e009000600890008000e80000
:10306c001e009000610898001e009000a0109000b7
:10307c000080eb00808f500013003a001e0090007f
:10308c00900890000000eb00808f5000130032007d
:10309c001e0090007200400071ff07008000eb00e2
:1030ac00810f50000d003200ce0090000000eb00ac
:1030bc00808f5000090032004e009000110020005b
:1030cc0001087800050037001e00900020109000c9
:1030dc008000e8001e0090002110980010002000d5
:1030ec00000f7800020037000000eb00000f7800a2
:0c30fc001e0078000080fa0000000600b2
:020000040000fa
:103108000800fa00300798000000eb00000f780074
:103118003e009000100798000000eb002007980080
:103128001e0090006f03070011002000810f50005f
:1031380027003a0051e380000000eb00808f500028
:103148001e003a001e009000b008900060e5800064
:1031580030089000808f50000200390010002000d5
:10316800000f78001e0090000080e800c6010700ec
:103178001e009000b0089000e0e28000808f5000b0
:10318800030036001e00900030089000e0e288003e
:103198001e0090000081e8001e009000300890009a
:1031a8006a00b9008000780040c02100008040001b
:1031b8008200780065020700050037001e009000b5
:1031c8006c0040008000780040c421005f020700c6
:0c31d8001e0078000080fa0000000600d5
:020000040000fa
:1031e4000800fa002007980031079800150407002a
:1031f400d0e28000100798003e0090009000780014
:103204000080eb00808f500003003a000000eb00c8
:10321400000f7800250037002e0090009000780001
:1032240020e38000808f5000080032002e009000c0
:10323400900090001e009000808f500003003e001c
:1032440010002000000f7800180037002e009000b6
:10325400100090009e009000808050003e0090007e
:1032640010007800808f50000e0031003e00900066
:10327400900078002e009000100190001e00900035
:1032840000005100808040003e009000010878005a
:103294002e009000a70407000000eb00000f780048
:1032a4000200370010002000000f7800d10307004f
:0c32b4001e0078000080fa0000000600f8
:020000040000fa
:1032c0000c00fa003007980041079800224f980040
:1032d0000000eb0010079800ce0090000000eb000b
:1032e000808f500003003a000000eb00000f7800d0
:1032f00005003700be0090004e0090000088b90025
:1033000000007800000fe800610220001e804000ed
:10331000b600070020079800ae0090000000eb0008
:10332000808f500018003200ce0090000000eb00ab
:10333000808f500004003a00ae0090002e009000f4
:1033400001087800050037002e009000610220007f
:10335000808040002e009000010878002e00900030
:10336000be009000710898002e009000ce009000e2
:1033700001109800110020002e009000fbfb0700b8
:103380002e009000100798001e0090000080fa00a8
:043390000000060033
:020000040000fa
:103394000800fa0020079800310798003e009000ca
:1033a40090007800110798009e0090000080eb00c8
:1033b400808f500004003a002e009000c00090005e
:1033c400010f78000d0037002e00900064004000cb
:1033d400000f7800030037001e0078009000900072
:1033e400010f78001e007800100090009000780013
:1033f4001e009000808f5000f7ff36001e007800fa
:10340400900090003e009000110098003e00900053
:1034140010009000be009000210098003e00900033
:103424009e007800210098001e007800be009000e5
:10343400110098003e009000ae00900041009800fa
:103444002e009000100078008000e8002e0090000c
:0c345400010878000080fa00000006006b
:020000040000fa
:103460000800fa002007980031079800be0090007d
:1034700000002800808070002e0090000108780075
:103480002e00900030009000100798002e00900051
:10349000ff0007001e0090000080e800fc0007000d
:1034a0001e009000b0089000e0e28000808f500085
:1034b000030036001e00900030089000e0e2880013
:1034c0001e0090000081e8001e009000300890006f
:1034d0006a00b9008000780040c0210000804000f0
:1034e000820078009b0107001e009000b008900049
:1034f00060e5800030089000808f500005003600a5
:1035000010002000000f78001000200010e3880059
:10351000020037000000eb00000f78001e0078006a
:083520000080fa000000060023
:020000040000fa
:103528000400fa00100798001e009000000f7800b1
:103538009e0078000000eb00808f500027003200ca
:1035480060e580009e007800808f500023003200e4
:103558003b0307001e0078006202070011002000ec
:10356800810f50001c003a001e80e800c6000700ca
:103578001e007800b0089000e0e28000808f5000c4
:10358800030036001e00780030089000e0e2880052
:103598001e81e8001e007800300890006a00b9001b
:1035a8008000780040c02100008040008200780040
:1035b800660107001e007800b008900060e58000f2
:1035c80030089000808f500003003900ae1b0200c5
:1035d8000000000000000000050307000080fa005a
:0435e80000000600d9
:020000040000fa
:1035ec000400fa00100798000000eb00000f7800b0
:1035fc001e00900061006000804078000040eb00ed
:10360c0080cf5000050032009e009000e0ff2f009c
:10361c00008060000080e80010079800010407009b
:10362c0011e080000000eb00808f500004003a0095
:10363c0021802000e0ff2f000080600010e0880057
:10364c0001e080001e00900080804000d03f2100ef
:10365c00808f50000d003e0001e080001e009000a5
:10366c008080400000e08000808f50000700360012
:10367c0011e0800000e08000008f400001e080003d
:10368c001e0090000080400000e08800f8f9070060
:0c369c001e0078000080fa00000006000c
:020000040000fa
:1036a8000600fa0010079800210798006002200021
:1036b800ccff0700000f78009e0078000000eb00a8
:1036c800808f500014003200ae0090000000eb0024
:1036d800808f500004003a001e0090000000400057
:1036e800c0ff0700010037002e0090009e00780000
:1036f800c00898001e007800c00890000000eb0089
:10370800808f500004003a001e007800d60307009e
:103718000000eb00000f78009e0078000000eb002e
:10372800808f5000080032001e009000000040000a
:10373800800078001e0078004008900001017800a1
:10374800510a200099f307001e0078000080fa0053
:043758000000060067
:020000040000fa
:10375c004200f800801f7800000220001002880050
:10376c00811f7800829fbe00849fbe00869fbe0092
:10377c00889fbe008a9fbe008c9fbe008e1f780063
:10378c003600f8003200f8004400f8003400f8006d
:10379c0050e58000801f780060e580000f087800fd
:1037ac005a1302000000000060e5800090077800ca
:1037bc004f00780050e588003400f9004400f9000f
:1037cc003200f9003600f9004f0778004f06be00b2
:1037dc004f05be004f04be004f03be004f02be009b
:1037ec004f01be004f00be004200f9000000060071
:020000040000fa
:1037fc000400fa008003eb000003eb008002eb00f6
:10380c000002eb008001eb00320720008130280021
:10381c008025220022f60700000f78009e00780019
:10382c0010002000808f500014003a00900280009d
:10383c0010079800ff3ffc0011028000f0f12f00f0
:10384c008080600000022000008070001002880060
:10385c001e0090009002880000008800000000000c
:10386c000080eb0040e3880010002000f0e28800ac
:10387c000000eb00d0e28800190207000080fa007b
:04388c000000060032
:020000040000fa
:103890000400fa00100798001e00900040009000fd
:1038a000000f78001e009000100090009e00900015
:1038b000a1009000210098001e00900020009000c0
:1038c0009e00900091009000110098001e0078006a
:1038d000900090001e009000808f500004003a007d
:1038e0001e009000a00090001e00780011009800bb
:1038f0001e0090008000eb00410098001e00780040
:10390000100078008000e9001e00780001087800af
:103910001e007800100078000080fa000000060009
:020000040000fa
:103920000800fa0010079800210798003207980055
:103930001e009000000f78001e007800e008900044
:103940001e00780070089000808f50001500310034
:103950000001eb00ae0090001e007800ecf80700bc
:10396000be0090000000eb00808f50000d003a0078
:103970001e007800900890000000eb00808f50003f
:10398000080032009e00780072804000200107008d
:103990008000eb00810f5000020032001000200078
:1039a000010037003e0090000080fa000000060091
:020000040000fa
:1039b0000600fa00100798002107980021e5800012
:1039c0001e009000008f400070e580000080e8003d
:1039d000afff070070e580009e007800110098009e
:1039e00020e580009e007800808f500005003100a7
:1039f00070e580008080e800b0e4800065fe07008c
:103a00000400370070e580008080e800a0e48000ba
:103a100060fe0700ae0090000000eb00808f5000b9
:103a20000500320070e580006c00400080007800e6
:103a30002e00900057fe07000080fa0000000600ec
:020000040000fa
:103a40000400fa00000f7800110798001e007800ab
:103a5000801090000000eb00808f500019003200b1
:103a60001e007800b00090001e007800001090004a
:103a7000808040001e007800310098001e00780011
:103a8000b00090001e00780010009000808f500061
:103a9000040039001e007800900078001e007800b5
:103aa000310098001e007800801090001e00780001
:103ab0003000900001017800800078001e00900026
:0c3ac000b5f207000080fa0000000600cc
:020000040000fa
:103acc000800fa00100798002107980032079800a8
:103adc0060e580002e01900001002800810071003b
:103aec006100980060e580006c0040008000780068
:103afc001e0090001400070060e580000080e800c4
:103b0c0060ff0700be0090000080eb00808f50002b
:103b1c0006003a0060e580000080e8008000780034
:103b2c00e0c421000800070005003700d1e2800046
:103b3c003e009000008f40001e007800020107003c
:083b4c000080fa0000000600f1
:020000040000fa
:103b54000600fa0010079800210798001e00900044
:103b640090009000010f78002e0090009e007800d5
:103b7400110098001e007800a00090002e00900014
:103b8400210098001e00780020009000ae009000f4
:103b9400110098001e007800ae00900021009800eb
:103ba4002e0090009e009000410098001e0090009e
:103bb400100078008000e8001e00900001087800e2
:083bc4000080fa000000060079
:020000040000fa
:103bcc000600fa00200798002e00900010079800bd
:103bdc009e0090000000eb00808f500002003a0025
:103bec0060e58000010037001e009000100798006f
:103bfc00920107001e009000a010900020002000f1
:103c0c00808f500006003a001e0090008000eb00f0
:103c1c002110980010002000000f780002003700df
:103c2c000000eb00000f7800700107001e00780008
:083c3c000080fa000000060000
:020000040000fa
:103c44000c00fa0040079800510798004e009000bd
:103c5400100798000000eb00200798001e00900059
:103c6400e00890000000eb00808f50000c00320050
:103c74001e009000b000900031079800de00900014
:103c84001e0090006dff07001e009000be00900013
:103c94003100980010002000000f78000200370067
:103ca4000000eb00000f78001e0078000080fa008e
:043cb4000000060006
:020000040000fa
:103cb8000600fa00200798000000eb00000f7800cb
:103cc800ae0090000000eb00808f50000c00320026
:103cd80055020700d1e280002e00900000804000cd
:103ce8001007980060e580000080e800e6fe070005
:103cf8001e009000950007005ef80700000f78008e
:103d08009e0078000000eb00808f500003003a000e
:103d1800ae1b020000000000000000000080fa0056
:043d28000000060091
:020000040000fa
:103d2c000200fa000000eb00000f780007003700db
:103d3c001e0078006a00b9008000780040c02100a5
:103d4c0000804000cd0007001e0fe8009e007800a8
:103d5c0030002000808f5000f5ff3600c0c22100db
:103d6c00c600070060c32100c400070040c4210046
:103d7c00c2000700e0c42100c0000700c0c221003f
:103d8c0000e2880060c3210010e288000080fa0085
:043d9c00000006001d
:020000040000fa
:103da0000600fa00100798002107980060e58000df
:103db0006c004000800078001e00900075fd070038
:103dc00060e580000080e800b1fe0700ae009000d2
:103dd0000080eb00808f500006003a0060e5800014
:103de0000080e80080007800e0c4210059ff07004f
:103df00005003700d1e280002e009000008f4000c7
:103e00001e007800530007000080fa000000060042
:020000040000fa
:103e10000600fa00200798002e0090003000900065
:103e200030009000100798001e0090006c004000c9
:103e300097fe07001e0090006c0040008000780094
:103e400080c9210043ff07001e009000b0089000c9
:103e500070e5800030089000808f5000030039002a
:103e600010002000000f7800020037000000eb0077
:103e7000000f78001e0078000080fa0000000600a5
:020000040000fa
:103e80000200fa000000eb00000f78000700370086
:103e90001e0078006a00b90080007800c0c62100ca
:103ea00000804000780007001e0fe8009e007800a8
:103eb00010002000808f5000f5ff360000c8210060
:103ec00071000700a0c821006f00070080c9210011
:103ed0006d00070000c82100a0e48800a0c82100f0
:0c3ee000b0e488000080fa00000006003a
:020000040000fa
:103eec000600fa00200798000000eb00000f780095
:103efc002e009000100798001e009000d00090003b
:103f0c00e0c42100808f50000c003a001e0090008d
:103f1c00a008900040c42100808f500007003200a0
:103f2c001e009000a00890000000eb00808f500055
:103f3c0002003a0010002000000f78001e007800ec
:083f4c000080fa0000000600ed
:020000040000fa
:103f54000200fa00000f780060e580009e007800ff
:103f640011009800d0e280009e007800808f5000fd
:103f74000500310060e580008080e80010e28000e8
:103f840003fd07000a00370060e580008080e80038
:103f940000e28000fefc070040e380009e00780001
:103fa400808f5000020031001e00780040e388003a
:083fb4000080fa000000060085
:020000040000fa
:103fbc00000800000414000000000000aa1c00000f
:103fcc000200000002000000ef000000041c0000d2
:103fdc006800000000000000ac1c000002000000a3
:103fec0002000000000000006c1c00003e000000fd
:103ffc0000000000ae1c00000200000002000000e7
:10400c0000000000b01c00000200000002000000d4
:08401c0000000000000000009c
:020000040000fa
:104024003600f800809fbe00829fbe00849fbe00c1
:10403400869fbe003400f80000002000a001880024
:104044000000fa008460a90007f507008000eb0077
:10405400810f500003003200ae1b0200000000007c
:10406400000000000080fa003400f9004f03be0095
:104074004f02be004f01be004f00be003600f900e3
:0440840000400600f2
:020000040000fa
:104088000200fa00000f78009e007800648040006b
:10409800800078001e007800110098001e0078004b
:1040a8008080eb00210098009e007800648040002a
:1040b800800078001e007800310098009e0078008b
:1040c80064804000800078001e007800410098005d
:1040d8001e0078008000eb00010878000080fa00dc
:0440e80000000600ce
:020000040000fa
:1040ec000000fa001500070060e5800090077800da
:1040fc004f00780050e588003400f9004400f900c6
:10410c003200f9003600f9004f0778004f06be0068
:10411c004f05be004f04be004f03be004f02be0051
:10412c004f01be004f00be004200f9000000060027
:0c413c00100020000080fa0000000600c7
:020000040000fa
:104148000400fa00f07c200001002000008fbe006f
:104158000000eb00200888000000eb000008880041
:104168001e0078001008880021058000f0ff280054
:104178008080600000002100008070002005880019
:104188008460a9009460a8000481a80004a1a90083
:0c41980005e1a8000080fa00000006000d
:020000040000fa
:1041a4000000fa00c002a900130107000041eb005f
:1041b400210020003000200040fc070080e588003a
:1041c4008003eb000003eb008002eb0014002000ee
:1041d4008001eb00024020002132280000b22000c0
:1041e400b1f3070084fd07000000eb000080fa0033
:0441f40000000600c1
:020000040000fa
:1041f8000200fa0050e580000000e90050e5880060
:1042080051e580000000eb00808f50000a003a0062
:1042180090028000000f7800ff3ffc001102800030
:10422800f0f12f0000806000100288001e00780066
:1042380090028800000088000080fa000000060054
:020000040000fa
:104248000200fa0090028000000f7800ff3ffc0097
:1042580011028000f0f12f00808060000002200031
:1042680000807000100288001e007800900288000c
:10427800000088000000000050e580000000e80011
:0c42880050e588000080fa0000000600ed
:020000040000fa
:104294000200fa0090028000000f7800ff3ffc004b
:1042a40011028000f0f12f008080600000022000e5
:1042b40000807000100288001e00780090028800c0
:1042c40000008800000000000000eb00f0e288001d
:0c42d400ee0007000080fa000000060069
:020000040000fa
:1042e0000400fa0010079800d7ff07001e00900096
:1042f000e00890001e00900070089000808f500031
:1043000003003a0010002000000f78000200370080
:104310000000eb00000f7800b7ff07001e007800d8
:084320000080fa000000060015
:020000040000fa
:104328000200fa0000e28000900078000000eb0034
:10433800808f500003003a000080eb0040e38800c3
:104348000700370000e28000300090003000900045
:10435800000f78001e0078001000900040e38800ed
:084368000080fa0000000600cd
:020000040000fa
:104370000400fa0010079800b3ff07001e00900029
:10438000e00890000000eb00808f500003003a002e
:1043900010002000000f7800020037000000eb0042
:1043a000000f780094ff07001e0078000080fa00dc
:0443b0000000060003
:020000040000fa
:1043b4000600fa0010079800210798009002800078
:1043c400000f7800ff3ffc0011028000f0f12f0085
:1043d40080806000000220000080700010028800cd
:1043e4001e00780090028800000088000000000091
:0443f400ffff370090
:020000040000fa
:1043f8000400fa00100798001e009000e0089000e2
:104408001e00900070089000808f500003003a0052
:1044180010002000000f7800020037000000eb00b9
:10442800000f78001e0078000080fa0000000600e7
:020000040000fa
:104438000600fa00200798002e009000000f780070
:104448007fff07001e007800f00890001e0078002b
:1044580060089000008050001007980064ff070073
:0c4468001e0090000080fa00000006001a
:020000040000fa
:104474000400fa00100798001e009000e008900065
:104484000000eb00808f500003003a001000200071
:10449400000f7800020037000000eb00000f7800e6
:0c44a4001e0078000080fa0000000600f6
:020000040000fa
:1044b0000200fa00000f78007800070021e0800079
:1044c00010002000808f500003003600ae1b020059
:1044d000000000000000000073000700f6ff370036
:020000040000fa
:1044e0000200fa0060e58000e0009000010f780013
:1044f00060e5800061e58000b1089000e480100074
:10450000610098001e0078000080fa00000006009c
:020000040000fa
:104510000400fa00100798004bff07001e009000ef
:10452000e0089000010f780033ff07001e007800bc
:084530000080fa000000060003
:020000040000fa
:104538000200fa00000f780021e380001e007800d6
:1045480001087800d1e280001e0078001100980070
:084558000080fa0000000600db
:020000040000fa
:104560000400fa00100798001e009000e008900078
:10457000010f78001e0078000080fa00000006009d
:020000040000fa
:104580000400fa00100798001e009000000f780049
:104590001e007800360007000080fa0000000600c8
:020000040000fa
:1045a0000200fa0028ff0700d0e28000000f780028
:1045b00011ff07001e0078000080fa0000000600ce
:020000040000fa
:1045c0000400fa000000eb00000f7800d0e2800049
:1045d000100798001e0090000080fa0000000600fe
:020000040000fa
:1045e0000200fa00000f78001e0078008000eb0047
:0c45f000410098000080fa000000060066
:020000040000fa
:1045fc000000fa000000eb00001688000000eb0041
:0c460c00101688000080fa000000060074
:020000040000fa
:104618000000fa0000e08000e13f21000080500027
:084628000080fa00000006000a
:020000040000fa
:104630000000fa0050e380000000e80050e388002a
:084640000080fa0000000600f2
:020000040000fa
:104648000000fa000000eb0000e088000080fa009b
:044658000000060058
:020000040000fa
:10465c000000fa001000200010e388000080fa002f
:04466c000000060044
:020000040000fa
:104670000200fa00000f78000080fa000000060037
:020000040000fa
:104680000000fa00c0e280000080fa00000006008e
:020000040000fa
:0c4690000000fa000080fa0000000600a4
:020000040000fa
:0c469c000000fa000080fa000000060098
:020000040000fa
:0c46a8000000fa000080fa00000006008c
:020000040000fa
:0846b4000040da000000fe00e6
:020000040000fa
:020000040002f8
:04aff800fd7b0000dd
:020000040000fa
:020000040002f8
:04affc007f3f000093
:00000001FF
